:020000040800F2
:1000000000000520F1140008B9120008BD12000814
:10001000C1120008C5120008C91200080000000043
:10002000000000000000000000000000CD120008E9
:10003000D112000800000000D5120008D9120008F3
:100040004115000841150008411500084115000838
:100050004115000841150008411500084115000828
:100060004115000841150008411500084115000818
:100070004115000841150008411500084115000808
:1000800041150008411500084115000841150008F8
:1000900041150008411500084115000841150008E8
:1000A00041150008411500084115000841150008D8
:1000B00041150008411500084115000841150008C8
:1000C00041150008411500084115000841150008B8
:1000D00041150008411500084115000841150008A8
:1000E0004115000841150008411500084115000898
:1000F0004115000841150008411500084115000888
:1001000041150008DD1200084115000841150008DE
:100110004115000841150008411500084115000867
:10012000411500084115000841150008E9120008B2
:100130004115000841150008411500084115000847
:100140004115000841150008411500084115000837
:1001500041150008F51200080113000841150008B8
:100160004115000841150008411500084115000817
:100170004115000841150008411500080000000065
:1001800041150008411500084115000841150008F7
:1001900041150008411500084115000841150008E7
:1001A0004115000841150008411500080D1300080D
:0401B00041150008ED
:1001C00010B5054C237833B9044B13B10448AFF391
:1001D00000800123237010BD780000200000000083
:1001E000B886000808B5034B1BB103490348AFF3B9
:1001F000008008BD000000007C000020B8860008D8
:10020000034613F8012B002AFBD1181A0138704756
:1002100001F0FF01102A2BDB10F0070F08D010F8B7
:10022000013B013A8B422DD010F0070F42B3F6D1BB
:10023000F0B441EA012141EA014122F007047FF0D4
:1002400000070023F0E80256083C85EA010586EA2B
:10025000010685FA47F5A3FA87F586FA47F6A5FA67
:1002600087F68EB9EED1F0BC01F0FF0102F0070273
:1002700032B110F8013B013A83EA010313B1F8D11E
:100280000020704701387047002D06BF35460338FF
:10029000073815F0010F07D1013015F4807F02BF38
:1002A000013015F4C03F0130F0BC0138704700BF89
:1002B00053B94AB9002908BF00281CBF4FF0FF31CD
:1002C0004FF0FF3000F06EB9ADF1080C6DE904CECF
:1002D00000F006F8DDF804E0DDE9022304B0704721
:1002E0002DE9F047089D04468C46002B40F08380A2
:1002F0008A42174647D9B2FA82F242B1C2F12000CF
:1003000024FA00F09140974040EA010C94404FEAF3
:100310001748230CBCFBF8F61FFA87FE08FB16C132
:1003200043EA014306FB0EF1994209D9FB1806F195
:10033000FF3080F01981994240F21681023E3B4421
:100340005B1AA4B2B3FBF8F008FB103344EA034491
:1003500000FB0EFEA64509D93C1900F1FF3380F0E1
:100360000581A64540F2028102383C4440EA06403D
:10037000A4EB0E0400261DB1D4400023C5E90043C0
:100380003146BDE8F08702B9FFDEB2FA82F2002AF8
:1003900050D1CB1B4FEA174E1FFA87F80126B3FB4B
:1003A000FEFC210C0EFB1C3341EA034108FB0CF35D
:1003B0008B4207D979180CF1FF3002D28B4200F240
:1003C000E9808446C91AA3B2B1FBFEF00EFB1011FE
:1003D00043EA014408FB00F8A04507D93C1900F1A5
:1003E000FF3302D2A04500F2D9801846A4EB0804DE
:1003F00040EA0C40BFE78B4209D9002D00F0B180E4
:100400000026C5E9000130463146BDE8F087B3FA61
:1004100083F6002E4AD18B4202D3824200F2B8808A
:10042000841A61EB030101208C46002DA8D0C5E998
:10043000004CA5E7C2F1200320FA03F6974001FA29
:1004400002F04FEA174ED9403043030CB1FBFEF6E1
:100450001FFA87F80EFB161143EA014306FB08F169
:10046000994204FA02F409D9FB1806F1FF3C80F026
:100470008D80994240F28A80023E3B445B1A81B2F1
:10048000B3FBFEF00EFB103341EA034100FB08F31F
:100490008B4207D9791800F1FF3C73D28B4271D996
:1004A00002383944CB1A40EA064678E7C6F1200CF8
:1004B00003FA06F422FA0CF31C4320FA0CF701FAB3
:1004C00006F34FEA144E21FA0CF11F433B0CB1FB2B
:1004D000FEF91FFA84F80EFB191143EA014109FBEA
:1004E00008FA8A4502FA06F200FA06F308D96118FA
:1004F00009F1FF3048D28A4546D9A9F102092144C1
:10050000A1EB0A01BFB2B1FBFEF00EFB101147EAEE
:10051000014700FB08F8B84507D9E71900F1FF319A
:100520002ED2B8452CD90238274440EA0940A7EB1F
:100530000807A0FB02894F45C64649461AD317D083
:100540005DB1B3EB0E0267EB010707FA0CFCF2405A
:100550004CEA0202F740C5E9002700263146BDE813
:10056000F0872E4628460BE70646E9E61846FDE6E4
:100570004345E5D2B8EB020E69EB04010138DFE731
:100580000846D2E760468DE78146B9E7664675E7DB
:1005900030464AE7ACF1020C394413E702383C44D8
:1005A00024E700BF704700BF024801224FF480419A
:1005B00001F0C6BD00080240024800224FF480410D
:1005C00001F0BEBD00080240024801224FF4004184
:1005D00001F0B6BD00080240024800224FF400417D
:1005E00001F0AEBD000802400FB404B0704700BF78
:1005F00010B53F493F48002205F03EFE044600B9D1
:1006000010BD3D48013CFFF7EFFF122C6AD8DFE830
:1006100004F00F14191E23282D32373C41464B504D
:10062000555A5F640A003548FFF7DEFF012010BD10
:100630003348FFF7D9FF012010BD3248FFF7D4FF40
:10064000012010BD3048FFF7CFFF012010BD2F481B
:10065000FFF7CAFF012010BD2D48FFF7C5FF01209D
:1006600010BD2C48FFF7C0FF012010BD2A48FFF73E
:10067000BBFF012010BD2948FFF7B6FF012010BDC8
:100680002748FFF7B1FF012010BD2648FFF7ACFF58
:10069000012010BD2448FFF7A7FF012010BD23480B
:1006A000FFF7A2FF012010BD2148FFF79DFF0120A9
:1006B00010BD2048FFF798FF012010BD1E48FFF72E
:1006C00093FF012010BD1D48FFF78EFF012010BDD4
:1006D0001B48FFF789FF012010BD1A48FFF784FF70
:1006E000012010BD1848FFF77FFF012010BD00BF9B
:1006F000A0040020D4060020DC860008B089000891
:10070000E88600082087000834870008548700081E
:100710006C87000884870008A4870008E087000829
:100720000888000830880008588800087C8800087D
:1007300098880008B8880008E08800082489000824
:100740006489000890890008CC8900082DE9F04FE1
:10075000ADF24C5D01460122C6A805F0CDFD002892
:1007600040F0E881804601F0A9FACDE90088DFF881
:10077000E0A3C6AA4FF4027144A806F049F8002885
:1007800000F05D819DF8114100999DF81231A4F1AE
:1007900061020131052A009100F28281203CE4B21D
:1007A000373CA3F16101E4B205294FEA041200F2DB
:1007B0008381203BDBB2A3F13704E4B29DF813C17F
:1007C0009DF8140104F00F04ACF161031443052BF0
:1007D000E4B200F28A81ACF1200C5FFA8CFCACF13F
:1007E000370C5FFA8CFCA0F16103052B00F27781D6
:1007F0002038C0B23738C0B29DF815719DF8162167
:10080000A7F16103052B00F26481203FFFB2373F5F
:10081000FFB2A2F16103052B00F25581203AD2B25A
:10082000373AD2B29DF817B19DF81831ABF161019A
:10083000052900F22C81ABF1200B5FFA8BFBABF1A9
:10084000370B5FFA8BFBA3F16105052D4FEA0B1106
:1008500000F20A81203BDBB2A3F1370B5FFA8BFB7E
:100860000BF00F0B4BEA010B4FFA8BFB002C00F047
:100870000B8104AB03EB040E1D4644AE17E0203998
:10088000C9B23739A3F16109C9B2B9F1050F4FEA0D
:1008900001111ED8203BDBB2373BDBB203F00F0364
:1008A0000B4305F8013BAE4506F1020616D0717AFE
:1008B000B37AA1F16109B9F1050FE0D93929E0D87E
:1008C0003039A3F16109C9B2B9F1050F4FEA01113D
:1008D000E0D9392BE0D8303BDBB2DFE70DF219135A
:1008E00003EB44031E785D78A6F16103052B00F24B
:1008F000B580203EF6B2373EF6B2A5F16103052B76
:1009000000F2A680203DEDB2373DEDB2BBF1050F00
:1009100000F28F8001A353F82BF000BF6909000893
:1009200073070008330A0008330A00085909000851
:10093000350900085CB104A90C44182011F8013BEA
:1009400083408C4248EA0308A0F10800F6D14146F2
:100950007B4806F04FF80CE79DF810209DF8113009
:1009600043EA0223019304E700F00F0002F00F02B4
:1009700040EA0C1C42EA07175FFA8CFC019A7148A6
:10098000FFB247EA0C23029343EA02431946224688
:10099000039306F02FF8002C00F0C7800DF110092A
:1009A00009EB040B4F4617F8011B504606F022F8DE
:1009B0005F45F8D1029A130A53FA82F7274419F8CF
:1009C000013BD9451F44FAD105F00F0545EA06164B
:1009D0007F42F6B2FFB2B7427FF4CBAEA30740F03E
:1009E0008D80002C3FF4C5AE013C05AB24F0030420
:1009F0001C44039B04ADA3EB050B02E0AC423FF4A7
:100A0000B8AEAB7868782978EA781B0443EA00230B
:100A10000B4343EA02620BEB05010023022004357D
:100A200001F0AAF80028E9D003200DF24C5DBDE8E2
:100A3000F08F009944485FFA8BF205F0DBFFC6A8FF
:100A400005F056FE4FF0FF300DF24C5DBDE8F08F23
:100A5000392D3FF659AF303DEDB257E7392E3FF60D
:100A60004AAF303EF6B248E7392B3FF6F5AEA3F178
:100A7000300B5FFA8BFB0BF00F0B4BEA010B4FFABD
:100A80008BFB002C7FF4F5AE0DF219132AE7BBF1B6
:100A9000390F3FF6D4AEABF1300B5FFA8BFBD2E6E9
:100AA000392C3FF67DAE303CA3F16101E4B205295B
:100AB0004FEA04127FF67DAE392B3FF67CAEA3F1F0
:100AC0003004E4B27AE6392A3FF6AAAE303AD2B21E
:100AD000A8E6392F3FF69BAE303FFFB299E63928A2
:100AE0003FF688AE3038C0B286E6BCF1390F3FF62B
:100AF00076AEACF1300C5FFA8CFC74E6002C3FF45F
:100B000038AE039B04AD2C44A3EB050B02E0A542D9
:100B10003FF42FAE0BEB0501002315F8012B02204B
:100B200001F02AF80028F2D07EE7029AD3B203EB54
:100B3000122749E7054805F0E3FF4FF0FF3083E750
:100B4000108A0008FC890008248A0008D48900085B
:100B5000088A000800B583B00022124B0192196B7D
:100B600041F4800119631B6B03F480031146019368
:100B70003B20019B00F07CFD3B2000F0B1FD0022FA
:100B80001146452000F074FD452000F0A9FD00222B
:100B90001146462000F06CFD462003B05DF804EBE2
:100BA00000F09EBD0038024010B500248EB0CDE9A3
:100BB0000844CDE90A44334B01940C941A6B324833
:100BC00042F004021A631A6B02F004020192019AC5
:100BD00002941A6B42F020021A631A6B02F0200290
:100BE0000292029A03941A6B42F080021A631A6B03
:100BF00002F080020392039A04941A6B42F00102FD
:100C00001A631A6B02F001020492049A05941A6B9B
:100C100042F002021A631A6B02F002020592059A70
:100C200006941A6B42F008021A631A6B02F008026B
:100C30000692069A07941A6B42F040021A631B6BE5
:100C400003F04003079322464FF44041079B01F015
:100C500077FA4FF440420123CDE9082308A9002286
:100C600000230948CDE90A2301F03CF940F20512BE
:100C7000002306480A9408A9CDE9082301F032F9B7
:100C80000EB010BD003802400008024000000240D3
:100C900070B50024A6B021463C2216A8CDE90A442E
:100CA000CDE90C44CDE90244CDE90444069405F0B5
:100CB00099FE304A0094116C2F4B41F08051116421
:100CC000126C02F080520092009A01941A6842F469
:100CD00040421A601B6803F44043019301244FF41F
:100CE000803502224FF48003CDE90845CDE90E237B
:100CF000019802210624B4250222072308A8CDE981
:100D00001045CDE91223149101F0B4FE08B172B67A
:100D1000FEE701F019FA08B172B6FEE70F240225CA
:100D2000CDE902454FF4805302A8052100244FF479
:100D3000A0550693CDE9044501F070FC034608B1C7
:100D400072B6FEE74FF4C47404264FF440314FF0FE
:100D5000006216940825C02416A8CDE91A452493EC
:100D60001D962091239201F017FD08B172B6FEE79F
:100D700026B070BD003802400070004030B5ADF5BF
:100D8000237D00F01BFCFFF783FFFFF70DFFFFF74C
:100D9000E1FE00F0E7F800F0ABF903F0F3FF00F03C
:100DA00011FB00F02BFBFFF723FCFFF705FCFFF71F
:100DB00013FC5A4916A8012205F09EFA18B1012029
:100DC0000DF5237D30BD16AA402106A805F020FDB3
:100DD00053496A4606A805F0BBFE16AA402106A89C
:100DE00005F016FD4F4901AA06A805F0B1FE009ACC
:100DF0004D4902A805F08CFE019B02A8002B6AD089
:100E0000FFF7FEF9494A0346106802AAD05002A82B
:100E1000FFF7F6F9464A02A903461068C8500B448A
:100E200012791A7116A805F063FC424A424B1278F7
:100E300000981B788242D1B2DBB206D1FF2904D0E0
:100E4000019A934201D1FF2B4FD1FFF7ADFB00F088
:100E500035FF3A483A4A3B4B3B490024046014258D
:100E60000424C0E90245042515600224142204610B
:100E70001A6000F09BFF0546002834D1FFF79CFB69
:100E8000FFF7A2FB02A8FFF761FC009A2949D317DC
:100E9000284600F071FE019A2749D317284600F032
:100EA0006BFE00F01FFFFFF797FBFFF785FBFFF7D7
:100EB00093FB00F0C1FB72B6244B25491B68254CFF
:100EC000254A0B602360136883F3088800F03CFB1D
:100ED00023689847FEE7FFF793F9204A0346106816
:100EE00002AAD05093E720466AE7FFF765FBFFF7B9
:100EF00073FB00F0A1FB00F09FFB72B6134B14498B
:100F00001B68144C144A0B602360136883F3088831
:100F100000F01AFB23689847DCE700BF708A0008DE
:100F2000808A00088C8A0008948A00089C8A00083D
:100F3000A48A0008FBFF1F08FCFF1F089800002080
:100F4000AC000020B0000020B40000200400010824
:100F5000F8000020FC01002000000108A08A000821
:100F600072B6FEE70C480D4B10B503600423012454
:100F700016214FF4407243600023C0E90412C0E917
:100F800006338460C360036201F01CF900B910BD30
:100F9000BDE81040FFF7E4BF60020020001000A091
:100FA0002DE9F04302684B4B8BB000249A42CDE907
:100FB0000444CDE90644089402D00BB0BDE8F083A8
:100FC000454B464E9A6942F002029A619A6922F0B4
:100FD00002029A6100949A6B42F002029A639A6B41
:100FE00002F002020092009A01941A6B42F0200271
:100FF0001A631A6B02F020020192019A02941A6B92
:1010000042F001021A631A6B02F001020292029A84
:1010100003941A6B42F002021A631B6B03F0020383
:101020000393C02202234FF000084FF00309CDE9DB
:1010300004230399092304A90546294808930A278C
:10104000CDE9068900F04EFF4FF440720223244898
:10105000089704A9CDE90423CDE9068900F042FFF1
:10106000802202231F48089704A9CDE90423CDE973
:10107000068900F037FF402202231B48089704A985
:10108000CDE90423CDE9068900F02CFF1749B460AF
:101090004FF0C0624FF480633046C6E90544C6E9AC
:1010A0000744C6E90012F4607462336100F040FB4B
:1010B00060B900221146EE635B20B56300F0D8FAF8
:1010C0005B2000F00DFB0BB0BDE8F083FFF748FF9D
:1010D000EFE700BF001000A000380240000200202F
:1010E000001402400000024000040240B8640240C4
:1010F000054B06490022C3E90012C3E90222C3E9F5
:1011000004229A61704700BF6C030020002C01404C
:101110002DE9F0430268534B8BB000249A42CDE98D
:101120000444CDE90644089402D00BB0BDE8F08336
:1011300003F5863301945A6C4B4E42F400625A64B4
:101140005A6C02F400620192019A02941A6B42F006
:1011500004021A631A6B02F004020292029A0394C8
:101160001A6B42F008021A631B6B03F00803039327
:101170004FF4F85202230C27039908974FF0000808
:101180004FF0030904A905463848CDE90423CDE909
:10119000068900F0A7FE042202233548089704A917
:1011A000CDE90423CDE9068900F09CFE3149B46005
:1011B0004FF000624FF480634FF480504FF4804C46
:1011C0002027F460346231600424032172603361AB
:1011D0004FF400024FF4001370613046C6E906C7B1
:1011E000C6E90941C6E90B2300F0A2FA002832D172
:1011F000214C224B23604FF0006140224FF480606D
:101200004FF480536160A2604FF48041202220613E
:10121000636104200323A161E2614FF400014FF4F4
:1012200000126062A3622E6400232046C4E90B1200
:10123000B563E360236200F07BFA78B900221146BF
:10124000EC633120A56300F013FA312000F048FA76
:101250000BB0BDE8F083FFF783FEC9E7FFF780FE20
:10126000ECE700BF002C0140AC0200200008024067
:10127000000C0240586402400C030020A0640240AD
:1012800082B00C4B002100915A6C42F480425A64A7
:101290005A6C02F480420092009A01911A6C42F05A
:1012A00080521A641B6C03F080530193019B02B0BF
:1012B000704700BF00380240FEE700BFFEE700BFF6
:1012C000FEE700BFFEE700BFFEE700BF704700BFBC
:1012D000704700BF704700BF00F08AB9014802F0B4
:1012E0001DB800BF6C030020014800F00BBB00BF1D
:1012F000AC020020014800F005BB00BF0C03002039
:10130000014800F0FFBA00BF00020020014800F0D1
:10131000E7BF00BF6002002070B5161E07DD0C4657
:101320008D19AFF3008004F8010BA542F9D13046C6
:1013300070BD00BF70B5161E07DD0C468D1914F880
:10134000010BAFF30080AC42F9D1304670BD00BF55
:101350004FF0FF30704700BF4FF400534B60002048
:10136000704700BF01207047002070470C490D4AAC
:101370000B6810B50C4C121B2BB11844904207D8C7
:101380000860184610BD094B0B6018449042F7D90D
:1013900005F0FEFA0C2303604FF0FF33184610BD32
:1013A000B8000020000005200006000018090020F9
:1013B000034AD2F8883043F47003C2F8883070478B
:1013C00000ED00E00B4808B50B4B03604FF4E13132
:1013D00000230C22C0E90233C0E9063341604261B8
:1013E000036102F0A5FB00B908BDBDE80840FFF7A6
:1013F000B7BD00BFF0030020004800400B4808B50F
:101400000B4B03604FF4E13100230C22C0E902339F
:10141000C0E9063341604261036102F089FB00B913
:1014200008BDBDE80840FFF79BBD00BF34040020A5
:101430000014014030B5026828498BB000238A426D
:10144000CDE90433CDE90633089304D024498A4218
:1014500027D00BB030BD234A0093116C224841F4D1
:1014600080211164116C01F4802100910099019395
:10147000136B43F002031363136B03F00203019336
:10148000019A04A94FF4406402250723089300221F
:101490000323CDE90445CDE9062300F023FD0BB07D
:1014A00030BD104A0293516C104841F02001516444
:1014B000516C01F02001029102990393136B43F0E8
:1014C00040031363136B03F040030393039A04A9CF
:1014D0004FF4844402250823D8E700BF00480040A9
:1014E000001401400038024000040240001802408D
:1014F000DFF834D00D480E490E4A002302E0D458DC
:10150000C4500433C4188C42F9D30B4A0B4C00234B
:1015100001E013600432A242FBD3FFF749FF05F05C
:101520003DFAFFF72BFC704700000520000000206B
:1015300074000020348D0008780000201409002079
:10154000FEE70000704700BF10B5094B4FF0FF32B7
:1015500000241A621C625A625C621A611C615A6140
:101560005C619A619C61FFF7EDFF204610BD00BFF2
:101570000038024038B50E4A0E4B12781B680546FB
:101580004FF47A70B0FBF2F0B3FBF0F000F0B6F875
:1015900008B90F2D01D9012038BD0446024629465D
:1015A0004FF0FF3000F064F8034B20461D6038BD5B
:1015B00004000020000000200800002008B50B4BAC
:1015C0001A6842F400721A601A6842F480621A6063
:1015D0001A6842F480721A60032000F035F8002087
:1015E000FFF7C8FFFFF74CFE002008BD003C02409B
:1015F000034A044B11681B780B441360704700BF0B
:101600007804002004000020014B1868704700BFD8
:101610007804002038B50446FFF7F6FF631C054642
:1016200002D0044B1B781C44FFF7EEFF431BA34280
:10163000FAD338BD04000020024A136823F00203E5
:101640001360704710E000E00849CA6810B4000257
:101650004FF6FF04224000F4E063134343F0BF63FE
:1016600043F400335DF8044BCB60704700ED00E0BD
:10167000194BDB68C3F3022330B4C3F10705042D13
:1016800003F1040428BF0425062C19D9033B4FF0AD
:10169000FF349C4022EA04024FF0FF34AC4021EAC0
:1016A00004019940002841EA02010CDB00F160408E
:1016B00000F561400901C9B280F8001330BC7047E1
:1016C00000221346E8E7054B00F00F000901034430
:1016D000C9B2197630BC704700ED00E0FCEC00E0C8
:1016E000002807DB00F01F01034A400901238B405B
:1016F00042F82030704700BF00E100E00138B0F14F
:10170000807F0ED2084B10B4084C5860F02084F84B
:1017100023000022072110469A605DF8044B1960EF
:1017200070470120704700BF10E000E000ED00E0CE
:10173000F8B50446FFF768FF002C54D02368022256
:10174000002184F8341084F835201A6822F0010250
:1017500005461A6005E0FFF757FF431B052B3BD8F2
:1017600023681A68D107F6D4D4E90126D4E90350D6
:10177000324361691F682A43D4E9066502430A437C
:10178000206A354932432A430243606A39400428BB
:1017900041EA020129D019605A6922F00702104378
:1017A000DAB22E495861103AA1FB020109092C480E
:1017B00023F47F73415CE16523F003035F2A88BF54
:1017C00004333F228A4001250021A3659A606165A8
:1017D00084F835500846F8BD03232022626584F85A
:1017E00035301846F8BD0120F8BDD4E90B50284328
:1017F0000143A26A1960586920F00700104340F0C5
:101800000400002DCCD07EB1B6F5005F12D0022AC4
:1018100003D9032AC4D1EA01C2D50123402262655B
:1018200084F835301846F8BD012A11D032F0020292
:10183000B6D1F0E7032AB3D801A151F822F000BFD6
:101840001B180008171800081B180008511800087A
:10185000B5F1C07FA4D1E0E73F8010F0ABAAAAAAFF
:10186000C48A0008F0B490F83440866D012C34D05E
:1018700090F835400125AC4280F8345005D0002363
:1018800080F83430F0BC022070470468022700253D
:1018900080F8357045652568876825F48025402FD8
:1018A000256063600ABFA260A160E160C16D18BFDE
:1018B000E2603F238B40026CB360236843F0160361
:1018C00023601AB1236843F008032360236843F0C0
:1018D000010323600020F0BC70470220F0BC704779
:1018E00090F83530022B03D08023436501207047E8
:1018F0000268052380F83530136823F00103136074
:10190000002070472DE9F04182B00023866D0193DD
:10191000C36D3468714908229A4022420D6880469E
:1019200004D001680F68780700F18A8001229A408C
:10193000224204D0D8F800104969090678D404225C
:101940009A40224204D0D8F8001009688F0767D463
:1019500010229A40224204D0D8F800100F683807AD
:1019600049D420229A40224217D0D8F800100C689F
:10197000E00612D5B26098F83520052A73D00B68BE
:1019800013F4802F0B6800F09080190340F19B80C6
:10199000D8F83C300BB140469847D8F854303BB3A8
:1019A000D8F85430DA071BD5D8F800204C49052365
:1019B00088F835301368A1FB051523F00103136087
:1019C000AD0A02E01368DB0704D5019B0133AB428B
:1019D0000193F7D90022012388F8342088F83530A4
:1019E000D8F84C3023B1404602B0BDE8F04118476A
:1019F00002B0BDE8F081B2600A6812F4802F0A6874
:101A00002AD1D70503D40A6822F008020A60D8F860
:101A10004020002AA5D040469047D8F85C30A0E787
:101A2000B260D8F8542042F00402C8F854208FE77E
:101A3000B260D8F8542042F00202C8F854207EE781
:101A40000F6827F004070F60B260D8F8542042F006
:101A50000102C8F8542069E71203D8D5D8F8482005
:101A6000002AD8D17DE70A68D8F8404022F0160253
:101A70000A604A6922F080024A6154B30A6822F07F
:101A800008020A603F22D8F8501002FA03F300243B
:101A90000122B36088F8344088F835200029A7D0A7
:101AA000404602B0BDE8F041084713F480737FF46C
:101AB0006FAF0A68012422F010020A6088F83430FF
:101AC00088F8354064E7D8F84430002B7FF463AFE2
:101AD00063E7D8F84820002AD0D1D3E700000020DF
:101AE000B5814E1B406D7047214BDA68D00605D595
:101AF0002049CA6910200243CA61D8601C4BDA68C9
:101B0000910606D51B49CA69202042F00802CA6125
:101B1000D860174BDA68520606D51649CA694020C4
:101B200042F00402CA61D860114BDA68100606D58B
:101B30001049CA69802042F00202CA61D8600C4B89
:101B4000DA68D10507D50B49CA694FF4807042F0B5
:101B50000102CA61D860064BDA68920706D50549CA
:101B6000CA69022042F02002CA61D860704700BFF3
:101B7000003C02407C0400202DE9F04F4D4C257EB6
:101B800083B0012D019364D000231646012207463D
:101B900088462276E361FFF737FDDFF81CA1814616
:101BA0004CF2503B05E0FFF72FFDA0EB09055D452A
:101BB00049D8DAF80C20D003F5D4DAF80C203E4BE3
:101BC000D10744BF0122CAF80C20DA6812F4F97F69
:101BD00053D1002F41D01A6922F440721A61012FAB
:101BE0001A694ED0022F5BD042F440721A611A6912
:101BF00042F001021A61C8F80060BFF36F8F019BC9
:101C0000C8F804300023E361FFF7FEFC2A4E0546C6
:101C10004CF2503704E0FFF7F7FC431BBB422AD8D5
:101C2000F368DA03F7D4F368DB0744BF0123F360FA
:101C3000214BD86810F4F9702ED11F4A136923F094
:101C40000103136100E003200023237603B0BDE805
:101C5000F08F022003B0BDE8F08F1A6922F44072C1
:101C60001A611A691A611969F6B241F00101196124
:101C700088F80060C6E70320DFE7FFF735FF0120A3
:101C8000E2E742F480721A611969B6B241F00101CB
:101C90001961A8F80060B5E7FFF726FF0120CCE73F
:101CA00042F400721A611A6942F001021A61C8F81E
:101CB0000060A7E77C040020003C0240064B1A6944
:101CC000002A01DB002070470449054A59605A6028
:101CD0001869C00F704700BF003C024023016745F0
:101CE000AB89EFCD034A136943F000431361002031
:101CF000704700BF003C0240144B70B50022044600
:101D0000DA61FFF781FC124E0546631C0FD1104AC1
:101D1000D368D803FCD40E4BDA68D20744BF012243
:101D2000DA600B4BD86810F4F9700BD170BDF36812
:101D3000D903F0D524B1FFF767FC401BA042E4D9DA
:101D4000032070BDFFF7D0FE012070BD7C04002091
:101D5000003C0240144B1A6891050FD51A6822F412
:101D600000721A601A6842F400621A601A6822F45B
:101D700000621A601A6842F400721A600A4B1A680C
:101D800052050FD51A6822F480621A601A6842F46C
:101D900080521A601A6822F480521A601A6842F45B
:101DA00080621A60704700BF003C02402DE9F84392
:101DB0004A4E337E012B00F08180012381464CF294
:101DC00050300F463376FFF797FF0546002870D155
:101DD0004FF0FF333B60D9F80030012B41D0D9E9F7
:101DE00002834344984562D23D4C31E0022B0CBF44
:101DF0004FF400734FF44073226922F44072226161
:101E0000226913432361226922F0F80222612369C7
:101E1000B8F10B0F8CBF08F10401414643EAC1033E
:101E200043F002032361236943F4803323614CF2BE
:101E30005030FFF761FF236923F0FA032361002884
:101E400040D1D9E9022308F10108134443452ED9B2
:101E500099F81030002BCFD0012BC7D14FF48073ED
:101E6000CAE71F4AD9F804001169D9F8103021F4E3
:101E700040711161032811692AD001280CBF41F07B
:101E8000040141F400411161154C1B0222699BB20F
:101E9000134343F4803323614CF25030FFF72CFF9F
:101EA000236923F4004323F0040305462361FFF76D
:101EB00051FF002333762846BDE8F88302252846E3
:101EC000BDE8F883C7F800800546FFF743FFF0E759
:101ED00041F4004141F004011161D5E77C04002088
:101EE000003C02402DE9F04F8B46DFF840A2096824
:101EF000DFF83CC285B00023D94603E00133102B44
:101F000000F0918001229A4002EA010B8A43F5D148
:101F1000D9F8045005F00302541E012C4FEA430780
:101F200040F28480032A40F0C180BA40D443009438
:101F30000768009C3C402243EE000260DED5002290
:101F40000392DAF8442042F48042CAF84420DAF8D6
:101F5000442023F0030404F1804402F4804204F599
:101F60009C34039203F00306039AA768B6000F227D
:101F7000B24027EA0202644FB84228D007F58067D2
:101F8000B84200F09880614FB84200F09980604FED
:101F9000B84200F09A805F4FB84200F09B805E4FDD
:101FA000B84200F0A1805D4FB84200F0A2805C4FC3
:101FB000B84200F094805B4FB84200F09F805A4FC7
:101FC000B8420CBF09270A2707FA06F63243A26077
:101FD000DCF800206FEA0B06EC0354BF32404BEAFA
:101FE0000202CCF80020DCF80440AA0354BF3440BD
:101FF0004BEA0404CCF80440DCF80840EF0254BF7C
:1020000034404BEA0404CCF80840DCF80C20AC0265
:1020100003F1010354BF32404BEA0202102BCCF80B
:102020000C207FF46FAF05B0BDE8F08F8668032405
:10203000BC4026EA040ED9F80C60BE4046EA0E0603
:102040008660D0F804E0C5F300162EEA0B0E9E4021
:1020500046EA0E06E44300944660C66806EA040EAB
:10206000D9F80860BE4046EA0E06022AC66001D0D2
:10207000BA405DE74FEAD30800EB880803F0070E8B
:10208000D8F8204001944FEA8E0E0F2404FA0EF681
:10209000019C24EA0606D9F81040019604FA0EF6CF
:1020A000019C2643BA40C8F8206041E70324BC40A5
:1020B000E4430094D1E7012707FA06F6324386E7A6
:1020C000022707FA06F6324381E7032707FA06F6E6
:1020D00032437CE7042707FA06F6324377E70727FF
:1020E00007FA06F6324372E7052707FA06F6324387
:1020F0006DE7062707FA06F6324368E7082707FA6E
:1021000006F6324363E700BF0000024000080240C9
:10211000000C02400010024000140240001802406F
:10212000001C02400020024000240240003802400F
:10213000003C01400369194214BF01200020704790
:1021400002B909048161704730B583B0194B1A494F
:102150001A4D002201921A6C42F080521A641B6CD4
:1021600003F0805301930123019A0B60FFF74CFAAF
:10217000044605E0FFF748FA001BB0F57A7F16D851
:102180006B68DA03F6D50E4B0C4D01221A60FFF78F
:102190003BFA044605E0FFF737FA001BB0F57A7FFB
:1021A00005D86B689B03F6D5002003B030BD032033
:1021B00003B030BD0038024040000E4200700040C5
:1021C00044000E42F8B50446FFF71EFA002C4ED02C
:1021D00094F84130064603F0FF02002B3ED0A56C78
:1021E0002368A1681A68013922F4F85242EA0122F0
:1021F0001A6001E06A1C29D1996811F02001F9D117
:10220000D4E90756E26818682A436568324320F02B
:102210007F4042EA056220F0D00002431A60D4E910
:1022200005275E68256917483A43304042EA05426F
:1022300002435A601A6801252A431A6008466164FD
:1022400084F84150002384F84030F8BDFFF7DCF9F2
:10225000801BA8420DD865B12368CDE784F84020E3
:10226000204641F28835FEF79BFEA564B8E70120C1
:10227000F8BD042384F84130636C43F001036364C8
:102280000120DFE7FEF8E0FF704700BF08B5806B74
:1022900000238363C36290F84130082B0BD103689D
:1022A0000222DA601A6842F400321A601A6842F0B8
:1022B00002021A6008BD012380F84130FFF7E4FFF5
:1022C00008BD00BF704700BF704700BF704700BF28
:1022D000704700BF704700BF704700BF704700BF26
:1022E00038B503689A681968550704460ED548033F
:1022F0000CD594F84120122A76D094F84120222A55
:1023000000F0BF802046FFF7E5FF38BD950726D5D2
:10231000880324D50222DA601A6822F4E0221A60C7
:1023200094F84120122A7CD094F84120222A00F00F
:10233000C78094F84120022A00F00C8194F84120D3
:10234000082AE2D15A69012122F040625A6184F8D8
:102350004110636C204643BBFFF7B4FF38BD15073F
:1023600026D4D50736D5C80334D50125DD601A68D3
:1023700022F470221A60626C42F0020262641A68EF
:10238000520740F197801A68E06B884922F00402F6
:102390001A600165FFF7A4FA0028B6D0636C43F019
:1023A00004036364204684F84150FFF76DFF38BD95
:1023B0000803D6D50822DA601A68520206D51A68D0
:1023C000012122F410221A6084F841102046FFF700
:1023D00083FF38BDD00698D5CA0296D51022204674
:1023E000DA60FFF77BFF38BD9A68500748BF184690
:1023F0000FD487E7626A127883F82020E16A2068A8
:10240000626A0139E162816801324D0762627FF5DB
:1024100079AFE26A002AEDD1036823F480230360D8
:1024200070E71A68510709D51A68E16B22F00402B7
:1024300009681A600A6822F001020A6094F84120D3
:10244000920717D50822002184F8401084F8412013
:102450001A6822F4F8121A601A68550700F1818090
:102460000222DA601A6842F400321A601A6842F0F6
:1024700002021A60012384F841302046FFF728FF4A
:1024800038BD9A68520748BF18460FD43AE7226B06
:1024900093F820101170A16B2068226B0139A163A1
:1024A00081680132490722637FF52CAFA26B002AB5
:1024B000EDD1B1E784F841502046FFF7E5FE38BD85
:1024C0001A6850073BD49A6812F47C5F18BF18460C
:1024D0000FD112E0226B93F820101170A16B2068CD
:1024E000226B0139A1638168013211F47C5F2263A0
:1024F00002D0A26B002AEDD1034694F84120910747
:1025000016D50822002184F8401084F841201A686A
:1025100022F4F8121A601A68520735D40222DA60DF
:102520001A6842F400321A601A6842F002021A6015
:10253000012384F841302046FFF7C8FE38BD1A68F1
:10254000E16B22F0040209681A600A6822F00102B5
:102550000A60D2E7012384F841302046FFF7B4FE39
:1025600038BD1A68E06B114922F004021A60016557
:10257000FFF7B6F900283FF47DAF012384F841301E
:102580002046FFF79FFE75E71A68E06B074922F0C7
:1025900004021A600165FFF7A3F90028C8D00123DF
:1025A00084F841302046FFF78DFEC1E78D220008F8
:1025B000174908B58B6803F00C03042B1BD0082BBC
:1025C00017D14A684B6813F4800302F03F0214D11C
:1025D00049681048C1F38811A1FB0001FDF768FEAE
:1025E0000B4B5B68C3F3014301335B00B0FBF3F0BB
:1025F00008BD084808BD084808BD4B680648C3F335
:102600008813A3FB00010023FDF752FEE8E700BF9B
:10261000003802400024F400001BB700002800F03E
:102620008780484A136803F00F038B422DE9F0417D
:102630000D46044609D2CBB21370136803F00F03A2
:102640008B4202D00120BDE8F0812368980714D5A1
:10265000590704D53C498A6842F4E0528A601A0757
:1026600004D539498A6842F460428A603649A068D4
:102670008A6822F0F00202438A60DF0721D562688F
:10268000012A57D0931E012B2F4B1B684DD9990758
:10269000D8D52D4EB36823F003031343B360FEF780
:1026A000B3FF41F28838074604E0FEF7ADFFC01BD8
:1026B000404544D8B368626803F00C03B3EB820F63
:1026C000F3D1204A136803F00F03AB4206D9EBB2F3
:1026D0001370136803F00F03AB42B3D123685A079A
:1026E00006D51949E0688A6822F4E05202438A60FC
:1026F0001B0707D5144A2169936823F4604343EA12
:10270000C1039360FFF754FF0F4A104C92681049C1
:10271000C2F303120346A25C0E48D34000680B606C
:10272000FEF728FF0020BDE8F0819801B1D489E7C9
:1027300001207047044B1B689E03AAD482E7032044
:1027400081E700BF003C024000380240AC8A00082C
:102750000000002008000020044B054A9B68054942
:10276000C3F382230868D35CD84070470038024026
:10277000BC8A000800000020044B054A9B680549FC
:10278000C3F342330868D35CD84070470038024036
:10279000BC8A000800000020F0B50368190683B069
:1027A000044608D5AD49406BD1F88C2022F0006278
:1027B0000243C1F88C20DA0508D5A849A06BD1F8EE
:1027C0008C2022F080520243C1F88C2013F0430F7A
:1027D00040F09E8013F00C0F13D11A0603D5626BE4
:1027E000B2F1006F0DD0980600F1E58013F01003F0
:1027F00000F0DE809A4B94F830201A60002003B07D
:10280000F0BD984B954E00221A60FEF7FDFE05467E
:1028100004E0FEF7F9FE431B022B76D833689F00D5
:10282000F7D4226850071AD5D6F88830D6F8881021
:10283000206901F0E04103F440330B43A16943EA0E
:10284000801343EA0163C6F88830D6F88C30616A99
:1028500023F4F853013943EA0123C6F88C301107F9
:1028600019D57E492569D1F88830D1F8880003F45C
:10287000403300F070600343E06943EA851343EAA4
:102880000073C1F88830D1F88C30A06A23F440334B
:102890000343C1F88C30130617D5636BB3F1006F97
:1028A00013D16E496269D1F88830D1F88850206917
:1028B00003F0706305F0E0452B43520843EA8013B0
:1028C000013A43EA0243C1F88830664B634E012265
:1028D0001A60FEF799FE054604E0FEF795FE401BE0
:1028E000022812D833689F00F7D523687BE7FEF7EC
:1028F0008BFE41F2883706462B6F9B0700F1A180C3
:10290000FEF782FE801BB842F6D9032003B0F0BD6B
:10291000554B524E00221A60FEF776FE054604E043
:10292000FEF772FE431B022BEFD833681B01F7D46E
:102930002368DF0706D5D4E90112120742EA8112A3
:10294000C6F884209D0715D54449E268D1F8840073
:102950006568120600F0E04042EA85120243C1F8C1
:102960008420D1F88C00226A20F01F00013A024333
:10297000C1F88C20580609D5201D0BC81B06374A04
:1029800043EA801343EA0173C2F88430364B334E76
:1029900001221A60FEF738FE054604E0FEF734FE19
:1029A000401B0228B1D833681901F7D5236811E715
:1029B000184603B0F0BD294B2C4D002201921A6C31
:1029C00042F080521A641B6C03F080530193019B08
:1029D0002B6843F480732B60FEF716FE064604E076
:1029E000FEF712FE801B02288FD82B68D905F7D579
:1029F0001A4DE36A2A6F12F4407211D103F4407247
:102A0000B2F5407F1FD015498A6822F4F8128A6017
:102A1000124A116FC3F30B030B4313672368E5E6F8
:102A200003F440719142EBD02B6F114A23F44073B1
:102A300001200021106011602B672B6FDA073FF532
:102A400056AFE36ADAE70548826823F0704122F462
:102A5000F81221F440710A438260D9E7003802403D
:102A6000E011474270004742680047420070004052
:102A7000400E4742002800F0AC812DE9F041036888
:102A8000DD0782B004462FD5AC498A6802F00C02FB
:102A9000042A00F0EC808A6802F00C02082A00F098
:102AA000E2806368B3F5803F00F0EB80B3F5A02FC0
:102AB00000F07F81A14D2A6822F480322A602A68C2
:102AC00022F480222A60002B40F0E080FEF79CFD7B
:102AD000064605E0FEF798FD801B642800F20081A1
:102AE0002B689B03F6D423689F0728D5934A9168E7
:102AF00011F00C0F00F09080916801F00C01082992
:102B000000F08680E368002B00F006818C4B8B4E32
:102B100001221A60FEF778FD054605E0FEF774FD18
:102B2000401B022800F2DC8033689807F6D5336832
:102B3000226923F0F80343EAC203336023681A07CB
:102B400052D458072FD57D4A136C13F080537ED092
:102B500000257C4E3368D90540F1B280A368012B73
:102B600000F0C280052B00F03681744E326F22F0E7
:102B700001023267326F22F004023267002B40F00C
:102B8000B880FEF741FD41F28838074605E0FEF7C0
:102B90003BFDC01B404500F2A380336F9807F6D47D
:102BA000002D40F01081A069D0B1644DAB6803F0F6
:102BB0000C03082B00F0CC80634B002202281A6023
:102BC00000F01381FEF720FD2C46054605E0FEF7D8
:102BD0001BFD401B022800F2838023689B01F6D472
:102BE000002002B0BDE8F081636903B3574B534E38
:102BF00001221A60FEF708FD054604E0FEF704FD19
:102C0000401B02286CD8736F9B07F7D5236898E7A1
:102C1000526856023FF576AF484A1268950743D589
:102C2000E268012A40D0012002B0BDE8F081474AA5
:102C3000424E1360FEF7E8FC054604E0FEF7E4FCB4
:102C4000401B02284CD8736F9F07F7D4DEE701932F
:102C5000136C43F080531364136C03F0805301939F
:102C6000019B012575E74A6850027FF51AAF334A88
:102C7000126891037FF538AF6268002A7FF434AFA1
:102C8000D1E72E4A136843F480331360FEF7BCFC8F
:102C90002A4E054604E0FEF7B7FC401B64281FD807
:102CA00033689A03F7D51EE7244920690A6822F0A1
:102CB000F80242EAC0020A601A077FF542AF93E7C2
:102CC000336843F480733360FEF79EFC0746336835
:102CD000DA053FF543AFFEF797FCC01B0228F6D993
:102CE000032002B0BDE8F081144A136F43F00103E2
:102CF0001367FEF789FC114F064641F2883804E05D
:102D0000FEF782FC801B4045EAD83B6F9B07F7D556
:102D1000002D3FF448AF56E0094A084E1360FEF715
:102D200073FC054604E0FEF76FFC401B0228D7D871
:102D300033689907F7D4236801E700BF00380240E1
:102D4000000047420070004060004742800E47424A
:102D500001283FF446AF6B68E26903F480019142B9
:102D60007FF461AF226A03F03F0191427FF45BAFD1
:102D7000616A47F6C0721A40B2EB811F7FF453AF0D
:102D8000A26A5208013A03F44031B1EB024F7FF4DA
:102D90004AAFE16A03F07062B2EB016F7FF443AFB8
:102DA000226B03F0E043B3EB027F14BF012000204D
:102DB00017E7264B1A6842F480221A601A6842F418
:102DC00080321A6062E7214A136C23F08053136447
:102DD000E9E6012070471D4B1A6F42F004021A67A2
:102DE0001A6F42F001021A6783E7FEF70DFC0646F0
:102DF00005E0FEF709FC801B02283FF671AF2B6847
:102E00009901F6D4D4E90732666AE06A216B13436C
:102E1000A26A43EA861343EA0063520843EA017355
:102E2000013A0B49094E43EA024301226B600A60F2
:102E3000FEF7EAFB044605E0FEF7E6FB001B02286E
:102E40003FF64EAF33689A01F6D5C9E60038024026
:102E500060004742836B1A68D36B43F48073D3637B
:102E6000704700BFF0B589B005460F46FEF7CCFBB2
:102E700000220023064608212868CDE9002300F03F
:102E80003DFF044610B1204609B0F0BD296D286809
:102E9000090401F0F7FB04460028F4D14FF0FF329B
:102EA0000823CDE9022330220223CDE9042302A91D
:102EB000002201232868CDE9062300F00BFF2868D3
:102EC00001F058FD044640B1DDE7426B910415D591
:102ED000FEF79AFB831B013324D02868426B12F063
:102EE0002A0F0BD1426B9302EFD500F0D9FE08AB4D
:102EF00003EB8403013443F8200CE9E7426B12072B
:102F000016D4426B930716D4446B14F020040CD1F2
:102F1000DDE9002140F23A5309BA12BA8363C7E9E6
:102F20000012B0E74FF00044ADE720248463AAE725
:102F300008248463A7E702248463A4E72DE9F0470B
:102F4000044686B0002900F0848090F834000128FF
:102F5000C7B26BD11D46E36D50194FF0000C98427B
:102F60001646C4F838C007D9A36B43F00073A363B7
:102F7000384606B0BDE8F0872368206CDFF8009182
:102F8000DFF800A1032284F83420C3F82CC0DA6BE8
:102F9000D0F8008042F49572DA63D8F80020C0F8C7
:102FA0003C9022F0C00E4FEA4529C0F850C00A46B6
:102FB000C0F808C003F18001C0F84CA04FEA9903A3
:102FC000C8F800E0FEF74EFC002834D12A4B2068F8
:102FD0001F60636CCDF80490012B4FF0FF324FF06F
:102FE00090034FF00201009202934FF000024FF065
:102FF00001030391694618BF76020492059300F01D
:1030000069FE012D30D9822320682363314600F008
:10301000B3FF38B32368194A9A63A36B012218439C
:103020000023A06384F834202363A1E702273846F5
:1030300006B0BDE8F08723681049DA6B22F4957278
:10304000DA639963A36B43F08043A36384F834701D
:103050008EE7836B012743F000638363384606B035
:10306000BDE8F087074683E7812320682363314664
:1030700000F0E2FECDE700BF8C852542FF05400051
:10308000F5310008393200082DE9F043044689B0D3
:1030900000297ED01D4690F83430012BDFB23CD1A0
:1030A0000E46C16D531900208B42A0633AD82368A5
:1030B000E16BD4F844E04FF0030C84F834C0D862DC
:1030C000D3F83CC04CF01A0CC3F83CC0BEF1010F61
:1030D00008654348C86318BF52024248C864012DBE
:1030E00060D94FF0A00C11461846C4F830C001F06A
:1030F00081F88046B8F1000F1CD023683A4A9A63E1
:10310000A06B40EA0800A06301220023384684F83F
:103110003420236309B0BDE8F0830227384609B0A4
:10312000BDE8F083A36B384643F00073A36309B096
:10313000BDE8F083E06B2D4BD0F800C022684FF063
:103140000109C3F80090DCF800304FF0400E23F086
:10315000C00343EA0E036D02C0F808E03146CCF824
:1031600000308032AB08FEF77DFB48B323681E4970
:10317000DA6B22F01A02DA639963A36B384643F0E4
:103180008043A36384F83490C4F8308009B0BDE86C
:10319000F083836B012743F000638363384609B0F3
:1031A000BDE8F0834FF0900C11461846C4F830C0CB
:1031B00000F082FF80460190B8F1000F9DD1B9E781
:1031C0004FF0FF3290232068039502A9CDE90588CE
:1031D000CDF81C9047460292049300F07BFD9DE7DA
:1031E000552E000839320008FF0540008C85254225
:1031F000704700BF38B5846B236B822B10D02368D7
:10320000DA6A40F23A5022F0080201250021DA621F
:10321000986384F834502046216301F0FDFD38BDE9
:10322000206801F087F80028E9D0A36B1843A06359
:103230002046FFF7DDFFE2E710B5846BFEF752FC96
:1032400002280AD0D4E90F235B6D526D012B05D003
:10325000012A03D02046FFF7CBFF10BD2068154B95
:103260008363C36B216D23F49D73C363A36B43F02E
:103270008043A363090401F0E5FC58B1A16B084346
:10328000A0630122002384F8342020462363FFF743
:10329000AFFFE2E70146206800F018FDC0F34320CD
:1032A00005380128EDD8206801F044F8A36B1843D5
:1032B000A063E6E7FF05400038B5846B216D206808
:1032C00040F23A538363090401F0BCFC054680B127
:1032D000A06B012228430023A06384F834202363D9
:1032E000A36B204613B901F08BFD38BDFFF780FFBB
:1032F00038BD0146206800F0E9FCC0F343200123FB
:103300000538984284F834302563E9D8206801F004
:1033100011F8A36B1843A063E2E700BF2DE9F04169
:1033200004460068256B436B1A0482B01DD52B0739
:1033300000F1B480436BDB056BD54FF4807383637E
:10334000C36B23F4414323F03A03C363C36A23F0FE
:103350000103C3622A0605D5AB0600F1EF80AF0773
:1033600000F0BD8002B0BDE8F081436BDF0523D5DE
:103370004FF480738363C36B23F4414323F03A0318
:10338000C363C36A2E0723F00103C362E2D515F0BD
:10339000220F40F0B28040F23A51816301220023B3
:1033A000A90784F834202046236300F0A18001F0AF
:1033B00033FD02B0BDE8F081436B5E042AD52907D6
:1033C00028D5666A002ECDD0276A07F1040807F1D8
:1033D000240500E0206818F8043C019318F8032C39
:1033E00043EA0223019318F8022C43EA02430193B3
:1033F00018F8012C01A943EA026308F104080193BB
:1034000000F052FCA845E5D12037203EC4E90876FB
:10341000A8E7436B436B13F03A0FA3D0436B9A07B3
:1034200003D5A36B43F00203A363436B1B0703D5D0
:10343000A36B43F00803A363436B9F0603D5A36B01
:1034400043F02003A363436BDE0603D5A36B43F075
:103450001003A36340F23A538363C36B23F49D7359
:10346000C36300F067FFA36B290740EA0300A06372
:1034700048D42A067FF576AF15F0300F52D115F0FB
:10348000030567D0206C384B0365FEF729FA002846
:103490003FF468AF206CFFF70FFF63E7E66A002E8A
:1034A0003FF460AFA76A07F1040807F1240500E0C4
:1034B000206800F0F5FB08F8040C020A030C000E6B
:1034C00008F8032C08F8023C08F8010C08F104087D
:1034D000A845EDD12037203EC4E90A7642E72268AC
:1034E000D36A012123F00803D362204684F8341004
:1034F00001F08CFC02B0BDE8F08100F01BFF50B978
:10350000206848E70122002384F834202046236302
:10351000FFF76EFE26E7A36B1843A0632046FFF774
:1035200067FEEDE7E06B114B0365FEF7D9F9002864
:103530003FF418AFE06BFFF7BFFE13E700F0FAFEB1
:1035400000283FF40CAFA36B1843A0632046FFF79D
:103550004FFE04E70123A563204684F83430256339
:1035600001F04EFCFEE600BF71350008B9320008DC
:1035700038B5846B216D206840F23A5383630904A7
:1035800001F060FB054680B1A06B012228430023B7
:10359000A06384F834202363A36B204613B901F0A1
:1035A0002FFC38BDFFF724FE38BD0146206800F02F
:1035B0008DFBC0F3432001230538984284F8343052
:1035C0002563E9D8206800F0B5FEA36B1843A0631B
:1035D000E2E700BF426EF0B40346940FC2F383608B
:1035E0000C70C2F301654870C2F30744C2F30720B0
:1035F000D2B28D70CC7008714A719A6E150DC2F3FB
:103600000344CD800C72C2F3C035C2F380344D72D6
:1036100000208C72C2F34035C2F30034CD720C73BB
:103620004873586C00286CD1D86E40F6FC7404EADC
:10363000820242EA90720A61C0F34255C0F38244AA
:10364000C0F3C232C0F3C267C0F302660F754E7595
:103650008D75CC750A760A690C7E04F00704023475
:103660000132A2405A650D7A012405F00F05AC40E5
:10367000650A02FB05F2C3E916424FF400751D66A8
:10368000C0F38034C0F3C61200F07F004C768A7617
:10369000C8761B6FDA0F0A77C3F34175C3F38264F0
:1036A000C3F383524D7700208C77C3F34055CA771C
:1036B000C3F30044C3F3C03281F8205081F82100E5
:1036C000C3F3803581F8224081F82320C3F34034CE
:1036D000C3F3003281F8245081F82540C3F38125DB
:1036E00081F82620C3F301240122C3F3460381F8A5
:1036F000275081F8284081F8293081F82A20F0BC31
:103700007047012810D1D86E120402F47C1242EAEC
:1037100010420A610A69013292024FF40074C3E94F
:1037200016425A651C66ABE71A68064991639A6BA4
:10373000012142F080529A6383F834100846F0BCAD
:10374000704700BFFF054000F0B5002299B0002689
:1037500000277623CDE90A23CDE9086709AB0446A3
:1037600093E807008DE80700CDE9066706AB0ECBAE
:10377000206800F079FA18B10126304619B0F0BD82
:10378000784E054601272068356000F093FA3760CF
:103790002068059500F014FF054658B9206800F030
:1037A00035FF80B9A7642068002100F06BFFA0B14D
:1037B0004FF08055012684F83460A26B30461543E3
:1037C000A56319B0F0BD2068A56400F0F9FE0028DB
:1037D00040F0C280A36C012BE5D0059A4FF6FE7332
:1037E0009A421FD8604F4FF6FE7612E0206800F034
:1037F000E9FF29460028DBD1206800F067FA059B25
:1038000001330593059AB24205464FEAD07309D8B1
:1038100043B90021206800F035FF394605460028ED
:10382000E4D0C7E7059A4FF6FE739A4200F29680FD
:10383000C5F38075012320686564ADF8123000F08F
:1038400041FA002800F08280636C032B31D10421FF
:10385000206800F03BFA000DE0640DA92046FFF758
:10386000B9FE0646002874D1226D20681204334642
:1038700000F006FE08BB2246231D52F8105B07CA63
:103880008DE8070028460ECB00F0EEF920684FF4D3
:10389000007100F033FA00283FF46FAF2368334A19
:1038A0009A63A26B01231043A0631E4684F8343050
:1038B00063E7206801F000F940B1012684F8346024
:1038C000A16B01433046A16319B0F0BD01462068E9
:1038D00000F0FCF904216067206800F0F7F9082186
:1038E000A067206800F0F2F90C21E067206800F082
:1038F000EDF9636CC4F88000032BA8D020680DF1AB
:10390000120101F049F90028D7D1636C032B9ED036
:10391000BDF8121021652068090401F005F900289E
:10392000CBD10146206800F0D1F9042160662068FF
:1039300000F0CCF90821A066206800F0C7F90C213E
:10394000E066206800F0C2F9206780E74FF08060F1
:10395000B3E74FF08050B0E705462BE74FF0807596
:1039600028E700BFA0802542000010C1FF054000ED
:10397000C8B110B590F83430044603F0FF0273B1BB
:10398000032384F834302046FFF7DEFE28B90123F4
:10399000A063206384F8343010BD012010BD02778D
:1039A000FDF7B6FBECE70120704700BFF0B4D0E9AB
:1039B00011C7D0E91365D0E91542D0E91730C1E944
:1039C00000C7C1E90265C1E90442C861F0BC00203A
:1039D0008B61704770B5436C032293428AB00446F2
:1039E00080F834200E4624D0B1F5805F21D0B1F5A7
:1039F000006F5CD000293BD0836B43F0006383638E
:103A0000A56BEDB9D4E90523CDE9076209930AABAB
:103A100013E90700D4E901360493E3688DE8070051
:103A2000CDE9056304AB0ECB206800F01DF92068DA
:103A30000CE0A36B43F08053A363A56B002DE1D092
:103A40002068304B8363012584F834504FF40071B3
:103A500000F054F930B123682A4A9A63A36B1843E3
:103A6000A06301250123284684F834300AB070BDD4
:103A7000002200230068CDE9042300F027F9820129
:103A800035D404A92046FFF7EDF960B9059BDB03A7
:103A900032D5216D2068090400F0F4FD18B9014603
:103AA000206800F0C7FEA16B0843A063C5E70022B1
:103AB000002300680021CDE9042300F007F980010C
:103AC00018D404A92046FFF7CDF960B9059B590326
:103AD00015D5216D2068090400F0D4FD18B92068BF
:103AE000022100F0A7FEA36B1843A063A5E74FF4E3
:103AF0000060D8E73046F6E74FF08060D3E74FF03C
:103B00008060F0E7FF054000016D10B50904044630
:103B1000006801F097F820B1A16B0843A063002072
:103B200010BD0146206800F0D1F8C0F3432010BD5D
:103B3000002800F0908070B590F83D30044603F006
:103B4000FF02002B00F0828023682669242284F87B
:103B50003D20D86820F40050D4E90225D8601969C6
:103B6000E06921F4405129431961D96865693243FC
:103B700021F416412A4321F00C0102430A43DA6082
:103B80005A69A069354922F4407202438B425A6156
:103B900035D0334A934232D0FEF7DEFDE369B3F508
:103BA000004F32D063682F4E19219A00A0FB01010B
:103BB0009B0FFCF77DFBA6FB00256D09642101FB33
:103BC0001502120132322368A6FB02122D0105EB09
:103BD00052129A601A6922F490421A615A6922F0CC
:103BE0002A025A61DA680025202142F40052DA6084
:103BF000256484F83D1084F83E10284670BDFEF719
:103C0000BBFDE369B3F5004FCCD16268154E921845
:103C10004FF000034FF019015B41A0FB0101FCF7DD
:103C200047FBA6FB00214D09642101FB1502D200D0
:103C30003232A6FB0212C2F342111209236801EBD1
:103C4000051102F4F8720A449A60C3E780F83C2038
:103C5000FDF7F0FB78E70120704700BF001001403E
:103C6000001401401F85EB5184B030B403AC84E8EC
:103C70000E000B46DDE90412DDE906540B43134345
:103C80002B4342680899234330BC22F4FD420B4386
:103C900022F07F021343436004B00020704700BF4E
:103CA000D0F88000704700BF0B68C0F8803000205B
:103CB000704700BF08B5032303600220FDF7AAFC8C
:103CC000002008BD006800F0030070471430405821
:103CD000704700BF30B4D1E90042D1E902354462F7
:103CE0000C698262C26A49692B43234322F0F702BE
:103CF0000B431343C36230BC002070474B4A8160C2
:103D0000C3684B49126823F47F63A1FB021223F0BE
:103D10000F03520A41F2883143F48A6301FB02F235
:103D2000C360531E4AB1426B12F0450F03F1FF33DB
:103D300001D0120505D5591CF5D14FF000431846A6
:103D40007047436B5B073DD4436B13F0010334D1E1
:103D5000C52383630369DBB2102B31D14269354B34
:103D60001340002BEBD0002A2FDB500030D4910001
:103D700030D4D00030D4110131D4500132D4D1012B
:103D800033D4100234D4510235D4900236D4D10247
:103D900037D4500338D4910339D4D0033AD4110422
:103DA0003BD450043FD491043AD412F0080F14BF0E
:103DB0004FF400034FF48033C1E701228263BEE772
:103DC0000123BCE704238363B9E74FF00073B6E730
:103DD0004023B4E78023B2E74FF48073AFE74FF49A
:103DE0000073ACE74FF48063A9E74FF40063A6E7E4
:103DF0004FF48053A3E74FF40053A0E74FF4804300
:103E00009DE74FF400439AE74FF4003397E74FF4F0
:103E1000802394E74FF4002391E74FF480138EE75B
:103E20004FF480038BE74FF4001388E70000002075
:103E3000D34D621008E0FFFD81604C4AC3684C49D5
:103E4000126823F47F63A1FB021223F00F0343F4F3
:103E50008A63520A41F2883143F0010301FB02F206
:103E6000C360531E4AB1426B12F0450F03F1FF339A
:103E700001D0120505D5591CF5D14FF00043184665
:103E80007047436B5B073DD4436B13F0010334D1A0
:103E9000C52383630369DBB2112B31D14269354BF2
:103EA0001340002BEBD0002A2FDB500030D49100C0
:103EB00030D4D00030D4110131D4500132D4D101EA
:103EC00033D4100234D4510235D4900236D4D10206
:103ED00037D4500338D4910339D4D0033AD41104E1
:103EE0003BD450043FD491043AD412F0080F14BFCD
:103EF0004FF400034FF48033C1E701228263BEE731
:103F00000123BCE704238363B9E74FF00073B6E7EE
:103F10004023B4E78023B2E74FF48073AFE74FF458
:103F20000073ACE74FF48063A9E74FF40063A6E7A2
:103F30004FF48053A3E74FF40053A0E74FF48043BE
:103F40009DE74FF400439AE74FF4003397E74FF4AF
:103F5000802394E74FF4002391E74FF480138EE71A
:103F60004FF480038BE74FF4001388E70000002034
:103F7000D34D621008E0FFFD81604C4AC3684C4994
:103F8000126823F47F63A1FB021223F00F0343F4B2
:103F90008A63520A41F2883143F0020301FB02F2C4
:103FA000C360531E4AB1426B12F0450F03F1FF3359
:103FB00001D0120505D5591CF5D14FF00043184624
:103FC0007047436B5B073DD4436B13F0010334D15F
:103FD000C52383630369DBB2122B31D14269354BB0
:103FE0001340002BEBD0002A2FDB500030D491007F
:103FF00030D4D00030D4110131D4500132D4D101A9
:1040000033D4100234D4510235D4900236D4D102C4
:1040100037D4500338D4910339D4D0033AD411049F
:104020003BD450043FD491043AD412F0080F14BF8B
:104030004FF400034FF48033C1E701228263BEE7EF
:104040000123BCE704238363B9E74FF00073B6E7AD
:104050004023B4E78023B2E74FF48073AFE74FF417
:104060000073ACE74FF48063A9E74FF40063A6E761
:104070004FF48053A3E74FF40053A0E74FF480437D
:104080009DE74FF400439AE74FF4003397E74FF46E
:10409000802394E74FF4002391E74FF480138EE7D9
:1040A0004FF480038BE74FF4001388E700000020F3
:1040B000D34D621008E0FFFD4B4A8160C3684B4955
:1040C000126823F47F63A1FB021223F00F03520A4C
:1040D00041F2883143F48B6301FB02F2C360531E4B
:1040E0004AB1426B12F0450F03F1FF3301D01205C4
:1040F00005D5591CF5D14FF0004318467047436B66
:104100005B073DD4436B13F0010334D1C5238363B4
:104110000369DBB2182B31D14269354B1340002BB8
:10412000EBD0002A2FDB500030D4910030D4D000E7
:1041300030D4110131D4500132D4D10133D4100222
:1041400034D4510235D4900236D4D10237D450033E
:1041500038D4910339D4D0033AD411043BD4500459
:104160003FD491043AD412F0080F14BF4FF4000367
:104170004FF48033C1E701228263BEE70123BCE72D
:1041800004238363B9E74FF00073B6E74023B4E735
:104190008023B2E74FF48073AFE74FF40073ACE7CE
:1041A0004FF48063A9E74FF40063A6E74FF4805310
:1041B000A3E74FF40053A0E74FF480439DE74FF48B
:1041C00000439AE74FF4003397E74FF4802394E7D6
:1041D0004FF4002391E74FF480138EE74FF48003F0
:1041E0008BE74FF4001388E700000020D34D6210E6
:1041F00008E0FFFD81604C4AC3684C49126823F413
:104200007F63A1FB021223F00F0343F48B63520A76
:1042100041F2883143F0010301FB02F2C360531EF7
:104220004AB1426B12F0450F03F1FF3301D0120582
:1042300005D5591CF5D14FF0004318467047436B24
:104240005B073DD4436B13F0010334D1C523836373
:104250000369DBB2192B31D14269354B1340002B76
:10426000EBD0002A2FDB500030D4910030D4D000A6
:1042700030D4110131D4500132D4D10133D41002E1
:1042800034D4510235D4900236D4D10237D45003FD
:1042900038D4910339D4D0033AD411043BD4500418
:1042A0003FD491043AD412F0080F14BF4FF4000326
:1042B0004FF48033C1E701228263BEE70123BCE7EC
:1042C00004238363B9E74FF00073B6E74023B4E7F4
:1042D0008023B2E74FF48073AFE74FF40073ACE78D
:1042E0004FF48063A9E74FF40063A6E74FF48053CF
:1042F000A3E74FF40053A0E74FF480439DE74FF44A
:1043000000439AE74FF4003397E74FF4802394E794
:104310004FF4002391E74FF480138EE74FF48003AE
:104320008BE74FF4001388E700000020D34D6210A4
:1043300008E0FFFD002310B44D4A8360C368126893
:104340004C4C4D4923F47F6323F00F03A4FB02423E
:1043500043F48963520A43F0040301FB02F2C36091
:10436000531E4AB1426B12F0450F03F1FF3301D0E7
:10437000120507D5591CF5D14FF0004318465DF8DA
:10438000044B7047436B5C073DD4436B13F0010350
:1043900034D1C52383630369DBB20C2B31D142696D
:1043A000364B1340002BE9D0002A2FDB510030D4CC
:1043B000940030D4D00030D4110131D4540132D41F
:1043C000D00133D4110234D4540235D4900236D4FF
:1043D000D10237D4540338D4900339D4D1033AD41A
:1043E00014043BD450043FD491043AD412F0080F83
:1043F00014BF4FF400034FF48033BFE70122826300
:10440000BCE70123BAE704238363B7E74FF00073E7
:10441000B4E74023B2E78023B0E74FF48073ADE701
:104420004FF40073AAE74FF48063A7E74FF40063EB
:10443000A4E74FF48053A1E74FF400539EE74FF4F5
:1044400080439BE74FF4004398E74FF4003395E730
:104450004FF4802392E74FF400238FE74FF480134B
:104460008CE74FF4800389E74FF4001386E700BF21
:1044700000000020D34D621000E1F50508E0FFFDCB
:1044800082604C4AC3684C49126823F47F63A1FBE5
:10449000021223F00F0343F48863520A41F2883179
:1044A00043F0070301FB02F2C360531E4AB1426BA3
:1044B00012F0450F03F1FF3301D0120505D5591C49
:1044C000F5D14FF0004318467047436B5B073DD46E
:1044D000436B13F0010334D1C52383630369DBB25B
:1044E000072B31D14269354B1340002BEBD0002A0A
:1044F0002FDB500030D4910030D4D00030D41101E3
:1045000031D4500132D4D10133D4100234D4510209
:1045100035D4900236D4D10237D4500338D4910325
:1045200039D4D0033AD411043BD450043FD491047D
:104530003AD412F0080F14BF4FF400034FF4803345
:10454000C1E701228263BEE70123BCE70423836342
:10455000B9E74FF00073B6E74023B4E78023B2E732
:104560004FF48073AFE74FF40073ACE74FF4806310
:10457000A9E74FF40063A6E74FF48053A3E74FF495
:104580000053A0E74FF480439DE74FF400439AE7C0
:104590004FF4003397E74FF4802394E74FF4002360
:1045A00091E74FF480138EE74FF480038BE74FF4CD
:1045B000001388E700000020D34D621008E0FFFDE3
:1045C000002383600F4BC2680F491B6822F47F628F
:1045D000A1FB031322F00F02590A42F4806241F258
:1045E0008833C26003FB01F302E0426B120604D47D
:1045F000013BFAD24FF000407047C523836300208F
:10460000704700BF00000020D34D62104FF4D573F7
:104610001A498360C36809680246194823F47F6316
:10462000A0FB010123F00F03490A41F2883043F453
:10463000896300FB01F1D3604B1E49B1516B11F04E
:10464000450F03F1FF3301D0080504D5591CF5D1FE
:104650004FF000407047536B59070CD4506B10F06B
:10466000010005D1536B5B06F4D54023936370477B
:10467000012393637047042090637047000000207B
:10468000D34D621081604C4AC3684C49126823F4D0
:104690007F63A1FB021223F00F0343F48E63520ADF
:1046A00041F2883143F0070301FB02F2C360531E5D
:1046B0004AB1426B12F0450F03F1FF3301D01205EE
:1046C00005D5591CF5D14FF0004318467047436B90
:1046D0005B073DD4436B13F0010334D1C5238363DF
:1046E0000369DBB2372B31D14269354B1340002BC4
:1046F000EBD0002A2FDB500030D4910030D4D00012
:1047000030D4110131D4500132D4D10133D410024C
:1047100034D4510235D4900236D4D10237D4500368
:1047200038D4910339D4D0033AD411043BD4500483
:104730003FD491043AD412F0080F14BF4FF4000391
:104740004FF48033C1E701228263BEE70123BCE757
:1047500004238363B9E74FF00073B6E74023B4E75F
:104760008023B2E74FF48073AFE74FF40073ACE7F8
:104770004FF48063A9E74FF40063A6E74FF480533A
:10478000A3E74FF40053A0E74FF480439DE74FF4B5
:1047900000439AE74FF4003397E74FF4802394E700
:1047A0004FF4002391E74FF480138EE74FF480031A
:1047B0008BE74FF4001388E700000020D34D621010
:1047C00008E0FFFD41F0004141F480118160174A8B
:1047D000C3681749126823F47F63A1FB021223F018
:1047E0000F0343F48D63520A41F2883143F0010311
:1047F00001FB02F2C360531E4AB1426B12F0450F37
:1048000003F1FF3301D0120505D5591CF5D14FF046
:10481000004318467047436B13F0040315BF04238D
:10482000C522836382631846704700BF00000020E2
:10483000D34D621081604C4AC3684C49126823F41E
:104840007F63A1FB021223F00F0343F48863520A33
:1048500041F2883143F0060301FB02F2C360531EAC
:104860004AB1426B12F0450F03F1FF3301D012053C
:1048700005D5591CF5D14FF0004318467047436BDE
:104880005B073DD4436B13F0010334D1C52383632D
:104890000369DBB2062B31D14269354B1340002B43
:1048A000EBD0002A2FDB500030D4910030D4D00060
:1048B00030D4110131D4500132D4D10133D410029B
:1048C00034D4510235D4900236D4D10237D45003B7
:1048D00038D4910339D4D0033AD411043BD45004D2
:1048E0003FD491043AD412F0080F14BF4FF40003E0
:1048F0004FF48033C1E701228263BEE70123BCE7A6
:1049000004238363B9E74FF00073B6E74023B4E7AD
:104910008023B2E74FF48073AFE74FF40073ACE746
:104920004FF48063A9E74FF40063A6E74FF4805388
:10493000A3E74FF40053A0E74FF480439DE74FF403
:1049400000439AE74FF4003397E74FF4802394E74E
:104950004FF4002391E74FF480138EE74FF4800368
:104960008BE74FF4001388E700000020D34D62105E
:1049700008E0FFFD002383604C4AC3684C4912687D
:1049800023F47F63A1FB021223F00F0343F48E6331
:10499000520A41F2883143F0030301FB02F2C36083
:1049A000531E4AB1426B12F0450F03F1FF3301D0A1
:1049B000120505D5591CF5D14FF000431846704734
:1049C000436B5B073DD4436B13F0010334D1C52324
:1049D00083630369DBB2332B31D14269354B13401A
:1049E000002BEBD0002A2FDB500030D4910030D4C4
:1049F000D00030D4110131D4500132D4D10133D49C
:104A0000100234D4510235D4900236D4D10237D4B6
:104A1000500338D4910339D4D0033AD411043BD491
:104A200050043FD491043AD412F0080F14BF4FF44D
:104A300000034FF48033C1E701228263BEE7012304
:104A4000BCE704238363B9E74FF00073B6E7402364
:104A5000B4E78023B2E74FF48073AFE74FF40073FD
:104A6000ACE74FF48063A9E74FF40063A6E74FF487
:104A70008053A3E74FF40053A0E74FF480439DE732
:104A80004FF400439AE74FF4003397E74FF4802345
:104A900094E74FF4002391E74FF480138EE74FF42F
:104AA00080038BE74FF4001388E700BF000000206D
:104AB000D34D621008E0FFFD002383601849C368EE
:104AC00009680246174823F47F63A0FB010123F025
:104AD0000F0343F49863490A41F2883043F002031C
:104AE00000FB01F1D3604B1E49B1516B11F0450F32
:104AF00003F1FF3301D0090504D5581CF5D14FF05F
:104B000000407047536B5B0707D4506B10F00100F7
:104B100014BF0123C523936370470420906370473B
:104B200000000020D34D621081601949C3680968F4
:104B30000246184823F47F63A0FB010123F00F0312
:104B400043F49963490A41F2883043F0010300FBC2
:104B500001F1D3604B1E49B1516B11F0450F03F1C8
:104B6000FF3301D0090504D5581CF5D14FF00040A2
:104B70007047536B5B0707D4506B10F0010014BFF4
:104B80000123C5239363704704209063704700BFDF
:104B900000000020D34D6210002310B4274A836028
:104BA000C368274C126823F47F63A4FB024223F0FE
:104BB0000F0343F48863520A41F2883443F003033D
:104BC00004FB02F2C360531E4AB1426B12F0450F60
:104BD00003F1FF3301D0120507D55C1CF5D14FF06E
:104BE000004318465DF8044B7047436B5C071CD4C8
:104BF000436B13F0010313D10369DBB2032B12D112
:104C0000C5238363426912F4604314D051040FD466
:104C100012F4004F14BF4FF480534FF48033E0E799
:104C200001228263DDE70123DBE704238363D8E706
:104C30004FF40053D5E7120C0A80D2E700000020A1
:104C4000D34D621081604C4AC3684C49126823F40A
:104C50007F63A1FB021223F00F0343F48963520A1E
:104C600041F2883143F0050301FB02F2C360531E99
:104C70004AB1426B12F0450F03F1FF3301D0120528
:104C800005D5591CF5D14FF0004318467047436BCA
:104C90005B073DD4436B13F0010334D1C523836319
:104CA0000369DBB20D2B31D14269354B1340002B28
:104CB000EBD0002A2FDB500030D4910030D4D0004C
:104CC00030D4110131D4500132D4D10133D4100287
:104CD00034D4510235D4900236D4D10237D45003A3
:104CE00038D4910339D4D0033AD411043BD45004BE
:104CF0003FD491043AD412F0080F14BF4FF40003CC
:104D00004FF48033C1E701228263BEE70123BCE791
:104D100004238363B9E74FF00073B6E74023B4E799
:104D20008023B2E74FF48073AFE74FF40073ACE732
:104D30004FF48063A9E74FF40063A6E74FF4805374
:104D4000A3E74FF40053A0E74FF480439DE74FF4EF
:104D500000439AE74FF4003397E74FF4802394E73A
:104D60004FF4002391E74FF480138EE74FF4800354
:104D70008BE74FF4001388E700000020D34D62104A
:104D800008E0FFFD08B50349034801F0DFFD034BD0
:104D9000187008BDA0040020CC8A00089C040020E4
:104DA0000020704710B50C461346014622460348C2
:104DB000FEF7C4F8003818BF012010BD6C030020B6
:104DC00010B50C461346014622460348FEF75CF92F
:104DD000003818BF012010BD6C03002008B503483F
:104DE000FEF792FE043818BF012008BD6C030020B6
:104DF00001460148FEF7DABD6C030020704700BF92
:104E000008B5FFF7FBFF08BD704700BF08B5FFF707
:104E1000FBFF08BD704700BF08B5FFF7FBFF08BDEB
:104E200000B583B001238DF8073000F021F808B9F0
:104E30008DF807009DF8070003B05DF804FB00BF84
:104E400008B5FFF7EDFF012801D0012008BD074894
:104E5000FEF78EFD0028F9D14FF400610348FEF7FC
:104E6000B9FD003818BF012008BD00BF6C03002049
:104E700008B54FF480710248FDF75CF9012008BDC8
:104E80000000024038B50A4C01252570FFF7D8FF15
:104E900008B1207838BD2570FFF7A0FF18B9237836
:104EA00003F0FE0323702378DBB22370207838BD33
:104EB0000C00002010B5064C01232370FFF78EFF75
:104EC00018B9237803F0FE032370207810BD00BFCB
:104ED0000C00002008B5084611461A46FFF762FF8D
:104EE00008B1012008BDFFF779FF0028FAD0FFF7CD
:104EF00075FF0028F7D1F5E7154B1B78DB0711D4B8
:104F000010B5084688B0144603291ED8DFE801F022
:104F10000802150C6846FFF76BFF069B2360002014
:104F200008B010BD032070476846FFF761FF079B7C
:104F300000205B0A236008B010BD6846FFF758FFE9
:104F4000079B2380002008B010BD0420E8E700BFC5
:104F50000C00002008B5084611461A46FFF730FF3E
:104F600008B1012008BDFFF739FF0028FAD0FFF78C
:104F700035FF0028F7D1F5E7034B03EB8002184417
:104F80005368007A5B681847E4000020064B1A5CFF
:104F900042B903EB80020121195452681844136886
:104FA000007A184700207047E400002030B4054C18
:104FB00004EB800520446C68007AA468A44630BCE9
:104FC000604700BFE400002030B4054C04EB8005CE
:104FD00020446C68007AE468A44630BC604700BF97
:104FE000E4000020054B10B403EB80041844636810
:104FF000007A1B695DF8044B184700BFE4000020ED
:10500000F0B5C37883B004460D4673B900F13001A2
:105010002A4660780123FFF7C9FF00281CBF012042
:105020004FF0FF35E56203B0F0BDC66A407804F189
:105030003001324601230191FFF7C6FFB8B9226A59
:10504000A3690199E070B21A9A42E1D2A778012FC0
:1050500001D8DDE7A369607801911E44013F324623
:105060000123FFF7B1FF012F0199F3D1D0E7012010
:1050700003B0F0BD2DE9F8430378022B04460D463A
:10508000164606D0032B52D0012B1BD00220BDE8C0
:10509000F883016AC36A01EB1521994203D0FFF737
:1050A000AFFF0028F3D16D0004F1300305F4FF7564
:1050B0005A195E55C6F3072101235170E370002091
:1050C000BDE8F883016AC36A05EB550701EB572178
:1050D000994203D0FFF794FF0028D8D1EB0707F1DE
:1050E000010804F13009C7F3080743D519F8073060
:1050F00003F00F0343EA061309F80730216AE36A55
:1051000001EB582101229942E27004D02046FFF7BA
:1051100077FF0028BBD1C8F30808C844C6F30712BC
:10512000012388F80020E3700020BDE8F883016ABD
:10513000C36A01EBD511994203D0FFF761FF002844
:10514000A5D1AD0005F4FE7504F13001481926F033
:10515000704243881B0403F0704313434B551F0AEE
:105160001E0C01221B0E47708670C370E270002077
:10517000BDE8F88309F80760216AE36A01EB58216A
:1051800001229942E27005D02046FFF739FF00283E
:105190007FF47DAFC8F30808C844C6F3032298F82B
:1051A000001021F00F063243BAE700BF01290ED9E3
:1051B000F8B5436999420C46054606D20378022B9E
:1051C00046D0032B2CD0012B03D00120F8BD0120A9
:1051D0007047036AC26A01EB510703EB5721914202
:1051E00005D0FFF70DFF00283BD12B6AEA6AC7F311
:1051F00008000137284403EB5721914290F83060B2
:1052000003D02846FFF7FCFE58BBC7F308073D4410
:10521000E30795F8300046EA00202FD50009F8BDD5
:10522000016AC36A01EBD411994202D0FFF7E8FE8C
:10523000B8B9A40004F4FE7430352A19285D5188E9
:10524000537843EA012340EA032020F07040F8BD80
:10525000016AC36A01EB1421994205D0FFF7D0FE21
:1052600010B14FF0FF30F8BD640004F4FF74303526
:105270002B19285D5B7840EA0320F8BDC0F30B00D2
:10528000F8BD00BFF8B5C37804465BB92378032B9B
:1052900029D0002260781146FFF7A4FE003818BF1D
:1052A0000120F8BDC56A407804F130072A46394626
:1052B0000123FFF789FE00284FD1226AA369E0701D
:1052C000AA1A9A42E2D2A678012E01D8DEE7A36993
:1052D00060781D44013E2A4601233946FFF774FEDB
:1052E000012EF4D1D2E72679012ED2D104F1300378
:1052F00018464FF40072002101F074FB0346D4E914
:105300000305E26984F818522F0A194633462E0C19
:105310002D0E84F81A6284F81B52060A050C84F8D4
:105320001C02000E013284F8197284F81D6284F8A0
:105330001E5284F81F020A4D0A48C4F81402552769
:10534000AA266078E26284F82E7284F82F622563C0
:10535000FFF73AFE002323719BE70120F8BD00BF51
:1053600052526141727241612DE9F84FD0F80080CC
:1053700081460F46002940F09880D8F80C60D8F894
:105380001430C6B90126344601349C4217D3012E8D
:1053900040F29B80D9F8005002246B69A34206D9E1
:1053A0002B78022B6CD0032B50D0012B0CD0012476
:1053B0002046BDE8F88FB34298BF0126E3E7012CF1
:1053C000D9F80050F3D9E8E72B6AEA6A04EB540BEA
:1053D00003EB5B21914205D02846FFF711FE80BB0D
:1053E0002B6AEA6ACBF308000BF1010B284403EBAC
:1053F0005B21914290F830A003D02846FFF700FED1
:10540000F8B9CBF3080B5D44E20795F830304AEA6F
:1054100003235ED51B0933B1012BC8D0A64254D05B
:10542000D8F81430B0E7D8F81430A342BFD94FF001
:10543000FF3221464046FFF71DFE00284CD00128D0
:10544000B5D14FF0FF342046BDE8F88F296AEB6AEA
:1054500001EBD411994204D02846FFF7D1FD002872
:10546000EFD1A300303503F4FE73E918EB5C4888F4
:105470004A7842EA002243EA022323F07043CAE753
:10548000296AEB6A01EB1421994204D02846FFF700
:10549000B7FD0028D5D16300303503F4FF73EA1857
:1054A000EB5C527843EA0223B5E74046FFF77EFE05
:1054B000012804467FF67BAF411CC2D0D8F81430D7
:1054C00083423FF675AF3E465DE700242046BDE8C7
:1054D000F88FC3F30B039EE777B1012F7FF667AF19
:1054E000D8F814309F42BFF462AF39462246404696
:1054F000FFF7C0FD0028A2D1D8E90423023B9A425D
:10550000C8F80C4002D8013AC8F8102098F80430C6
:1055100043F0010388F804304AE700BF70B54FF04C
:10552000FF360023B1420446C370C6620CD00D465C
:105530000A46012300F130014078FFF737FD10B132
:10554000E662042070BDE56294F82F1294F82E32C2
:105550004AF6552243EA012393422AD194F8303087
:10556000E92B07D0236B154A03F0FF13934201D0B8
:10557000022070BDB4F8680094F8672094F8663093
:105580000F4942EA002243EA022323F07F438B4281
:1055900011D0B4F8841094F8833094F88200094A4A
:1055A00043EA012340EA0320904214BF0220002076
:1055B00070BD032070BD002070BD00BFEB009000E7
:1055C000464154004641543303682DE9F04100241C
:1055D0000C6073B11E78202E13D934461D4603E0AB
:1055E00015F8014F202C0CD93A2CF9D101339D42EA
:1055F00003D00B252846BDE8F081302EF9D10135C6
:105600000560BC4B1C68002C00F022810C602378E4
:1056100002F0FE057BB16078FFF7AEFCC1070AD44B
:10562000002D00F0048110F0040500F000810A252F
:105630002846BDE8F08100202080FFF7A7FCC207C4
:1056400000F1F8800DB14307F1D400212046FFF7A7
:1056500065FF022800F0A880042800F0F7800128E8
:1056600098BF002500F2E28094F83C2094F83B308B
:1056700043EA0223B3F5007F40F0D88094F8472036
:1056800094F8463053EA022309D1B4F8561094F83E
:10569000553094F8542043EA012342EA032394F856
:1056A0004000A361421E012AA07000F2BF8094F85E
:1056B0003D70BAB26281002A00F0B8807A1E3A4288
:1056C00040F0B48094F8421094F8412042EA01225C
:1056D00012F00F0F9446228116B240F0A78094F882
:1056E000441094F8432052EA012209D1B4F852E060
:1056F00094F8511094F8502041EA0E2142EA012218
:1057000094F83FE094F83E1051EA0E2100F08E80AC
:1057100003FB00F001EB1C1E86447245C0F086803E
:10572000A2EB0E02BA42B2FBF7F87FD34FF6F57246
:10573000904500F2A18040F6F5729045294408F1A9
:1057400002020EEB050662612162A662E56100F2CB
:10575000C780BCF1000F69D0014402EB420002F0A7
:10576000010202EB50026162012002F2FF12B3EB70
:10577000522F5BD34FF0FF33C4E9033380222271F1
:105780005D495E4A0B881568207001339BB2A542C3
:105790000B80E38004BF0023136013699C424FF029
:1057A000000544D1156142E094F8F211002951D06E
:1057B000B4F8F83194F8F71194F8F68141EA03212E
:1057C00048EA012894F802524DB1B4F8082294F83E
:1057D000073294F8065243EA022345EA032594F877
:1057E00012724FB1B4F8182294F8173294F8167266
:1057F00043EA022347EA032794F822624EB1B4F841
:10580000282294F8273294F8266243EA022346EAD3
:105810000326B8F1000F1FD135B129462046FFF706
:105820007DFE01287FF620AFF7B93EB90D25284649
:10583000BDE8F08103252846BDE8F08131462046C9
:10584000FFF76CFE012853D90428EFD10125EEE7BC
:105850000C25ECE78846B5E741462046FFF75EFE9B
:105860000128D9D84546FFE639462046FFF756FEBF
:105870000128DAD83D46F7E694F85B0094F85A2000
:10588000E56142EA0022324308F1020029440EEBAE
:10589000050712B260612162A762002AC6D1B4F87E
:1058A0005E7094F85D6094F85C10820002F2FF1262
:1058B00046EA072041EA0021B3EB522F6162B5D3DB
:1058C00094F8611094F8603043EA01234FF0FF32FE
:1058D0008021012BC4E90322217111D003204FE75D
:1058E000BCF1000FA2D001446162520002203CE7EB
:1058F0003546B9E6BC000020E0000020C0000020D2
:10590000E36A691C994204D02046FFF779FB00281E
:10591000E4D194F82F2294F82E3243EA02234AF677
:105920005522002193422171D8D1608E94F8312004
:1059300094F83030174942EA002243EA02238B42AE
:10594000CCD1B4F8160294F8152294F8143201F16F
:10595000FF5101F5005142EA0022203143EA0223BF
:105960008B42BBD1B4F81A6294F81902B4F81E52F3
:1059700094F81D1294F8182294F81C3240EA06207C
:1059800041EA052142EA002243EA0123C4E9033245
:10599000A4E700BF525261412DE9F84384680768CB
:1059A000002306464361BCB93B78022B10D83B89E3
:1059B0005BB17B6AF361B4613BB130373762002081
:1059C000BDE8F8830023C6E906430220BDE8F8835A
:1059D0007B6A002BEBD01C467B89002B69D1012C04
:1059E000F3D935686B699C42EFD22B78022B4AD0F1
:1059F000032B2AD0012BE8D12B6AEA6A04EB540866
:105A000003EB5821914206D02846FFF7F9FA002807
:105A100043D12B6AEA6AC8F3080008F10108284458
:105A200003EB58218A4290F8309003D02846FFF7C4
:105A3000E7FA90BBC8F308084544E20795F8303010
:105A400049EA03233FD51C0917E0296AEB6A01EBF9
:105A5000D411994203D02846FFF7D2FAE8B9A4003E
:105A600004F4FE7430352A192C5D5188537843EACA
:105A7000012344EA032424F07044012CA5D97B6956
:105A8000A342ACD8A1E7296AEB6A01EB1421994241
:105A900005D02846FFF7B4FA08B1012090E764006A
:105AA00004F4FF7430352B192C5D5B7844EA032431
:105AB000E3E77A69A11E023A914283D2BA6A01FBF6
:105AC0000323F36177E7C3F30B04D6E72DE9F04F27
:105AD00085B00368009304460B782F2B894601F1AB
