:020000040801F1
:100000000000052001320108712F0108752F010839
:10001000792F01087D2F0108812F010800000000C1
:10002000000000000000000000000000852F010813
:10003000892F0108000000008D2F0108912F010871
:100040005132010851320108513201085132010880
:100050005132010851320108513201085132010870
:100060005132010851320108513201085132010860
:100070005132010851320108513201085132010850
:100080005132010851320108513201085132010840
:10009000513201085132010851320108952F0108EF
:1000A0005132010851320108513201085132010820
:1000B0005132010851320108513201085132010810
:1000C0005132010851320108513201085132010800
:1000D00051320108513201085132010851320108F0
:1000E00051320108513201085132010851320108E0
:1000F00051320108513201085132010851320108D0
:1001000051320108513201085132010851320108BF
:1001100051320108513201085132010851320108AF
:10012000513201085132010851320108513201089F
:10013000513201085132010851320108513201088F
:10014000513201085132010851320108513201087F
:10015000513201085132010851320108513201086F
:10016000513201085132010851320108513201085F
:1001700051320108513201085132010800000000DB
:10018000513201085132010851320108513201083F
:10019000513201085132010851320108513201082F
:1001A000513201085132010851320108513201081F
:0401B00051320108BF
:1001C00010B5054C237833B9044B13B10448AFF391
:1001D00000800123237010BD80000020000000007B
:1001E0005CDD010808B5034B1BB103490348AFF3BD
:1001F000008008BD00000000840000205CDD0108D4
:10020000034613F8012B002AFBD1181A0138704756
:1002100001F0FF01102A2BDB10F0070F08D010F8B7
:10022000013B013A8B422DD010F0070F42B3F6D1BB
:10023000F0B441EA012141EA014122F007047FF0D4
:1002400000070023F0E80256083C85EA010586EA2B
:10025000010685FA47F5A3FA87F586FA47F6A5FA67
:1002600087F68EB9EED1F0BC01F0FF0102F0070273
:1002700032B110F8013B013A83EA010313B1F8D11E
:100280000020704701387047002D06BF35460338FF
:10029000073815F0010F07D1013015F4807F02BF38
:1002A000013015F4C03F0130F0BC0138704700BF89
:1002B00053B94AB9002908BF00281CBF4FF0FF31CD
:1002C0004FF0FF3000F06EB9ADF1080C6DE904CECF
:1002D00000F006F8DDF804E0DDE9022304B0704721
:1002E0002DE9F047089D04468C46002B40F08380A2
:1002F0008A42174647D9B2FA82F242B1C2F12000CF
:1003000024FA00F09140974040EA010C94404FEAF3
:100310001748230CBCFBF8F61FFA87FE08FB16C132
:1003200043EA014306FB0EF1994209D9FB1806F195
:10033000FF3080F01981994240F21681023E3B4421
:100340005B1AA4B2B3FBF8F008FB103344EA034491
:1003500000FB0EFEA64509D93C1900F1FF3380F0E1
:100360000581A64540F2028102383C4440EA06403D
:10037000A4EB0E0400261DB1D4400023C5E90043C0
:100380003146BDE8F08702B9FFDEB2FA82F2002AF8
:1003900050D1CB1B4FEA174E1FFA87F80126B3FB4B
:1003A000FEFC210C0EFB1C3341EA034108FB0CF35D
:1003B0008B4207D979180CF1FF3002D28B4200F240
:1003C000E9808446C91AA3B2B1FBFEF00EFB1011FE
:1003D00043EA014408FB00F8A04507D93C1900F1A5
:1003E000FF3302D2A04500F2D9801846A4EB0804DE
:1003F00040EA0C40BFE78B4209D9002D00F0B180E4
:100400000026C5E9000130463146BDE8F087B3FA61
:1004100083F6002E4AD18B4202D3824200F2B8808A
:10042000841A61EB030101208C46002DA8D0C5E998
:10043000004CA5E7C2F1200320FA03F6974001FA29
:1004400002F04FEA174ED9403043030CB1FBFEF6E1
:100450001FFA87F80EFB161143EA014306FB08F169
:10046000994204FA02F409D9FB1806F1FF3C80F026
:100470008D80994240F28A80023E3B445B1A81B2F1
:10048000B3FBFEF00EFB103341EA034100FB08F31F
:100490008B4207D9791800F1FF3C73D28B4271D996
:1004A00002383944CB1A40EA064678E7C6F1200CF8
:1004B00003FA06F422FA0CF31C4320FA0CF701FAB3
:1004C00006F34FEA144E21FA0CF11F433B0CB1FB2B
:1004D000FEF91FFA84F80EFB191143EA014109FBEA
:1004E00008FA8A4502FA06F200FA06F308D96118FA
:1004F00009F1FF3048D28A4546D9A9F102092144C1
:10050000A1EB0A01BFB2B1FBFEF00EFB101147EAEE
:10051000014700FB08F8B84507D9E71900F1FF319A
:100520002ED2B8452CD90238274440EA0940A7EB1F
:100530000807A0FB02894F45C64649461AD317D083
:100540005DB1B3EB0E0267EB010707FA0CFCF2405A
:100550004CEA0202F740C5E9002700263146BDE813
:10056000F0872E4628460BE70646E9E61846FDE6E4
:100570004345E5D2B8EB020E69EB04010138DFE731
:100580000846D2E760468DE78146B9E7664675E7DB
:1005900030464AE7ACF1020C394413E702383C44D8
:1005A00024E700BF704700BFF0B57A4B1B7885B0D9
:1005B00005460C46032B43D8DFE803F08602C94406
:1005C000912375488DF8083000220421642606F036
:1005D000C7FE032303AA02A97048009609F0ECFAAB
:1005E0006D480122042106F0BBFE9DF80D209DF808
:1005F0000E30694802F07F02DB0843EA4213C3F57C
:100600007F630F332B80D123002204218DF8083023
:1006100006F0A6FE032303AA02A96048009609F08B
:10062000CBFA01225C48042106F09AFE9DF80D20C9
:100630009DF80E3002F07F02DB0843EA421323806C
:1006400005B0F0BD9123642653488DF80830002290
:10065000042106F085FE03AA02A9032300964F4851
:1006600009F0AAFA4C480122042106F079FE9DF80F
:100670000D209DF80E30484802F07F02DB0843EA67
:1006800042132B800022D12304218DF8083006F07C
:1006900067FE03AA02A903230096404809F08CFADA
:1006A0003D480122042106F05BFE9DF80D209DF8D7
:1006B0000E3002F07F02DB0843EA4213C3F57F638A
:1006C0000F33238005B0F0BDD123642732488DF865
:1006D00008300022042106F043FE03AA02A90323E6
:1006E00000972E4809F068FA2B480122042106F0F1
:1006F00037FE9DF80D209DF80E30274802F07F024E
:10070000DB0840F6FF7643EA4213F31A2B800022FF
:10071000912304218DF8083006F022FE03AA02A9D5
:10072000032300971D4809F047FA1B4801220421C2
:1007300006F016FE9DF80D209DF80E3002F07F02A7
:10074000DB0843EA4213F31A238005B0F0BDD1233E
:1007500011488DF8083000220421642606F000FEBE
:10076000032303AA02A90D48009609F025FA0A48B6
:100770000122042106F0F4FD9DF80D209DF80E30B5
:10078000054802F07F02DB0843EA42132B809123E5
:100790003AE700BFB2000020001002403C040020F5
:1007A0002DE9F0434D4D4E4F2A700C464D494E4DAC
:1007B00008801E46014613464C483C80224685B0C0
:1007C0002E8001F05FF94A4CDFF83C8120264FF083
:1007D00000096427B1230022042120468DF8083047
:1007E00006F0BEFD032303AA02A90097404609F0C4
:1007F000E3F901220421204606F0B2FD9DF80D30F8
:100800009DF80E504FF0C10C03F07F03002204212D
:100810002046ED088DF808C045EA431506F0A0FD16
:10082000032303AA02A90097404609F0C5F9012253
:100830000421204606F094FD9DF80D209DF80E3011
:1008400002F07F02DB0843EA4213C3F57F630F33F4
:100850004FF0D10C9BB20022042120468DF808C035
:10086000AB422CBF9944A94406F07AFD032303AAA6
:1008700002A90097404609F09FF901220421204671
:1008800006F06EFD91230022042120468DF80830E9
:1008900006F066FD032303AA02A90097404609F06B
:1008A0008BF901220421204606F05AFD013E0A2060
:1008B00006F0E4FA16F0FF068BD10E4B0E491E80AF
:1008C0000E480F4A0F4B06804FEA5919A1F80090C5
:1008D00016801E8005B0BDE8F08300BFB200002086
:1008E000B0000020B4000020B600002074DD010834
:1008F00000100240A0000020A8000020A40000205A
:10090000A2000020A60000203C0400202DE9F04FAA
:10091000874BDFF838B21A6089B0CBF800108047F7
:100920000023CDE90333DFF82892DFF82882814DD8
:10093000814F9A4602E00A2006F0A0FAB123002275
:100940000421284664268DF8183006F009FD03239B
:1009500007AA06A90096384609F02EF901220421BB
:10096000284606F0FDFC9DF81D309DF81E404FF016
:10097000C10C03F07F03002204212846E40844EA66
:1009800043148DF818C006F0EBFC032307AA06A950
:100990000096384609F010F901220421284606F095
:1009A000DFFC9DF81D009DF81E30B9F80020B8F856
:1009B000001000F07F00DB0843EA4013C3F57F63BB
:1009C0000F339BB2A3422CBFC2EB0303C2EB040361
:1009D0009BB29942AFD2B3F5805FACD20AF1010A63
:1009E0005FFA8AFABAF1200F07A906A80CD8FFF718
:1009F000DBFDBDF818200399BDF81C301144049AA2
:100A000003911A44049296E7DBF80030494D4A4FAF
:100A100098474FF0000B4FF4FA6006F02FFADA46D1
:100A2000CDF814B002E00A2006F028FAB123002223
:100A30000421284664268DF8183006F091FC032323
:100A400007AA06A90096384609F0B6F80122042143
:100A5000284606F085FC9DF81D309DF81E404FF09D
:100A6000C10C03F07F03002204212846E40844EA75
:100A700043148DF818C006F073FC032307AA06A9D7
:100A80000096384609F098F801220421284606F01D
:100A900067FC9DF81D009DF81E30B9F80020B8F8DD
:100AA000001000F07F00DB0843EA4013C3F57F63CA
:100AB0000F339BB2A3422CBFC2EB0303C2EB040370
:100AC0009BB29942AFD2B3F5805FACD20AF1010A72
:100AD0005FFA8AFABAF1200F07A906A80AD8FFF729
:100AE00063FD0599BDF81820BDF81C30114405912F
:100AF0009B4498E70E4B114D1B68114C9847039B84
:100B000010481149C3F34F122A80049B059DC3F37B
:100B10004F13C2EB5512C3EB5B1B02804FF4FA601C
:100B2000A4F800B00B8006F0A9F909B0BDE8F08F79
:100B3000AC000020001002403C040020A000002077
:100B4000A6000020A2000020A40000209C0000209D
:100B5000A8000020B60000202DE9F04F87B0B12595
:100B60000B4604460022B3488DF81050042164253A
:100B7000CDE9024306F0F4FB032305AA04A9AE481D
:100B8000009509F019F8AB480122042106F0E8FBB2
:100B90009DF815309DF81640A648C12103F07F034B
:100BA00000228DF81010E408042144EA431406F0F2
:100BB000D7FB032305AA04A99F48009508F0FCFF72
:100BC000012204219B4806F0CBFB9DF815109DF8EF
:100BD00016309A4A01F07F01DB0843EA4113C3F55E
:100BE0007F6312880F339BB2A3422CBFC2EB030377
:100BF000C2EB0403924A12889BB29A4202D2B3F526
:100C0000805F03D3002007B0BDE8F08F0025DFF838
:100C10004CB2884FDFF820A22C46A846A9462026D1
:100C20009BF80030032B46D8DFE813F01A015E0171
:100C3000C600040064256FF06E03002204213846CC
:100C40008DF8103006F08CFB0323009505AA04A94B
:100C5000504608F0B1FF01220421384606F080FB1F
:100C60009DF815309DF816404FF0D10C03F07F032E
:100C7000002204213846E4088DF810C044EA4314E9
:100C800006F06EFB0323009505AA04A9504608F060
:100C900093FF01220421384606F062FB9DF81530CF
:100CA0009DF8165003F07F03ED0845EA4315C5F59E
:100CB0007F650F35ADB2013E16F0FF06A144A84492
:100CC000AED1B12332465B488DF810300421642444
:100CD00006F046FB032305AA04A95748009408F030
:100CE0006BFF54480122042106F03AFB9DF81530B1
:100CF0009DF816504F48324603F07F030421ED085B
:100D0000C12645EA43158DF8106006F029FB032340
:100D100005AA04A94848009408F04EFF454801225E
:100D2000042106F01DFB9DF815009DF81630434A7E
:100D300043491288098800F07F00DB0843EA40132A
:100D4000C3F57F630F339BB2AB422CBFC2EB0303EF
:100D5000C2EB05039BB29942BFF454AFB3F5805F79
:100D6000BFF450AF3749384B384A0D881C88384B90
:100D700010881988C9F34F12521BC8F34F13354D11
:100D80001B1B354C2D88248800FB02F292FBF5F2E8
:100D900022EAE272824201FB03F393FBF4F323EABB
:100DA000E373A8BF02468B42A8BF0B4602990A8094
:100DB000039A0120138026E7D1230022042138461C
:100DC00064258DF8103006F0CBFA032305AA04A998
:100DD0000095504608F0F0FE01220421384606F046
:100DE000BFFA9DF815309DF816406FF06E0203F0C3
:100DF0007F03E4088DF8102004210022384644EADD
:100E0000431406F0ADFA0323009505AA04A9504641
:100E100008F0D2FE01220421384606F0A1FA9DF81E
:100E200015309DF8165003F07F03ED0845EA431591
:100E300041E700BF001002403C040020A800002051
:100E4000B6000020A0000020A4000020B400002074
:100E5000B0000020A2000020A6000020B200002068
:100E6000D1230022042138468DF8103006F078FA9C
:100E70006423009305AA032304A9504608F09CFEAE
:100E800001220421384606F06BFA9DF815309DF8D2
:100E900016406FF06E0203F07F038DF810200421DE
:100EA00000223846E40844EA431406F059FA642361
:100EB000009305AA032304A9504608F07DFE0122F1
:100EC0000421384606F04CFA9DF815209DF816309E
:100ED00002F07F02DB0840F6FF7543EA42132C1B49
:100EE000ED1AA4B2ADB2E6E66FF06E030022042163
:100EF000384664258DF8103006F032FA032305AA2F
:100F000004A90095504608F057FE012204213846F6
:100F100006F026FA9DF815309DF8164003F07F0381
:100F2000E40844EA4314C4F57F640F34D12300225B
:100F300004213846A4B28DF8103062E710B50121C3
:100F40000446084806F006FA08B1002010BD204605
:100F500005F094FF0121034806F0FCF9B0FA80F097
:100F6000400910BD00000240F8B507461B480022AA
:100F700005464FF4005106F0F3F901224FF4804189
:100F8000284606F0EDF901224FF40051284606F0FC
:100F9000E7F90826802400224FF40051284606F085
:100FA000DFF917EA04034FF001024FF4804104BF58
:100FB0001A464FF48041284608BF284606F0D0F96B
:100FC00001224FF400512846D44006F0C9F9013EF1
:100FD000E1D1BDE8F840012005F050BF0004024017
:100FE000F8B507461B48002205464FF4005106F0AD
:100FF000B7F900224FF48041284606F0B1F90122EA
:101000004FF40051284606F0ABF908268024002250
:101010004FF40051284606F0A3F917EA04034FF0F5
:1010200001024FF4804104BF1A464FF48041284624
:1010300008BF284606F094F901224FF400512846D3
:10104000D44006F08DF9013EE1D1BDE8F840012021
:1010500005F014BF000402405948F8B500224FF4CF
:101060008051044606F07CF90826802500224FF4C2
:101070000051204606F074F915F0B0074FF0010258
:101080004FF48041204602D13A464FF4804106F0A9
:1010900067F901224FF40051204606F061F9002261
:1010A0004FF40051204606F05BF9013E4FEA55052A
:1010B000DCD1434C0826802500224FF40051204605
:1010C00006F04EF915F020074FF001024FF4804171
:1010D000204602D13A464FF4804106F041F9012200
:1010E0004FF40051204606F03BF900224FF4005126
:1010F000204606F035F9013E4FEA5505DCD1304C6B
:101100000826802500224FF40051204606F028F9D9
:1011100015F094074FF001024FF48041204602D1B0
:101120003A464FF4804106F01BF901224FF400517A
:10113000204606F015F900224FF40051204606F033
:101140000FF9013E4FEA5505DCD11D4C08268025DC
:1011500000224FF40051204606F002F915F08307F3
:101160004FF001024FF48041204602D13A464FF43D
:10117000804106F0F5F801224FF40051204606F0B8
:10118000EFF800224FF40051204606F0E9F8013E46
:101190004FEA5505DCD10A4801224FF4805106F090
:1011A000DFF8074800224FF4804106F0D9F8BDE887
:1011B000F840034800224FF4005106F0D1B800BFB8
:1011C000000402404E48F8B500224FF48051044616
:1011D00006F0C6F80826802500224FF4005120466C
:1011E00006F0BEF815F0B0074FF001024FF4804151
:1011F000204602D13A464FF4804106F0B1F8012270
:101200004FF40051204606F0ABF800224FF4005195
:10121000204606F0A5F8013E4FEA5505DCD1384CD2
:101220000826802500224FF40051204606F098F849
:1012300015F020074FF001024FF48041204602D103
:101240003A464FF4804106F08BF801224FF40051EA
:10125000204606F085F800224FF40051204606F0A3
:101260007FF8013E4FEA5505DCD1254C0826802544
:1012700000224FF40051204606F072F815F0940752
:101280004FF001024FF48041204602D13A464FF41C
:10129000804106F065F801224FF40051204606F027
:1012A0005FF800224FF40051204606F059F8013E45
:1012B0004FEA5505DCD1124C082500224FF40051AD
:1012C000204606F04DF800224FF48041204606F0FB
:1012D00047F801224FF40051204606F041F8002261
:1012E0004FF40051204606F03BF8013DE5D1BDE842
:1012F000F840034801224FF4805106F031B800BF96
:1013000000040240F8B5C0EB00113C4C3C4D20708D
:101310008A0002F110002F183A4BD7F804C0AE58DB
:101320002858C3F814C005EB810130322A44CF6934
:101330008D6AD2E901121861C3E90D1218461E60C8
:10134000DF619D6207F05CF900284DD12E482378BB
:101350002E4A2F490260342202FB03F28B188A586E
:10136000D3E901514260DA688560C1601D6959693D
:1013700002619A6945618161DD69196AC2615A6ACF
:10138000056241629D6AD96A82621A8E828693F8EA
:10139000323080F83630C0E90B5106F0FBFC50BB10
:1013A00022781C4B1C4953F832404C6003EBC203BB
:1013B00000225B68CB60CB624FF0404302264FF4C3
:1013C00080658C624B620524FF230F480A86C1E9C1
:1013D0000754C1E905330E610A608A6081F8322042
:1013E00006F048FD18B9F8BD01F0EEFBAEE7BDE828
:1013F000F84001F0E9BB01F0E7FBD1E7B8000020BD
:1014000098DD0108C80000206C020020006801403F
:101410002CE0010868E2010804010020F0B4144B3C
:10142000144C1D78144B03EA002004EBC503C900DB
:10143000D3F804C054F8354001F4FC6140EA0103DC
:1014400043EAD202BCF1000F10D07CB100260B4D54
:10145000374671000023286801339C42425001F155
:101460000201F8D10137BC452644F2D1F0BC7047E7
:10147000B800002068E2010800F8FFFF000000202B
:1014800010B4064A064B127803EBC20453F832201C
:10149000636802605DF8044B0B607047B800002081
:1014A00068E20108F0B5E04B1C78012C87B00ED043
:1014B000023C072C09D8DD480122802105F050FFAD
:1014C000DB480122202105F04BFF07B0F0BD22468A
:1014D000D648802105F044FF2246D548202105F05A
:1014E0003FFFD3480022202105F03AFF2246202169
:1014F000CF48002505F034FFCE4804950026032789
:10150000CDE90055CDE9025501F0F2FC69464FF4F2
:1015100000420123C548CDE90023CDE9026705F06B
:1015200033FD69464FF480420123C048CDE90023D2
:10153000CDE9026705F028FD69464FF4005201230A
:10154000BA48CDE90023CDE9026705F01DFDFFF79C
:1015500039FE2046FFF744FD052005F08FFCFFF71C
:101560007BFDFFF72FFE2820FFF73AFDFFF774FD04
:10157000FFF728FECF20FFF733FD2846FFF7F4FCE6
:101580008120FFF7F1FC3020FFF7EEFCFFF764FD50
:10159000FFF718FEED20FFF723FD6420FFF7E4FCC2
:1015A0000320FFF7E1FC1220FFF7DEFC8120FFF7AC
:1015B000DBFCFFF751FDFFF705FEE820FFF710FD0C
:1015C0008520FFF7D1FC2046FFF7CEFC7920FFF7FE
:1015D000CBFCFFF741FDFFF7F5FDCB20FFF700FD4A
:1015E0003920FFF7C1FC2C20FFF7BEFC2846FFF78F
:1015F000BBFC3420FFF7B8FC0220FFF7B5FCFFF777
:101600002BFDFFF7DFFDF620FFF7EAFC2046FFF792
:10161000ABFC2846FFF7A8FC0620FFF7A5FCFFF768
:101620001BFDFFF7CFFDF720FFF7DAFC2020FFF7C7
:101630009BFCFFF711FDFFF7C5FDEA20FFF7D0FC8B
:101640000620FFF791FC2846FFF78EFCFFF704FD0C
:10165000FFF7B8FDC020FFF7C3FC2620FFF784FC8E
:10166000FFF7FAFCFFF7AEFDC120FFF7B9FC112030
:10167000FFF77AFCFFF7F0FCFFF7A4FDC520FFF7AA
:10168000AFFC3520FFF770FC3E20FFF76DFCFFF745
:10169000E3FCFFF797FDC720FFF7A2FCBE20FFF792
:1016A00063FCFFF7D9FCFFF78DFD3620FFF798FCB0
:1016B0004020FFF759FCFFF7CFFCFFF783FD3A20EE
:1016C000FFF78EFC6020FFF74FFCFFF7C5FCFFF72C
:1016D00079FDB020FFF784FCC020FFF745FCFFF741
:1016E000BBFCFFF76FFDB120FFF77AFC2846FFF740
:1016F0003BFC1B20FFF738FCFFF7AEFCFFF762FD59
:10170000F220FFF76DFC0220FFF72EFCFFF7A4FC90
:10171000FFF758FD2620FFF763FC2046FFF724FC67
:10172000FFF79AFCFFF74EFDE020FFF759FC1F2062
:10173000FFF71AFC1A20FFF717FC1820FFF714FC1C
:101740000A20FFF711FC0F20FFF70EFC0620FFF721
:101750000BFC4520FFF708FC8720FFF705FC322033
:10176000FFF702FC0A20FFF7FFFB0720FFF7FCFB57
:101770000220FFF7F9FB0720FFF7F6FB0520FFF734
:10178000F3FB2846FFF7F0FBFFF766FCFFF71AFDB7
:10179000E120FFF725FC2846FFF7E6FB2520FFF7B1
:1017A000E3FB2720FFF7E0FB0520FFF7DDFB102020
:1017B000FFF7DAFB0920FFF7D7FB3A20FFF7D4FB4E
:1017C0007820FFF7D1FB4D20FFF7CEFB0520FFF778
:1017D000CBFB1820FFF7C8FB0D20FFF7C5FB382017
:1017E000FFF7C2FB3A20FFF7BFFB1F20FFF7BCFB50
:1017F000FFF732FCFFF7E6FC1120FFF7F1FB0A20B0
:1018000005F03CFBFFF728FCFFF7DCFC2920FFF785
:10181000E7FB0A2005F032FBFFF71EFC054801F04C
:101820000DFB07B0F0BD00BFB8000020000402406F
:10183000000C0240E4030020F0B59942BDF814709A
:1018400017D20C4C9042247813D20B4DDFF82CC0E9
:1018500055F834E001FB0E0464000546DCF8006036
:101860000135AA42375104F10204F7D101318B420C
:10187000F0D1F0BDB800002068E2010800000020AF
:1018800030B4064B064C1D78064B54F835401B68A7
:1018900004FB010130BC43F811207047B800002060
:1018A00068E2010800000020014B1860704700BF8B
:1018B000BC000020014B5860704700BFBC000020F6
:1018C000014B9860704700BFBC0000202DE9F04F2D
:1018D0002E4EB3689D88B3F806C01B68EC1D203AF5
:1018E000E41085B00CFB02F2CDE90001C5EBC407A2
:1018F00004FB02F2BCF1000F3ED02548368890F878
:1019000000B0DFF890A0DFF890900296681EF9B260
:101910001A4403460B4403930020019B012C03EB64
:1019200000081FFA88F82AD0022C2AD051781378A0
:101930009678090241EA03433343CDB100211E46A4
:10194000039B01275B1A07FA03F3009F334201EB65
:10195000070E01F1010109D0D9F800705AF83B30A7
:1019600003FB08E3BE46029F4EF813708D42E7D199
:10197000013084452244D0D105B0BDE8F08F137802
:10198000DBE713885BBA9BB2D7E700BFBC0000203F
:10199000B800002068E20108000000202DE9F843AB
:1019A0001746154617F8012B04460E46002A42D06A
:1019B000002117F8010B01310028FAD11F48DFF888
:1019C00080908768D9F800C0B7F804E0BCFBFEF04F
:1019D000012B29D0022B04D1411A11FB0EF10C1B53
:1019E000A4B223B2002B1FFA8CFCD8BF0124E64519
:1019F00018D8BAB1C5F1010831462046FFF766FF95
:101A0000B7F804C0D9F8001008EB05039BB20CFB33
:101A100013139BB26444634515F8012FA4B201D39C
:101A2000002AE9D1BDE8F883411A0EFB01F104EB6D
:101A30005104A4B2D5E71146C0E700BFBC000020A6
:101A40008C390020024801224FF4804105F088BC07
:101A500000080240024800224FF4804105F080BC9B
:101A600000080240024801224FF4004105F078BC12
:101A700000080240024800224FF4004105F070BC0B
:101A8000000802400FB400B5ADF20C4D0DF58262B6
:101A900002A852F8041B01920BF056FD02A8FEF7B3
:101AA000AFFB02A982B24FF47A73044808F0A6FA99
:101AB0000DF20C4D5DF804EB04B07047D804002023
:101AC000F8B5262303FB00F4394B3A4D195D3A482B
:101AD00029721C44FFF7D6FF617838486972FFF716
:101AE000D1FFA1783648A972FFF7CCFFE1783548DD
:101AF000E972FFF7C7FFA1883348A981FFF7C2FF4A
:101B0000E1883248E981FFF7BDFF21893048298209
:101B1000FFF7B8FF61892F486982FFF7B3FFA189FA
:101B20002D48A982FFF7AEFFE1892C48E982FFF733
:101B3000A9FF218A2A482983FFF7A4FF618A29483F
:101B40006983FFF79FFFA18A2748A983FFF79AFFC0
:101B5000E18A2648E983FFF795FF218B2448254F2A
:101B60002984FFF78FFF618B2348244E6984FFF798
:101B700089FFA18B2248A984FFF784FFE18BE984C8
:101B80003846FFF77FFF218C29853046FFF77AFF23
:101B9000618C69853846FFF775FFA18CA9853046B1
:101BA000FFF770FF2846BDE8F84001F08DBB00BF8D
:101BB00034E4010824090020C0E20108D0E2010851
:101BC000E8E2010800E3010818E3010830E3010836
:101BD00048E3010858E301086CE3010880E30108C9
:101BE00094E30108A4E30108B8E30108CCE3010889
:101BF000E0E3010810E40108ECE3010824E4010833
:101C0000FCE30108054B10B4262404FB0030848853
:101C1000C3880C605DF8044B1360704734E401081E
:101C200010B53F493F4800220AF0BAFF044600B908
:101C300010BD3D48013CFFF725FF122C6AD8DFE8B4
:101C400004F00F14191E23282D32373C41464B5007
:101C5000555A5F640A003548FFF714FF012010BD94
:101C60003348FFF70FFF012010BD3248FFF70AFF8E
:101C7000012010BD3048FFF705FF012010BD2F489F
:101C8000FFF700FF012010BD2D48FFF7FBFE0120EC
:101C900010BD2C48FFF7F6FE012010BD2A48FFF7C3
:101CA000F1FE012010BD2948FFF7ECFE012010BD18
:101CB0002748FFF7E7FE012010BD2648FFF7E2FEA8
:101CC000012010BD2448FFF7DDFE012010BD234890
:101CD000FFF7D8FE012010BD2148FFF7D3FE0120F9
:101CE00010BD2048FFF7CEFE012010BD1E48FFF7B3
:101CF000C9FE012010BD1D48FFF7C4FE012010BD24
:101D00001B48FFF7BFFE012010BD1A48FFF7BAFEBF
:101D1000012010BD1848FFF7B5FE012010BD00BF1F
:101D2000A4390020D83B002040E5010814E8010850
:101D30004CE5010884E5010898E50108B8E50108CB
:101D4000D0E50108E8E5010808E6010844E60108D5
:101D50006CE6010894E60108BCE60108E0E601082B
:101D6000FCE601081CE7010844E7010888E70108D0
:101D7000C8E70108F4E7010830E80108D0B5234CB2
:101D800086B0012610270023CDE9026702A94FF48F
:101D900080520126002720460193CDE9046707F011
:101DA000FBFC642005F06AF8CDE9046702261027E1
:101DB000CDE9026702A920464FF48052032610277E
:101DC00007F0EAFCCDE9026702A920464FF48052F1
:101DD00004260027CDE9046707F0DEFC40F231233A
:101DE0000193019B059302A901234FF480522046E1
:101DF000042610270493CDE9026707F0CDFC2046A6
:101E000040F26A5107F0E0FC06B0D0BDE4010020CA
:101E100030B51A4889B0FFF735FEFFF7AFFF184815
:101E2000184B0360042510234FF48054C0E903537A
:101E3000446207250224CDE900454FF4C0724FF4F7
:101E40004061042406250023CDE902458261016238
:101E50000222022402256946C0E90133CDE9044586
:101E60004361C3618362069207F074FC08B909B04C
:101E700030BD00F0A9FE09B030BD00BF38E8010850
:101E8000E4010020400100A0F0B53A4B052889B0DC
:101E900018703DD9063803283DD80022082136485D
:101EA00005F05EFA642004F0E9FF012208213248BF
:101EB00005F056FA4FF4FA6004F0E0FF04AD012398
:101EC0006422CDE90132822131222C48009505F0AF
:101ED000DDFD9DF810102A48FFF7D4FD274A92F83F
:101EE0003D30242BFBD064220E23CDE90132009536
:101EF000012320228221214805F0C8FDBDF81220CF
:101F0000BDF810101F48FFF7BDFD002009B0F0BD5F
:101F100020B909B0F0BD002009B0F0BD00220821B1
:101F20001548ADF8102005F01BFA642004F0A6FF58
:101F30001148124F0122082105F012FA4FF4FA60FD
:101F400004F09CFF062404AD642602232A46009672
:101F50007021384605F052FC0346621E3220002BE9
:101F6000D9D012F0FF0402D004F088FFEDE7012081
:101F700009B0F0BD38010020001002401802002016
:101F800050E8010860E8010810B4064A064B1278D0
:101F900003EB820433F82220638802605DF8044B6F
:101FA0000B6070473801002080E80108A64B1B78C1
:101FB000063B032B5AD830B50023A44A436095B0A2
:101FC000044692F83D30242BFBD06421322204AB2E
:101FD000CDE9012100939D4801231022822105F0C3
:101FE00055FD9DF8113003F0F003402B54D09DF8BF
:101FF000163003F0F003402B65D09DF81B3003F042
:10200000F003402B76D09DF8203003F0F003402BF6
:1020100000F088809DF8253003F0F003402B00F09D
:1020200099809DF82A3003F0F003402B00F0AA803D
:102030009DF82F3003F0F003402B00F0BB809DF89B
:10204000343003F0F003402B00F0CC809DF83930A1
:1020500003F0F003402B00F0DD809DF83E3003F0EC
:10206000F003402B04D0002015B030BD0020704795
:102070009DF8420063689DF840509DF83F109DF820
:10208000412041EA052142EA002201330020C4E94F
:102090001412636015B030BD63689DF813509DF84D
:1020A00012109DF815009DF81420013363609DF80F
:1020B000163003F0F00341EA052142EA0022402BEA
:1020C000C4E9021299D163689DF818509DF8171061
:1020D0009DF81A009DF81920013363609DF81B30AC
:1020E00003F0F00341EA052142EA0022402BC4E953
:1020F000041288D163689DF81D509DF81C109DF84E
:102100001F009DF81E20013363609DF8203003F00E
:10211000F00341EA052142EA0022402BC4E90612FD
:102120007FF478AF63689DF822509DF821109DF8E8
:1021300024009DF82320013363609DF8253003F0CF
:10214000F00341EA052142EA0022402BC4E90812CB
:102150007FF467AF63689DF827509DF826109DF8BF
:1021600029009DF82820013363609DF82A3003F090
:10217000F00341EA052142EA0022402BC4E90A1299
:102180007FF456AF63689DF82C509DF82B109DF896
:102190002E009DF82D20013363609DF82F3003F051
:1021A000F00341EA052142EA0022402BC4E90C1267
:1021B0007FF445AF63689DF831509DF830109DF86D
:1021C00033009DF83220013363609DF8343003F012
:1021D000F00341EA052142EA0022402BC4E90E1235
:1021E0007FF434AF63689DF836509DF835109DF844
:1021F00038009DF83720013363609DF8393003F0D3
:10220000F00341EA052142EA0022402BC4E9101202
:102210007FF423AF63689DF83B509DF83A109DF81A
:102220003D009DF83C20013363609DF83E3003F093
:10223000F00341EA052142EA0022402BC4E91212D0
:102240007FF411AF14E700BF38010020180200200E
:1022500030B51848184B0360082410254023C4608B
:102260004FF4005489B0C0E9045384620725022466
:10227000CDE900454FF4C0724FF4006104240725F6
:102280000023CDE902458261016202220324022576
:102290006946C0E90133CDE90445C3614362069252
:1022A00007F058FA08B909B030BD00F08DFC09B04C
:1022B00030BD00BFE4010020400100A02E4B1A6891
:1022C00002B17047F0B589B02C4901920120186025
:1022D0008B6B2B4843F001038B638B6B03F0010383
:1022E000002403250C26019302A94FF63F02022386
:1022F000CDE90223CDE90445019F069604F044FE92
:1023000002A90C2202231F480696CDE90223CDE93B
:10231000044504F039FE02A9202202231A48069639
:10232000CDE90223CDE9044504F02EFE02A948F2CE
:102330003712022315480696CDE90223CDE904455C
:1023400004F022FE02A94FF683720223104806967B
:10235000CDE90223CDE9044504F016FE4CF20372E8
:1023600002230C48069602A9CDE90445CDE90223D3
:1023700004F00AFE09B0F0BD3C0100200038024024
:102380000014024000080240001C024000180240F5
:1023900000100240000C02402DE9F04F002791B0E0
:1023A000CDE90A77CDE90C778E4901970E97086B36
:1023B0008D4BDFF84492DFF84482DFF844B28B4E55
:1023C000DFF840A240F010000863086B00F0100036
:1023D000019001980297086B40F480700863086BC5
:1023E00000F48070029002980397086B40F004009C
:1023F0000863086B00F00400039003980497086BCF
:1024000040F020000863086B00F02000049004985E
:102410000597086B40F080000863086B00F08000AF
:10242000059005980697086B40F001000863086B5B
:1024300000F00100069006980797086B40F0020034
:102440000863086B00F00200079007980897086B74
:1024500040F040000863086B00F0400008900898C6
:102460000997086B40F008000863096B01F0080148
:10247000184609913A460C21099C04F071FF3A462E
:1024800048464FF4404104F06BFF3A464046402135
:1024900004F066FF3A4658464FF4845104F060FF5A
:1024A0003A463046022104F05BFF3A4650464FF46C
:1024B000004104F055FF3A464D48B02104F050FF6A
:1024C000494B0024002518460AA90C220123CDE916
:1024D0000A23CDE90C4504F057FD0AA930464FF414
:1024E00080720023CDE90A230C9704F04DFD0AA960
:1024F00048464FF400520023CDE90A230C9704F01C
:1025000043FD48460AA94FF440420123CDE90C455A
:10251000CDE90A2304F038FD4FF0010C0AA950461A
:1025200040F205120023CDF830C0CDE90A2304F0B3
:102530002BFD012340220AA94046CDE90A23CDE91B
:102540000C454FF0000904F01FFD40460AA94FF06A
:102550008008CDE90A890C974FF4845804F014FDE3
:102560004FF0010958460AA9CDE90C45CDE90A8981
:1025700004F00AFD4FF002080AA930464FF00109A5
:10258000CDE90C45CDE90A8904F0FEFC4FF4004882
:1025900050460AA94FF00109CDE90C45CDE90A8959
:1025A00004F0F2FC4FF0B008CDE90C450AA9104840
:1025B000104D4FF00109CDE90A89202404F0E4FC14
:1025C0000AA93046CDE90A450C9704F0DDFC3A46ED
:1025D0003946172004F078FC172004F0ADFC11B048
:1025E000BDE8F08F00380240001002400020024099
:1025F000000C02400000111000080240001C0240C4
:1026000000040240000002400B480C4908B50C4B86
:1026100003604FF480420023C0E90233C0E9053370
:10262000C0E907334160026105F024F800B908BD34
:10263000BDE8084000F0C8BA18020020801A060061
:102640000054004070B50268184B88B000249A42CC
:10265000CDE90244CDE90444069401D008B070BD30
:10266000134D00942B6B134843F002032B632B6B29
:1026700003F0020300934FF440721223CDE90223CA
:1026800001220323CDE9042302A904230693009E1B
:1026900004F07AFC01942B6C43F400132B642B6C34
:1026A00003F400130193019B08B070BD0054004077
:1026B000003802400004024030B58FB034220021BF
:1026C00068460AF0D9FE2948294B03604FF0805331
:1026D0002C224FF4B6740361FD230D21C0E9094398
:1026E000C261002340F273120162C2624FF4827130
:1026F00002228386C0E90133C0E905220163C36079
:1027000080F8363005F046FB48BB00244FF4806566
:10271000CDE9004500244FF41675CDE902450224A9
:10272000FF25CDE90445FF244FF48065CDE906453A
:1027300005244FF04045CDE9084500224FF4806460
:102740004FF416750948ADF830206946CDE90A45C1
:102750008DF8322005F08EFB20B90FB030BD00F0AF
:1027600033FAD2E700F030FA0FB030BD6C0200202F
:10277000006801402DE9F04F0168B04B91B0002294
:102780009942CDE90A22CDE90C220E9202D011B075
:10279000BDE8F08F03F550430092596CA84841F012
:1027A00080615964596C01F0806100910099019237
:1027B000196B41F010011963196B01F010010191BF
:1027C00001990292196B41F480711963196B01F43C
:1027D0008071029102990392196B41F020011963F3
:1027E000196B01F02001039103990492196B41F0D8
:1027F00004011963196B01F0040104910499059215
:10280000196B41F001011963196B01F00101059188
:1028100005990692196B41F080011963196B01F05B
:102820008001069106990792196B41F00201196324
:10283000196B01F00201079107990892196B41F099
:1028400040011963196B01F0400108910899099240
:10285000196B41F0080119631B6B03F008030E2488
:102860000026002709934FF0700A4FF0020B0AA9C7
:10287000CDE90C67099B0E94CDE90AAB04F084FB0B
:1028800040F2D16202230AA96E480E94CDE90A23D0
:102890004FF480684FF00209CDE90C6704F074FB37
:1028A0000AA969480E94CDE90C67CDE90A8904F0BC
:1028B0006BFB0AA98122022364480E94CDE90C67C0
:1028C000CDE90A2304F060FB0AA96A2202236048CA
:1028D0000E94CDE90C67CDE90A2304F055FB0AA953
:1028E0001C2202235B480E940925CDE90C67CDE933
:1028F0000A2304F049FB0AA90322022356480E9535
:10290000CDE90C67CDE90A2304F03EFB0AA94FF498
:10291000C652022351480E94CDE90C67CDE90A2333
:1029200004F032FB482202230AA94D480E94CDE957
:102930000A23CDE90C6704F027FB0AA947480E9546
:10294000CDE90C67CDE90A890026032704F01CFBBA
:102950000AA93B480E94CDE90AABCDE90C6704F017
:1029600013FB40F2D16202230AA936480E94CDE946
:102970000A23CDE90C6704F007FB0AA932480E943C
:10298000CDE90A89CDE90C6704F0FEFA0AA9812293
:1029900002232E480E94CDE90A23CDE90C6704F0FA
:1029A000F3FA0AA96A22022329480E94CDE90A23E0
:1029B000CDE90C6704F0E8FA0AA91C220223254895
:1029C0000E94CDE90A23CDE90C6704F0DDFA0AA9DB
:1029D0000322022320480E95CDE90A23CDE90C6796
:1029E00004F0D2FA0AA94FF4C65202231B480E94EF
:1029F000CDE90A23CDE90C6704F0C6FA0223482288
:102A00000AA917480E94CDE90A23CDE90C6704F012
:102A1000BBFA0AA911480E95CDE90A89CDE90C67E0
:102A200004F0B2FA00221146582004F04DFA582062
:102A300004F082FA11B0BDE8F08F00BF00680140D9
:102A40000010024000200240001402400008024032
:102A500000000240001C0240000402400018024036
:102A6000000C0240F0B50024A7B0214616A83C2275
:102A7000CDE90A44CDE90C44CDE90244CDE9044452
:102A800006940AF0F9FC2A4A0094116C294B41F093
:102A900080511164126C02F080520092009A0194ED
:102AA0001A6842F440421A601B6803F440430193E1
:102AB00001224FF48033CDE9082302224FF4800332
:102AC000CDE90E230622B423CDE9102302210222F0
:102AD000072308A80F260227CDE912231491019D90
:102AE00005F0FCFE05F0F8FBCDE902674FF48053DA
:102AF00002A8052100264FF4A057CDE904670693EC
:102B00004FF4C47505F0BEFCC02604214FF44032DA
:102B10004FF0006316A80827CDE91A67249416958C
:102B20001D912092239305F06BFD27B0F0BD00BFEF
:102B3000003802400070004008B504F073F91E4BE5
:102B40004FF480329A6062B6FFF78CFFFFF724FCE7
:102B5000FFF77EFBFFF758FDFFF7AEFD00F036F8FC
:102B600000F0C6F800F026F900F046F900F050FA3F
:102B700000F06AFA08F092FD00F0E0FAFFF748F979
:102B80000E48FEF77FFF0E48FEF77CFF4FF49612CB
:102B9000FF214FF040400AF06FFC0848FEF772FF3B
:102BA0000848FEF76FFF02F081FF142004F066F979
:102BB00003F038FCFCE700BF00ED00E06003020812
:102BC0007803020898030208704700BF0C480D4BB9
:102BD00010B503600423012417214FF4E062436021
:102BE0000023C0E90412C0E906338460C3600362B5
:102BF00005F0B0FB00B910BDBDE81040FFF7E4BF21
:102C000014030020001000A070B50168334A8AB098
:102C100000239142CDE90433CDE90633089301D076
:102C20000AB070BD2E4A0093916B2E4841F002010C
:102C30009163916B01F00201009100990193116B76
:102C400041F020011163116B01F020010191019904
:102C50000293116B41F001011163116B01F001014D
:102C6000029102990393136B43F002031363136BF6
:102C7000092103F00203002403250393C022022349
:102C8000089104A9CDE90423039ECDE906450A264F
:102C900004F07AF94FF44072022304A9114808960F
:102CA000CDE90423CDE9064504F06EF98022022324
:102CB00004A90D480896CDE90423CDE9064504F0A2
:102CC00063F9402202230948089604A9CDE9064584
:102CD000CDE9042304F058F90AB070BD001000A03B
:102CE000003802400014024000000240000402408C
:102CF000064B074A1A604FF480410022C3E90122C3
:102D0000C3E9032259619A61704700BF6003002044
:102D1000002C014070B50168234A8AB0002391421B
:102D2000CDE90433CDE90633089301D00AB070BD74
:102D300002F586320193516C1C4841F400615164E4
:102D4000516C01F40061019101990293116B41F002
:102D500004011163116B01F00401029102990393C4
:102D6000136B43F008031363136B03F0080303931F
:102D700003994FF4F8520223002403250C2604A9DA
:102D8000CDE90423CDE90645089604F0FDF80422B8
:102D900002230748089604A9CDE90645CDE9042396
:102DA00004F0F2F80AB070BD002C014000080240A7
:102DB000000C02400E480F4B10B503604FF48273B5
:102DC0004FF4007420210A2243600023C0E9064129
:102DD000C0E90233C0E90433C0E90833C262836248
:102DE00006F066FD00B910BDBDE81040FFF7ECBE6F
:102DF0003C040020003001400E480F4B10B54FF44A
:102E0000007103604FF4827400230A22C0E9023388
:102E1000C0E90433C0E90733C0E909334460816184
:102E2000C26206F045FD00B910BDBDE81040FFF7D5
:102E3000CBBE00BFE40300200038004030B502687C
:102E400027498BB000238A42CDE90433CDE906330C
:102E5000089304D023498A4226D00BB030BD224AC1
:102E60000093516C214841F480515164516C01F43C
:102E70008051009100990193136B43F00203136397
:102E8000136B03F002030193019A04A9382402256D
:102E90000523089300220323CDE90445CDE9062349
:102EA00004F072F80BB030BD0F4A0293116C0F485A
:102EB00041F480411164116C01F480410291029946
:102EC0000393136B43F002031363136B03F00203CA
:102ED0000393039A04A94FF4604402250523D8E71D
:102EE0000030014000380040003802400004024039
:102EF0000E4A0368934203D00D4A93420AD07047AA
:102F000002F584320B48536C23F480535364382108
:102F100004F062B902F500320648136C23F48043D2
:102F200013644FF4604104F057B900BF0030014012
:102F3000003800400004024082B00C4B0021009198
:102F40005A6C42F480425A645A6C02F480420092F5
:102F5000009A01911A6C42F080521A641B6C03F0C3
:102F600080530193019B02B0704700BF00380240BC
:102F7000704700BFFEE700BFFEE700BFFEE700BFEF
:102F8000FEE700BF704700BF704700BF704700BF3B
:102F900003F062BF08B5202004F0E8F903480123DC
:102FA0000360BDE80840FFF701B800BF8C010020B6
:102FB0000C490D4A0B6810B50C4C121B2BB1184470
:102FC000904207D80860184610BD094B0B601844A2
:102FD0009042F7D90AF00AFA0C2303604FF0FF334E
:102FE000184610BD4001002000000520000400002C
:102FF000183E0020054BD3F888204FF0006142F4C2
:103000007002C3F888209960704700BF00ED00E0AF
:103010000B4808B50B4B03604FF4E13100230C2241
:10302000C0E90233C0E9063341604261036106F042
:1030300049FF00B908BDBDE80840FFF7C5BD00BFA6
:1030400094040020004800400B4808B50B4B036077
:103050004FF4E13100230C22C0E90233C0E906330A
:1030600041604261036106F02DFF00B908BDBDE873
:103070000840FFF7A9BD00BFD8040020001401409C
:1030800030B5026828498BB000238A42CDE9043369
:10309000CDE90633089304D024498A4227D00BB0E7
:1030A00030BD234A0093116C224841F48021116401
:1030B000116C01F48021009100990193136B43F08E
:1030C00002031363136B03F002030193019A04A933
:1030D0004FF4406402250723089300220323CDE91F
:1030E0000445CDE9062303F04FFF0BB030BD104A75
:1030F0000293516C104841F020015164516C01F071
:103100002001029102990393136B43F04003136370
:10311000136B03F040030393039A04A94FF4844410
:1031200002250823D8E700BF0048004000140140F2
:103130000038024000040240001802400C4810B55C
:10314000002302224FF0A0440621C0E90041C0E95B
:103150000733C0E90B33C26082610361436205F04B
:1031600011F800B910BDBDE81040FFF72DBD00BF3C
:103170001C050020F0B5036889B00024B3F1A04F0E
:10318000CDE90244CDE90444069401D009B0F0BD74
:10319000194D00942B6B194843F001032B632B6BE3
:1031A000049403F0010300934FF40072009900238C
:1031B00002A94FF4C0560227CDE9022303F0E4FE32
:1031C000CDE902670A230D48069302A900260327CA
:1031D000CDE9046703F0D8FE6B6B43F080036B63AB
:1031E00001946B6C43F480436B646B6C03F4804319
:1031F0000193019B09B0F0BD00380240000002407D
:10320000DFF834D0002103E00C4B5B58435004310D
:103210000B480C4B42189A42F6D30B4A02E00023AB
:1032200042F8043B094B9A42F9D3FFF7E3FE0AF058
:10323000E3F8FFF781FC704700000520340C02081A
:10324000000000208000002080000020183E0020A8
:10325000FEE7000070B5104D2B68B3F5805F0646A1
:103260000C460AD20D4A13441C603046214602F037
:103270003FFA2B6804332B6070BD0948FEF702FC4F
:103280002A681AB90022054B2A60EDE70349304647
:1032900002F028F9F6E700BF701900206C09002041
:1032A000D003020810B5064C226812B9002323602F
:1032B00010BD044901F08AFE0023236010BD00BF49
:1032C000701900206C090020F0B583B0044601A8F5
:1032D00001F0F6FA204601F0F9FA2046012101F04A
:1032E0000BFD2046682101F0EBFC4FF4967001F0D5
:1032F00021FDA37A002B40F02E814421204601F0CD
:10330000DFFC0621204601F083FD0021204601F06C
:10331000D7FC4FF4967001F00DFD207A974B984939
:10332000984A994F994E012818BF1946204601F036
:103330007BFC217A204601290CBF3946314601F039
:10334000B7FB7C280ED0237A012B3146204608BFDC
:10335000394601F0ADFB05464FF4967001F0EAFCEA
:103360007C2DF0D1217A8A4F8A4E204601290CBF4C
:103370003946314601F09CFB68B1237A012B314676
:10338000204608BF394601F093FB0546642001F052
:10339000D1FC002DF1D1628D7F49204601F014FC53
:1033A00094F82C207D49204601F0E4FB207A7C4BE8
:1033B0007C49228A012818BF1946204601F004FCE6
:1033C000207A794B7949628A012818BF194620462C
:1033D00001F0FAFB207A764B7649A28A012818BFC1
:1033E0001946204601F0F0FB207A734B7349E28ABC
:1033F000012818BF1946204601F0E6FB207A704BE1
:103400007049228B012818BF1946204601F0DCFBC9
:10341000207A6D4B6D49628B012818BF19462046F2
:1034200001F0D2FB207A6A4B6A49A28B012818BFAF
:103430001946204601F0C8FB207A674B6749E28BAA
:10344000012818BF1946204601F0BEFB207A644BC4
:10345000644994F82220012818BF1946204601F03B
:1034600089FB207A604B614994F82420012818BF19
:103470001946204601F07EFB207A5D4B5D49A2890A
:10348000012818BF1946204601F09EFB207A5A4BAE
:103490005A49E289012818BF1946204601F094FBD9
:1034A000207A574B5749E28C012818BF194620460D
:1034B00001F08AFB207A544B5449228D012818BF11
:1034C0001946204601F080FB207A514B514942F2C7
:1034D0001072012818BF1946204601F0A5FB207A7A
:1034E0004D4B4E498022012818BF1946204601F055
:1034F00041FBA37A002B34D1207A494B4949FF2262
:10350000012818BF1946204601F034FB207A4649AD
:10351000464BFF22012818BF1946204601F02AFB1E
:10352000204602F0BBF9207A414B424994F8202012
:10353000012818BF1946204601F01CFB217A3E4A9B
:103540003E4B204601290CBF1146194601F0DCFA1A
:10355000E08503B0F0BD01220021204601F0B8FC57
:10356000CBE6204636494FF6FF7201F02DFB354978
:103570008022204601F028FBD2E700BF0C2030005B
:103580000C24100000A24A04002410000020300087
:103590001C24100020203000142630001826300093
:1035A0002C20300028241000302030002C24100063
:1035B00038203000342410003C2030003824100023
:1035C000402030003C2410004420300040241000F3
:1035D0004C20300048241000502030004C241000B3
:1035E00064203000602410006C203000682410003B
:1035F00034203000302410004820300044241000D3
:103600006820300064241000602030005C2410002A
:10361000D0203000C0241000D4203000C42410007A
:10362000902030008C241000902410009420300052
:10363000702030006C241000E8241000FC203000C2
:10364000982030009C2030002DE9F041444C1E466B
:1036500015468846074600F02DFF236846EA0841D4
:1036600041EA0522B3F5805F42F000753AD23D4E43
:1036700033441D602946384602F03AF82368043383
:10368000B3F5805F23604ED2334437491960384622
:1036900002F02EF823680433B3F5805F236039D23B
:1036A000334400211960384602F022F823680433BD
:1036B000B3F5805F236024D21E444FF00451384696
:1036C000316002F015F8236838460433236000F0B7
:1036D0005FFE226882B9002338462360BDE8F041CE
:1036E00001F074BE2148FEF7CDF9226822BB1D4EC1
:1036F000002233462260BCE71A49384601F066FCD6
:10370000E9E71A48FEF7BEF9226822BB0023154EEE
:103710002360D2E71548FEF7B5F92268B2B9002256
:10372000104B2260BDE71148FEF7ACF9226842B9A0
:1037300000220C4B2260A8E70A49384601F0D2FE6D
:10374000D5E70849384601F0CDFEF1E7054938468E
:1037500001F0C8FEE3E70349384601F0C3FED5E7B0
:10376000701900206C09002007000026D003020811
:103770002DE9F04FCC4DCD4BCD4C2868B3F80CA0C3
:10378000B3F80EB087B000F095FE23682F68B3F54C
:10379000805F80F0CA82C74E33446FF07D41384667
:1037A000196001F0A5FF23682F680433B3F5805F2B
:1037B000236080F01F833344BF491960384601F00D
:1037C00097FF23682868CDF800B000210322CDE9D7
:1037D00001121F1D0A465346276000F0F1FD2868BC
:1037E00000210BFB0AF200F021FE23682F68B3F5DD
:1037F000805F80F0F0823344B0491960384601F0B0
:1038000077FF23682F680433B3F5805F236080F06F
:10381000D9823344AA491960384601F069FF236808
:103820002F680433B3F5805F236080F0C182334496
:103830004FF080713846196001F05AFF23682F68F5
:103840000433B3F5805F236080F0A88233444FF0E7
:10385000C0613846196001F04BFF9A4F2368D5F8D4
:103860000080CBF30802043307EA4A271743059286
:10387000B3F5805F4FEA4A2247F0E3672360049282
:1038800080F0828233441F604046394601F030FFA9
:103890002368D5F800904FEA1A27043307F00C0785
:1038A000CBF3412847EA0807B3F5805F47F020577C
:1038B000236080F05F82334439461F60484601F040
:1038C00017FF814A049923682F6801EA0209059AC3
:1038D000043349EA0209B3F5805F49F000692360C7
:1038E00080F03E823344C3F800903846494601F0E8
:1038F000FFFE2368D5F800904FEADA1707F00C07AF
:10390000043347EA0808B3F5805F48F02457236082
:1039100080F01B823344484639461F6001F0E8FEC0
:10392000236828680433236000F032FD2268286889
:10393000002A40F005824FF00008C4F8008001F032
:1039400045FD624BDFF894915A4F03EACA4A47F6A5
:10395000F07303EA0B1B4AEA0B0B4BF0804B286811
:1039600000F0A8FD2368D5F800A0B3F5805F80F0D3
:10397000918133446FF07D415046196001F0B8FEEB
:103980002368D5F800A00433B3F5805F236080F08E
:103990005981334448491960504601F0A9FE236813
:1039A000D5F800A00433B3F5805F236080F05E811A
:1039B000334447491960504601F09AFE2368D5F810
:1039C00000A00433B3F5805F236080F02781334487
:1039D0004FF080415046196001F08AFE2368D5F807
:1039E00000A00433B3F5805F236080F04981334445
:1039F0005046C3F800B0594601F07AFE2368D5F866
:103A000000A00433B3F5805F236080F0118133445C
:103A100030491960504601F06BFE244B2068DA896A
:103A200099892D4B01934FF4C06300F1040C00936E
:103A30002868C4F800C01F235208490800F006FC9B
:103A40002368D5F800A0B3F5805F80F0058133448A
:103A50004FF080615046196001F04AFE2368D5F8A6
:103A600000A00433B3F5805F236080F0CD80334441
:103A700012491960504601F03BFE2368D5F800A0BA
:103A80000433B3F5805F236080F0B48033440C4985
:103A90001960504601F02CFE2368D5F800A00433CD
:103AA000B3F5805F1CE000BF6C19002024090020E2
:103AB000701900206C090020070000260100001F7B
:103AC0000100000500FE070000FE03000000F83FB3
:103AD0000900001F00960004E4030208D003020856
:103AE000236073D233444FF0C0615046196001F037
:103AF000FFFD2368D5F800A00433B3F5805F236091
:103B00006ED233444FF080415046196001F0F0FD11
:103B10002368D5F800A00433B3F5805F23604BD24F
:103B200033444FF004515046196001F0E1FD236821
:103B3000AD4804330421236003F00CFC22682B6899
:103B4000B2F5805F82462BD232441846C2F800801C
:103B5000002101F0CDFD236828680433236000F0C4
:103B600017FC226828685AB901F030FC322001F0B5
:103B7000E1F8BAF1000F7FF4F2AE07B0BDE8F08FC4
:103B8000394601F023FA2868C4F8008001F01EFCD1
:103B9000322001F0CFF8BAF1000F7FF4E0AEECE78D
:103BA00048460493FDF76EFF2268049B002A7AD1F1
:103BB000C4F800803A46C8E74846FDF763FF22682C
:103BC000002A76D1C4F800803B46AAE74846FDF7B4
:103BD00059FF2268002A76D1C4F800803B4682E76C
:103BE0004846FDF74FFF2268002A67D1C4F80080DD
:103BF0003B4687E74846FDF745FF2268002A6CD11F
:103C0000C4F800803B4642E74846FDF73BFF226888
:103C1000002A76D1C4F800803B4629E74846FDF7E4
:103C200031FF2268002A62D1C4F800803B46CFE60B
:103C30004846FDF727FF2268002A6CD1C4F80080AF
:103C40003B46E5E64846FDF71DFF2268002A49D1BC
:103C5000C4F800803B469DE64846FDF713FF226806
:103C6000002A53D1C4F800803B46F1E64846FDF7F0
:103C700009FF2268002A3FD1C4F800803B4698E63D
:103C80004846FDF7FFFE2268002A49D1C4F80080AB
:103C90003B46ADE64846FDF7F5FE2268C2B9C4F8DA
:103CA00000803B4666E61846394601F01BFC049B43
:103CB0007EE73946504601F015FC83E73946504609
:103CC00001F010FC92E73946504601F00BFC83E707
:103CD0003946504601F006FCE1E73946504601F00E
:103CE00001FC8DE73946504601F0FCFBB0E7394650
:103CF000504601F0F7FB97E73946504601F0F2FBDA
:103D0000BAE73946504601F0EDFB83E739465046A5
:103D100001F0E8FBA6E73946504601F0E3FB8DE7EA
:103D20003946504601F0DEFBB0E73048FDF7AAFE09
:103D30002268002A67D12E4E0022334622602CE5ED
:103D40002B4901F043F92868F5E52848FDF79AFE6C
:103D50002268002A40F084800022254B2260DAE5A8
:103D60002248FDF78FFE2268002A74D10022204BE2
:103D70002260B8E51D48FDF785FE2268002A65D15E
:103D800000221B4B226097E51848FDF77BFE226856
:103D9000002A56D10022164B226074E51348FDF725
:103DA00071FE2268002A47D10022114B22604EE5A5
:103DB0000E48FDF767FE2268002A38D100220C4B1E
:103DC000226035E50948FDF75DFE226852BB0022FE
:103DD000074B22601EE50548FDF754FE2268E2B954
:103DE0000022034B226007E500000240D0030208D6
:103DF0006C0900201D48FDF745FE226842B90022EB
:103E00001B4B2260D8E41A49384601F06BFB92E75D
:103E10001749384601F066FBF1E71549384601F0CD
:103E200061FBDDE71249384601F05CFBCFE7104942
:103E3000384601F057FBC1E70D49384601F052FB07
:103E4000B2E70B49404601F04DFBA3E7084948465D
:103E500001F048FB94E70649384601F043FB85E74B
:103E60000349484601F03EFB76E700BFD003020855
:103E70006C0900202DE9F043ADF5813D91B08846F5
:103E800016460146012204A81D4608F0C9FE0799FE
:103E9000A94233D3B5F1807F3DD86DB30DF502470C
:103EA000DFF89890403701E02D1B25D0B5F5004F85
:103EB0002C4628BF4FF40044324623464146D9F8E9
:103EC0000000009700F0BCFC03AB224690A904A8B8
:103ED00009F0A2F82246394690A809F0B1FA264422
:103EE0000028E1D0002404A809F0CEF920460DF501
:103EF000813D11B0BDE8F0830124F4E70D48FDF7E2
:103F0000C1FD04A809F0C0F9002420460DF5813D4B
:103F100011B0BDE8F0834FF080710748FDF7B2FDA6
:103F200004A809F0B1F9002420460DF5813D11B037
:103F3000BDE8F083F4030208100402086C190020A5
:103F400010B51D4C1D49206800F0B2FD01281BD0A2
:103F50002068002100F00AFB1849206800F0A8FD45
:103F6000206800F0EBFA1648FDF78CFD2068FFF79B
:103F700099F91448FDF786FD206801F027FA1248E8
:103F8000FDF780FD012010BD1048FDF77BFD206886
:103F900000F00AFB2068FFF785F9206801F016FAA7
:103FA0000649206800F084FD0228D1D00848FDF7BA
:103FB00069FD002010BD00BF6C190020F025300005
:103FC0006804020880040208980402082C0402080D
:103FD000480402082DE9F04FADF5024D8FB00446BC
:103FE000884602A82146012208F01AFE002851D175
:103FF000059D9DB32C4FDFF8BCA0DFF8B0900026E4
:10400000B34600E09DB3B5F5004F2C4628BF4FF4F2
:104010000044224601AB8EA902A808F0FDFF264409
:104020005946386823468EAA00F086FEB6F5801FF2
:10403000A5EB0405A344E5D306F6FF7606EA0A06D7
:104040004146002238683346B04400F04FFB324608
:1040500041464846FDF716FD002DD0D102A809F0D3
:1040600013F901200DF5024D0FB0BDE8F08F06F6F3
:10407000FF7424F47F6424F00F042A464146386814
:10408000234600F033FB224604EB08010748FDF706
:10409000F9FCE3E721460648FDF7F4FC00200DF5A6
:1040A000024D0FB0BDE8F08F6C190020BC0402086F
:1040B000CC04020800F0FFFF70B53F4C05460E46E9
:1040C00020683E4900F0F4FC012809D03246284619
:1040D0000021FFF77FFF012817D00025284670BD7B
:1040E000206800F061FA2068FFF7DCF8206801F032
:1040F0006DF93249206800F0DBFC0228E6D000258B
:104100002F48FDF7BFFC284670BD2068FFF7CAF8AE
:10411000206801F05BF92949206800F0C9FC0128FA
:1041200039D0206800F058FA2068FFF7BBF8206803
:1041300001F04CF92149206800F0BAFC012805463D
:1041400023D1206800F030FA2068FFF7ABF8206830
:1041500001F03CF91949206800F0AAFC0228CED1F0
:104160000021206800F002FA2068FFF79BF8206821
:1041700001F02CF92068114900F09AFC0328ADD019
:104180001048FDF77FFC0025A8E700250E48FDF745
:1041900079FC284670BD206800F006FA2068FFF719
:1041A00081F8206801F012F90449206800F080FCD1
:1041B0000228B6D0A3E700BF6C190020F02530001C
:1041C000EC040208340502081005020810B5044684
:1041D0000E48FDF757FC20460021FFF76DFF58B150
:1041E0000B48FDF74FFC0022204611464FF4805348
:1041F000FFF740FE20B110BD0648FDF743FCEFE796
:10420000BDE810400348FDF73DBC00BF640502084F
:10421000B4050208A005020808B50948FDF732FCFC
:10422000FFF78EFE20B1BDE808400648FDF72ABC26
:104230000548FDF727FCBDE808400248FDF722BC11
:10424000D40502080C060208F80502082DE9F04F13
:1042500083B00546DDF83490BDF830B048461C46C2
:1042600088469246FBF7CCFFEE7A0EABC7B20193BD
:1042700016B11BF480564FD10C23043727F00307E7
:104280001F44BFB23946284601F052F83A46012190
:10429000284600F041FB6FF0F301284600F09EFB3A
:1042A0001FFA88F141EA0A41284600F097FBA1B2C3
:1042B00041EA0B41284600F091FB4946284600F0B0
:1042C0006BFB4846FBF79CFFC04310F0030818BF88
:1042D000002407D0013400212846E4B200F07AFB24
:1042E0004445F7DB76B1013E019CF6B2013604EBA2
:1042F00086060434284654F8041C019400F06EFB32
:10430000B442F6D1284600F0C9FB3946284600F0F1
:104310001DFE03B0BDE8F08F4846002605E0437857
:10432000252B0EBF0230D6B20130252109F0E9F865
:10433000721C0028F3D1B3000C339EE72DE9F04145
:1043400004460D460C211E461746BDF8188000F0A5
:10435000EFFF0C222046012100F0DEFA20466FF02C
:10436000E90100F03BFBA9B241EA0741204600F019
:1043700035FB46EA0841204600F030FB204600F0BD
:104380008DFB20460C21BDE8F04100F0DFBD00BFF1
:1043900010B50421044600F0CBFF20460422012181
:1043A00000F0BAFA6FF0FE01204600F017FB20463D
:1043B00000F074FB20460421BDE8104000F0C6BDAB
:1043C0002DE9F04704460D4614211E461746BDF858
:1043D00020A0DDF82490BDF8288000F0A9FF142269
:1043E0002046012100F098FA20466FF0CF0100F03E
:1043F000F5FAA9B241EA0741204600F0EFFA46EA91
:104400000A41204600F0EAFA4946204600F0E6FA62
:104410004146204600F0E2FA204600F03FFB2046ED
:104420001421BDE8F04700F091BD00BF70B504460F
:104430000E460C21154600F07BFF0C222046012180
:1044400000F06AFA20466FF0E30100F0C7FA314647
:10445000204600F0C3FA2946204600F0BFFA204665
:1044600000F01CFB20460C21BDE8704000F06EBD42
:1044700070B504460E460C21154600F059FF0C227B
:104480002046012100F048FA20466FF0DB0100F0E1
:10449000A5FA3146204600F0A1FA2946204600F050
:1044A0009DFA204600F0FAFA20460C21BDE8704043
:1044B00000F04CBD10B50421044600F039FF204641
:1044C0000422012100F028FA6FF0FF01204600F0DD
:1044D00085FA204600F0E2FA20460421BDE81040AB
:1044E00000F034BD2DE9F04104460F4610211E4670
:1044F0001546BDF8188000F01BFF10222046012150
:1045000000F00AFA20466FF0BC0100F067FA394665
:10451000204600F063FA45EA0641204600F05EFAC4
:104520004146204600F05AFA204600F0B7FA2046ED
:104530001021BDE8F04100F009BD00BF10B5042115
:10454000044600F0F5FE20460422012100F0E4F9C3
:104550006FF0BB01204600F041FA204600F09EFAC1
:1045600020460421BDE8104000F0F0BC38B50446F8
:104570000D46082100F0DCFE08222046012100F053
:10458000CBF920466FF0B50100F028FA2946204605
:1045900000F024FA204600F081FA20460821BDE808
:1045A000384000F0D3BC00BF10B50421044600F031
:1045B000BFFE20460422012100F0AEF96FF0B601E3
:1045C000204600F00BFA204600F068FA204604214D
:1045D000BDE8104000F0BABC10B50421044600F05C
:1045E000A7FE20460422012100F096F96FF0B701E2
:1045F000204600F0F3F9204600F050FA204604214E
:10460000BDE8104000F0A2BC38B50421044600F01B
:104610008FFE04222046012100F07EF96FF0B701E1
:10462000204600F0DBF9204600F038FA042120464D
:1046300000F08CFC2046FEF735FE204600F0C6FE5A
:104640002949204600F034FA012801D0002038BD65
:1046500005460421204600F06BFE04222946204630
:1046600000F05AF96FF0B601204600F0B7F9204685
:1046700000F014FA0421204600F068FC2046FEF702
:1046800011FE204600F0A2FE1749204600F010FA65
:104690000228DBD12046082100F04AFE08222946E4
:1046A000204600F039F96FF0B501204600F096F988
:1046B0000021204600F092F9204600F0EFF9082191
:1046C000204600F043FC2046FEF7ECFD204600F0BB
:1046D0007DFE0549204600F0EBF9A0F10300B0FA99
:1046E00080F0400938BD00BFF02530002DE9F047CB
:1046F000C1F30B0702F003063E4363D1B3F5805FBD
:104700000D46914698460446C0F08780C3F30B07D8
:104710001021002F59D000F00BFE1022012120465D
:1047200000F0FAF86FF0B801204600F057F929467A
:10473000204600F053F9A8EB070A4946204600F04E
:104740004DF95146204600F049F9204600F0A6F9FF
:104750001021204600F0FAFB2046FEF7A3FD20467C
:1047600000F034FE454408EB090210212046ED1B01
:10477000D71B00F0DDFD10220121204600F0CCF80F
:104780006FF0B801204600F029F92946204600F0D4
:1047900025F93946204600F021F94FF48051204692
:1047A00000F01CF9204600F079F91021204600F0B5
:1047B000CDFB2046FEF776FD204600F007FE304692
:1047C000BDE8F0870120BDE8F08700F0B1FD1022C0
:1047D0002046012100F0A0F86FF0B801204600F05B
:1047E000FDF82946204600F0F9F84946204600F039
:1047F000F5F84146204600F0F1F8204600F04EF969
:104800001021204600F0A2FB2046FEF74BFD20467B
:1048100000F0DCFD3846BDE8F087102100F088FD8F
:1048200010220121204600F077F86FF0B8012046F1
:1048300000F0D4F82946204600F0D0F84946A9E710
:104840002DE9F04102F03F05174601F00302154340
:1048500002D00120BDE8F08104460E46102123F06D
:10486000030800F065FD10222046012100F054F8F5
:104870006FF0B901204600F0B1F83146204600F053
:10488000ADF83946204600F0A9F84146204600F030
:10489000A5F8204600F002F91021204600F056FB52
:1048A0002046FEF7FFFC204600F090FD2046069AC9
:1048B0004346314600F074FA2846BDE8F08100BF57
:1048C00008B501F049F8012008BD00BF10B500216E
:1048D000044601F069F82046012101F065F8204600
:1048E000022101F061F801221146204601F05EF834
:1048F00001220021204601F059F8204601F030F84D
:1049000000230122C01A84F83D2084F8323018BFF9
:104910000120C4F82E3010BD70B5057AC38D012D6D
:104920000CBF4FF484154FF4421582B004462B445B
:10493000C1B90A461D0C8DF806301B0A8DF8071008
:104940008DF805308DF8045001F030F80422022370
:104950000DEB0201204601F01BF8012384F83230F0
:1049600002B070BD1D0C00221E0A114665F07F05C5
:104970008DF806308DF804508DF8056001F016F8BA
:104980000223032201A9204601F002F8022384F841
:10499000323002B070BD00BF70B5054608460C4607
:1049A000FBF72EFC80B260B1461EB6B2013626443B
:1049B00014F8011B95F83220284600F0D3FFA642D8
:1049C000F6D195F8322028460021BDE8704000F06D
:1049D000C9BF00BF90F8322000F0C4BF38B590F8CE
:1049E0003220022A04462DD0002100F0BBFF94F8AB
:1049F000322005460021204600F0B4FF94F8322012
:104A000045EA0025022AADB24FF0000120460FD042
:104A100000F0A8FF94F832200346002120461C46EF
:104A200000F0A0FF44EA002045EA0045284638BDD2
:104A300000F098FF94F832202046002100F092FF09
:104A4000284638BD0D46C9B200F08CFF94F83220DC
:104A5000C5F30721204600F085FF94F83220022A92
:104A60000CD00021204600F07DFF002594F8322074
:104A70002046002100F076FF284638BDC5F30741E7
:104A800020462D0C00F06EFF290A94F832202046B3
:104A9000002500F067FF284638BD00BF10B5012291
:104AA0000446002100F082FF002384F8323010BD5C
:104AB00070B582B000250B0A0E0C2A468DF8061040
:104AC000294604468DF804608DF805308DF80750AE
:104AD00000F06CFF042202230DEB020101262046A8
:104AE00000F056FF84F8326032462946204600F036
:104AF00039FF324629460646204600F057FF304629
:104B000084F8325002B070BDF0B5002583B00B467A
:104B10000F0C0E0A2A46294604468DF806308DF8F9
:104B200004708DF805608DF8075000F03FFF0422F7
:104B3000022301270DEB0201204600F029FF84F833
:104B400032703A462946204600F00CFF94F8322095
:104B500006462946204600F005FF3A462946074604
:104B6000204600F023FF46EA072080B284F8325046
:104B700003B0F0BD70B582B01546C1F30543002205
:104B8000044663F07F030E0A8DF8061011468DF877
:104B900004308DF8056000F009FF022301A92046CA
:104BA000032200F0F5FE0222294684F83220204636
:104BB00000F0D8FE20460122002100F0F7FE00237D
:104BC00084F8323002B070BD70B582B01546C1F3C2
:104BD00005430022044663F07F030E0A8DF8061099
:104BE00011468DF804308DF8056000F0DFFE0223D9
:104BF00001A92046032200F0CBFE022284F83220D5
:104C0000E9B2204600F0AEFE94F83220290A204690
:104C100000F0A8FE20460122002100F0C7FE00237C
:104C200084F8323002B070BD70B582B01546C1F361
:104C300005430022044663F07F030E0A8DF8061038
:104C400011468DF804308DF8056000F0AFFE0223A8
:104C5000032201A9204600F09BFE022284F83220A4
:104C6000E9B2204600F07EFE94F83220C5F3072119
:104C7000204600F077FE94F83220022A13D000215B
:104C8000204600F06FFE94F832200021204600F00C
:104C900069FE01220021204600F088FE002384F8EE
:104CA000323002B070BDC5F3074120462D0C00F034
:104CB00059FE94F83220290A204600F053FEE8E716
:104CC00030B5002483B00B460546224621468DF8B8
:104CD00004308DF805408DF8064000F067FE06238D
:104CE00001A92846032200F053FE2846214601224E
:104CF00000F05CFE03B030BD38B5054681B100223E
:104D0000012100F053FE142000F028FE0122284665
:104D1000012100F04BFEBDE83840142000F01EBE1B
:104D200001220C46114600F041FE142000F016FE50
:104D30002246ECE700F012BEF0B583B0C1F30547A0
:104D4000144600224FEA112C05468DF8061067F034
:104D50007F0711461E468DF805C08DF8047000F0DF
:104D600025FE03222846022301A900F011FE02229B
:104D700085F8322056B1264401E095F8322014F827
:104D8000011B284600F0EEFDB442F6D101220021BD
:104D9000284600F00BFE002385F8323003B0F0BD4A
:104DA000F0B583B000274FEA114E4FEA112C8DF871
:104DB0000610144639463A4605461E468DF804E06C
:104DC0008DF805C08DF8077000F0F0FD04220DEBA2
:104DD00002012846022300F0DBFD012285F8322083
:104DE0005EB1264401E095F832200021284600F00B
:104DF000B9FD04F8010BB442F5D101220021284687
:104E000000F0D4FD002385F8323003B0F0BD00BFC0
:104E100070B5062982B00C4605460BD005292FD067
:104E2000042945D003291DD002294AD0002945D0A4
:104E300002B070BD002644F2616332463146ADF8DF
:104E400004308DF8066000F0B1FD2346032201A96D
:104E5000284600F09DFD31462846012200F0A6FDBF
:104E600002B070BD002640F2613332463146ADF8E3
:104E700004308DF8066000F099FD22460623E6E72F
:104E800000242246214644F26153ADF804308DF8E7
:104E9000064000F08BFD062301A90322284600F0FE
:104EA00077FD21462846012200F080FD02B070BD4A
:104EB00000242246214644F26143E6E761230A4684
:104EC000E3E700242246214640F26123DDE700BFEC
:104ED000022935D82DE9F041531E012B82B0154629
:104EE00031D8022A4FF0000204460CBF41F00408FA
:104EF000884688230E4642F2B01711468DF80630D8
:104F0000ADF8047000F052FD0223032201A92046EF
:104F100000F03EFD0222414684F83220204600F097
:104F200021FD01220021204600F040FD002084F8F0
:104F30003C6084F83D5084F8320002B0BDE8F08156
:104F40004FF0FF3070474FF0FF30F6E770B5C28D7D
:104F5000037A1144012B82B001F1030140F6FC7584
:104F600005EA01054FF000020CBFE821FC210446D0
:104F70000BBF9023B023242620268DF80610C5856C
:104F800011468DF804308DF8056000F00FFD022306
:104F900001A92046032200F0FBFC022205F0FC01DF
:104FA00084F83220204600F0DDFC94F83220290AF3
:104FB000204600F0D7FC20460122002100F0F6FC3C
:104FC000002384F8323002B070BD00BF2DE9F04FED
:104FD000C58D85B004468B46924600264FF00109E8
:104FE000A846237A8DF80F60012B4FF000020BBF0B
:104FF000E427F827242520250CBF10233023114651
:1050000020468DF80E708DF80D508DF80C3000F0A4
:10501000CDFC0223042203A9204600F0B9FC0122A2
:10502000002184F83290204600F09CFC94F8322055
:1050300007460021204600F095FC0122054600218C
:10504000204600F0B3FC47EA0520A8EB0005C5F3B5
:105050000B05C5F57F650C35ADB2554528BF5546E6
:1050600084F83260237A8DF80F60012B4FF0000234
:105070000BBF24272027102330230CBF4FF0E40C54
:105080004FF0F80C114620468DF80EC08DF80D70CB
:105090008DF80C30E78D00F089FC0223042203A96F
:1050A000204600F075FC0122002184F83290204651
:1050B00000F058FC94F8322080460021204600F091
:1050C00051FC012201900021204600F06FFC019B61
:1050D00084F8326048EA03203F1AC7F30B07C7F58C
:1050E0007F670C37BFB2BD42BCD8227AE38D012A5C
:1050F0000CBF4FF484124FF4421213441F0C0022D1
:105100004FEA132C114667F07F0720468DF80DC03B
:10511000ADB28DF80E308DF80C704FF0020800F033
:1051200045FC0223032203A9204600F031FC2A4655
:105130000023594684F83280204600F029FC0122E1
:1051400007460021204600F031FCE58D237A84F8E3
:1051500032603D44C5F30B05033525F00305012BF3
:105160004FEA05550CBFE820FC204FEA15554FF0DB
:1051700000020BBF9023B0234FF0240C4FF0200C03
:1051800011468DF80E00E58520468DF80DC08DF88E
:105190000C3000F00BFC0223032203A9204600F090
:1051A000F7FB05F0FC01022284F83280204600F073
:1051B000D9FB94F83220290A204600F0D3FB0122C3
:1051C0000021204600F0F2FBBB4484F83260237AD1
:1051D0008DF80F60012B4FF000020BBF4FF0E40C75
:1051E0004FF0F80C242520250CBF10233023114646
:1051F00020468DF80EC08DF80D508DF80C3000F063
:10520000D5FB0223042203A9204600F0C1FB0122A2
:10521000002184F83290204600F0A4FB94F832205C
:1052200080460021204600F09DFB012248EA00282C
:105230000021204600F0BAFB237A84F83260012B6B
:105240000CBFE820FC204FF000020BBF24252025D6
:105250001023302311468DF80E0020468DF80D5096
:105260008DF80C308DF80F6000F0A0FB02230422B3
:1052700003A9204600F08CFB0122002184F8329023
:10528000204600F06FFB94F83220054600212046AE
:1052900000F068FB45EA00250FFA88F82DB20122DC
:1052A0000021204600F082FBA84584F832608ED1B0
:1052B000237A8DF80F60012B0CBFE820FC204FF003
:1052C00000020BBF242520251023302311468DF822
:1052D0000E0020468DF80D508DF80C3000F066FB66
:1052E0000223042203A9204600F052FB01220021E0
:1052F00084F83290204600F035FB94F832200546C1
:105300000021204600F02EFB012245EA0025002165
:10531000204600F04BFB1FFA85F8BAEB070AA4F809
:105320002E8084F832607FF45CAE05B0BDE8F08F6B
:105330002DE9F043054683B00F4600262B7A8DF801
:105340000760012B4FF000020BBF24242024102300
:1053500030230CBF4FF0E40C4FF0F80C11462846F8
:105360008DF806C08DF805408DF80430EC8D00F006
:105370001DFB042202234FF001090DEB0201284618
:1053800000F006FB4A4685F832900021284600F0DE
:10539000E9FA95F8322080460021284600F0E2FA2A
:1053A0004A4600218146284600F000FB48EA0920D1
:1053B000231AC3F30B03C3F57F630C339BB2BB42C9
:1053C00085F83260BAD303B0BDE8F0832DE9F0412F
:1053D000044682B04FF00008237A8DF80780012B35
:1053E0004FF000020BBF24252025E426F8260CBF31
:1053F00010233023114620468DF805508DF80660A5
:105400008DF8043000F0D2FA0422012702230DEBBC
:105410000201204600F0BCFA3A46002184F83270BE
:10542000204600F09FFA94F83220064600212046DC
:1054300000F098FA3A4646EA00260021204600F09D
:10544000B5FA237A84F83280BB424FF000020BBFDA
:1054500024252025102330230CBF4FF0E80C4FF0FB
:10546000FC0C114620468DF806C08DF805508DF8CD
:1054700004308DF8078000F099FA042202230DEB26
:105480000201204600F084FA3A46002184F8327086
:10549000204600F067FA94F83220054600212046A5
:1054A00000F060FA45EA002536B22DB23A460021F6
:1054B000204600F07BFAAE4284F832808CD1217A0B
:1054C000064A074B2046B9420CBF11461946FFF762
:1054D0001BFBE08502B0BDE8F08100BFE8241000AE
:1054E000FC2030002DE9F04F044685B08A469146F5
:1054F000002740F6FC7B237A8DF80F70012B4FF0CC
:1055000000020BBFE426F826242520250CBF10231B
:105510003023114620468DF80E608DF80D50E68D33
:105520008DF80C3000F042FA0223042203A9204631
:1055300000F02EFA4FF0010384F8323001220021EE
:10554000204600F00FFA94F83220804600212046D1
:1055500000F008FA012205460021204600F026FA54
:1055600048EA0520351AC5F30B05ABEB0505ADB2CE
:105570004D4528BF4D4684F83270237A8DF80F7060
:10558000012B4FF000020BBF2426202610233023CE
:105590000CBF4FF0E40C4FF0F80C114620468DF88C
:1055A0000EC08DF80D608DF80C30E68D00F0FEF920
:1055B0000223042203A9204600F0EAF94FF0010378
:1055C00084F8323001220021204600F0CBF994F813
:1055D000322080460021204600F0C4F901220190CB
:1055E0000021204600F0E2F9019B84F8327048EA7D
:1055F0000320361AC6F30B06ABEB0606B6B2B5426D
:10560000BBD8227AE38D012A0CBF4FF484124FF4E9
:10561000421213441E0C00224FEA132C114666F06E
:105620007F0620468DF80DC0ADB28DF80E308DF896
:105630000C604FF0020800F0B9F90223032203A91D
:10564000204600F0A5F92A460023514684F832800E
:10565000204600F09DF9012206460021204600F078
:10566000A5F9E58D237A84F832703544C5F30B052E
:10567000012B05F103050CBFE820FC200BEA050512
:105680004FF000020BBF9023B0234FF0240C4FF0DB
:10569000200C11468DF80E00E58520468DF80DC0D2
:1056A0008DF80C3000F082F90223032203A9204672
:1056B00000F06EF905F0FC01022284F832802046E9
:1056C00000F050F994F83220290A204600F04AF9F7
:1056D00001220021204600F069F9B9EB0609B24425
:1056E00084F832707FF407AF05B0BDE8F08F00BFDB
:1056F0002DE9F043044683B00E460027237A8DF847
:105700000770012B4FF000020BBF2425202510232A
:1057100030230CBF4FF0E40C4FF0F80C114620463C
:105720008DF806C08DF805508DF80430E58D00F039
:105730003DF9042202234FF001090DEB020120463E
:1057400000F026F94A4684F832900021204600F005
:1057500009F994F8322080460021204600F002F931
:105760004A4600218146204600F020F948EA0920F7
:105770002B1AC3F30B03C3F57F630C339BB2032BCC
:1057800084F83270BAD9227AE38D012A0CBF4FF423
:1057900084124FF4421213441D0C00221F0A1146BA
:1057A00065F07F0520468DF806308DF804508DF8A1
:1057B000057000F0FBF80223032201A9204600F047
:1057C000E7F8022284F83220F1B2204600F0CAF84D
:1057D00094F83220C6F30721204600F0C3F894F86D
:1057E0003220022A4CD00021204600F0BBF894F869
:1057F00032200021204600F0B5F800210122204689
:1058000000F0D4F8E38D227A0733012A40F6FC76C3
:1058100006EA03060BBFE821FC21242020204FF0DC
:1058200000050CBF9023B0232A468DF806108DF892
:1058300005002946E68584F8325020468DF804306C
:1058400000F0B4F8022301A90322204600F0A0F8DA
:10585000022206F0FC0184F83220204600F082F893
:1058600094F83220310A204600F07CF829460122C3
:10587000204600F09BF884F8325003B0BDE8F08376
:10588000C6F307412046360C00F06CF894F832203D
:10589000310A204600F066F8AFE700BF70B5037A22
:1058A0002C4D82B00022012B0CBF9023B023044664
:1058B00011468DF805208DF804308DF8062000F093
:1058C00075F80322204601A9022300F061F80222A4
:1058D00084F8322005F10C0601E094F8322015F826
:1058E000011B204600F03EF8B542F6D1002101220E
:1058F000204600F05BF8237A012B0BBF5021542186
:10590000242020204FF000050CBF9023B0232A460E
:105910008DF806108DF80500294684F8325020468F
:105920008DF8043000F042F8022301A9032220463A
:1059300000F02EF8022284F832201146204600F0B2
:1059400011F829460122204600F030F884F8325040
:1059500002B070BD240602080120704701F08EBA23
:105960000120704710B586B04FF0FF330C4600930E
:105970000DF1170201230DF10F0104488DF80F40BE
:1059800004F01AF99DF8170006B010BDE4030020DA
:1059900010B54FF0FF331446024803F0E9FF2046EC
:1059A00010BD00BFE403002001207047012910B59D
:1059B0000C460DD006D809484FF4805101F0D0FCB8
:1059C000012010BD8C1E022C8CBF0020012010BDB8
:1059D0000348402101F0C4FC204610BD00040240F1
:1059E000001C024070B50C4E0C4D3068296882B026
:1059F0004FF6FF74821E8B1E183806390094FBF791
:105A00001BFF3068296800948B1E821E18390638E7
:105A1000FBF712FF02B070BD8C39002084390020E2
:105A200070B582B04FF6FF74022100940846062339
:105A30001822FBF701FF0F4E0F4D0094022108467C
:105A400018230622FBF7F8FE306829680024821E1E
:105A50008B1E183806390094FBF7EEFE3068296873
:105A600000948B1E821E18390638FBF7E5FE02B043
:105A700070BD00BF8C3900208439002010B5FF2292
:105A800082B011461046FBF7C9FC002402210846EB
:105A9000009406231822FBF7CFFE0221009408464B
:105AA00018230622FBF7C8FE02B010BD2DE9F04F07
:105AB00095B0FCF7B5F870B9164B1B7863B1164E6C
:105AC0003378052B3DD8DFE813F00F0433003C0496
:105AD000470452045D04FEE7104B1B78042B14D8D6
