:020000040801F1
:1000000000000520412E0108A52B0108A92B01089D
:10001000AD2B0108B12B0108B52B01080000000031
:10002000000000000000000000000000B92B0108E3
:10003000BD2B010800000000C12B0108C52B0108E1
:10004000912E0108912E0108912E0108912E010890
:10005000912E0108912E0108912E0108912E010880
:10006000912E0108912E0108912E0108912E010870
:10007000912E0108912E0108912E0108912E010860
:10008000912E0108912E0108912E0108912E010850
:10009000912E0108912E0108912E0108C92B01080B
:1000A000912E0108912E0108912E0108912E010830
:1000B000912E0108912E0108912E0108912E010820
:1000C000912E0108912E0108912E0108912E010810
:1000D000912E0108912E0108912E0108912E010800
:1000E000912E0108912E0108912E0108912E0108F0
:1000F000912E0108912E0108912E0108912E0108E0
:10010000912E0108912E0108912E0108912E0108CF
:10011000912E0108912E0108912E0108912E0108BF
:10012000912E0108912E0108912E0108912E0108AF
:10013000912E0108912E0108912E0108912E01089F
:10014000912E0108912E0108912E0108912E01088F
:10015000912E0108912E0108912E0108912E01087F
:10016000912E0108912E0108912E0108912E01086F
:10017000912E0108912E0108912E01080000000027
:10018000912E0108912E0108912E0108912E01084F
:10019000912E0108912E0108912E0108912E01083F
:1001A000912E0108912E0108912E0108912E01082F
:0401B000912E010883
:1001C00010B5054C237833B9044B13B10448AFF391
:1001D00000800123237010BD740000200000000087
:1001E000F4DA010808B5034B1BB103490348AFF328
:1001F000008008BD0000000078000020F4DA01084B
:10020000034613F8012B002AFBD1181A0138704756
:1002100001F0FF01102A2BDB10F0070F08D010F8B7
:10022000013B013A8B422DD010F0070F42B3F6D1BB
:10023000F0B441EA012141EA014122F007047FF0D4
:1002400000070023F0E80256083C85EA010586EA2B
:10025000010685FA47F5A3FA87F586FA47F6A5FA67
:1002600087F68EB9EED1F0BC01F0FF0102F0070273
:1002700032B110F8013B013A83EA010313B1F8D11E
:100280000020704701387047002D06BF35460338FF
:10029000073815F0010F07D1013015F4807F02BF38
:1002A000013015F4C03F0130F0BC0138704700BF89
:1002B00053B94AB9002908BF00281CBF4FF0FF31CD
:1002C0004FF0FF3000F06EB9ADF1080C6DE904CECF
:1002D00000F006F8DDF804E0DDE9022304B0704721
:1002E0002DE9F047089D04468C46002B40F08380A2
:1002F0008A42174647D9B2FA82F242B1C2F12000CF
:1003000024FA00F09140974040EA010C94404FEAF3
:100310001748230CBCFBF8F61FFA87FE08FB16C132
:1003200043EA014306FB0EF1994209D9FB1806F195
:10033000FF3080F01981994240F21681023E3B4421
:100340005B1AA4B2B3FBF8F008FB103344EA034491
:1003500000FB0EFEA64509D93C1900F1FF3380F0E1
:100360000581A64540F2028102383C4440EA06403D
:10037000A4EB0E0400261DB1D4400023C5E90043C0
:100380003146BDE8F08702B9FFDEB2FA82F2002AF8
:1003900050D1CB1B4FEA174E1FFA87F80126B3FB4B
:1003A000FEFC210C0EFB1C3341EA034108FB0CF35D
:1003B0008B4207D979180CF1FF3002D28B4200F240
:1003C000E9808446C91AA3B2B1FBFEF00EFB1011FE
:1003D00043EA014408FB00F8A04507D93C1900F1A5
:1003E000FF3302D2A04500F2D9801846A4EB0804DE
:1003F00040EA0C40BFE78B4209D9002D00F0B180E4
:100400000026C5E9000130463146BDE8F087B3FA61
:1004100083F6002E4AD18B4202D3824200F2B8808A
:10042000841A61EB030101208C46002DA8D0C5E998
:10043000004CA5E7C2F1200320FA03F6974001FA29
:1004400002F04FEA174ED9403043030CB1FBFEF6E1
:100450001FFA87F80EFB161143EA014306FB08F169
:10046000994204FA02F409D9FB1806F1FF3C80F026
:100470008D80994240F28A80023E3B445B1A81B2F1
:10048000B3FBFEF00EFB103341EA034100FB08F31F
:100490008B4207D9791800F1FF3C73D28B4271D996
:1004A00002383944CB1A40EA064678E7C6F1200CF8
:1004B00003FA06F422FA0CF31C4320FA0CF701FAB3
:1004C00006F34FEA144E21FA0CF11F433B0CB1FB2B
:1004D000FEF91FFA84F80EFB191143EA014109FBEA
:1004E00008FA8A4502FA06F200FA06F308D96118FA
:1004F00009F1FF3048D28A4546D9A9F102092144C1
:10050000A1EB0A01BFB2B1FBFEF00EFB101147EAEE
:10051000014700FB08F8B84507D9E71900F1FF319A
:100520002ED2B8452CD90238274440EA0940A7EB1F
:100530000807A0FB02894F45C64649461AD317D083
:100540005DB1B3EB0E0267EB010707FA0CFCF2405A
:100550004CEA0202F740C5E9002700263146BDE813
:10056000F0872E4628460BE70646E9E61846FDE6E4
:100570004345E5D2B8EB020E69EB04010138DFE731
:100580000846D2E760468DE78146B9E7664675E7DB
:1005900030464AE7ACF1020C394413E702383C44D8
:1005A00024E700BF704700BFF0B57A4B1B7885B0D9
:1005B00005460C46032B43D8DFE803F08602C94406
:1005C000912375488DF8083000220421642606F036
:1005D00055FC032303AA02A97048009609F0B8F954
:1005E0006D480122042106F049FC9DF80D209DF87C
:1005F0000E30694802F07F02DB0843EA4213C3F57C
:100600007F630F332B80D123002204218DF8083023
:1006100006F034FC032303AA02A96048009609F0FF
:1006200097F901225C48042106F028FC9DF80D2072
:100630009DF80E3002F07F02DB0843EA421323806C
:1006400005B0F0BD9123642653488DF80830002290
:10065000042106F013FC03AA02A9032300964F48C5
:1006600009F076F94C480122042106F007FC9DF8B8
:100670000D209DF80E30484802F07F02DB0843EA67
:1006800042132B800022D12304218DF8083006F07C
:10069000F5FB03AA02A903230096404809F058F984
:1006A0003D480122042106F0E9FB9DF80D209DF84C
:1006B0000E3002F07F02DB0843EA4213C3F57F638A
:1006C0000F33238005B0F0BDD123642732488DF865
:1006D00008300022042106F0D1FB03AA02A903235B
:1006E00000972E4809F034F92B480122042106F026
:1006F000C5FB9DF80D209DF80E30274802F07F02C3
:10070000DB0840F6FF7643EA4213F31A2B800022FF
:10071000912304218DF8083006F0B0FB03AA02A94A
:10072000032300971D4809F013F91B4801220421F7
:1007300006F0A4FB9DF80D209DF80E3002F07F021C
:10074000DB0843EA4213F31A238005B0F0BDD1233E
:1007500011488DF8083000220421642606F08EFB33
:10076000032303AA02A90D48009609F0F1F80A48EC
:100770000122042106F082FB9DF80D209DF80E3029
:10078000054802F07F02DB0843EA42132B809123E5
:100790003AE700BFA600002000100240D40300206A
:1007A0002DE9F0434D4D4E4F2A700C464D494E4DAC
:1007B00008801E46014613464C483C80224685B0C0
:1007C0002E8001F087F84A4CDFF83C8120264FF05C
:1007D00000096427B1230022042120468DF8083047
:1007E00006F04CFB032303AA02A90097404609F038
:1007F000AFF801220421204606F040FB9DF80D30A1
:100800009DF80E504FF0C10C03F07F03002204212D
:100810002046ED088DF808C045EA431506F02EFB8A
:10082000032303AA02A90097404609F091F8012288
:100830000421204606F022FB9DF80D209DF80E3085
:1008400002F07F02DB0843EA4213C3F57F630F33F4
:100850004FF0D10C9BB20022042120468DF808C035
:10086000AB422CBF9944A94406F008FB032303AA1A
:1008700002A90097404609F06BF8012204212046A6
:1008800006F0FCFA91230022042120468DF808305E
:1008900006F0F4FA032303AA02A90097404609F0E0
:1008A00057F801220421204606F0E8FA013E0A200A
:1008B00006F086F816F0FF068BD10E4B0E491E800F
:1008C0000E480F4A0F4B06804FEA5919A1F80090C5
:1008D00016801E8005B0BDE8F08300BFA600002092
:1008E000A4000020A8000020AA0000200CDB0108C2
:1008F00000100240940000209C000020980000207E
:10090000960000209A000020D40300202DE9F04F2B
:10091000874BDFF838B21A6089B0CBF800108047F7
:100920000023CDE90333DFF82892DFF82882814DD8
:10093000814F9A4602E00A2006F042F8B1230022D5
:100940000421284664268DF8183006F097FA032310
:1009500007AA06A90096384608F0FAFF01220421EA
:10096000284606F08BFA9DF81D309DF81E404FF08A
:10097000C10C03F07F03002204212846E40844EA66
:1009800043148DF818C006F079FA032307AA06A9C4
:100990000096384608F0DCFF01220421284606F0C4
:1009A0006DFA9DF81D009DF81E30B9F80020B8F8CA
:1009B000001000F07F00DB0843EA4013C3F57F63BB
:1009C0000F339BB2A3422CBFC2EB0303C2EB040361
:1009D0009BB29942AFD2B3F5805FACD20AF1010A63
:1009E0005FFA8AFABAF1200F07A906A80CD8FFF718
:1009F000DBFDBDF818200399BDF81C301144049AA2
:100A000003911A44049296E7DBF80030494D4A4FAF
:100A100098474FF0000B4FF4FA6005F0D1FFDA462B
:100A2000CDF814B002E00A2005F0CAFFB12300227D
:100A30000421284664268DF8183006F01FFA032397
:100A400007AA06A90096384608F082FF0122042171
:100A5000284606F013FA9DF81D309DF81E404FF011
:100A6000C10C03F07F03002204212846E40844EA75
:100A700043148DF818C006F001FA032307AA06A94B
:100A80000096384608F064FF01220421284606F04B
:100A9000F5F99DF81D009DF81E30B9F80020B8F852
:100AA000001000F07F00DB0843EA4013C3F57F63CA
:100AB0000F339BB2A3422CBFC2EB0303C2EB040370
:100AC0009BB29942AFD2B3F5805FACD20AF1010A72
:100AD0005FFA8AFABAF1200F07A906A80AD8FFF729
:100AE00063FD0599BDF81820BDF81C30114405912F
:100AF0009B4498E70E4B114D1B68114C9847039B84
:100B000010481149C3F34F122A80049B059DC3F37B
:100B10004F13C2EB5512C3EB5B1B02804FF4FA601C
:100B2000A4F800B00B8005F04BFF09B0BDE8F08FD2
:100B3000A000002000100240D403002094000020F8
:100B40009A000020960000209800002090000020CD
:100B50009C000020AA0000202DE9F04F87B0B125AD
:100B60000B4604460022B3488DF81050042164253A
:100B7000CDE9024306F082F9032305AA04A9AE4891
:100B8000009508F0E5FEAB480122042106F076F955
:100B90009DF815309DF81640A648C12103F07F034B
:100BA00000228DF81010E408042144EA431406F0F2
:100BB00065F9032305AA04A99F48009508F0C8FE1B
:100BC000012204219B4806F059F99DF815109DF863
:100BD00016309A4A01F07F01DB0843EA4113C3F55E
:100BE0007F6312880F339BB2A3422CBFC2EB030377
:100BF000C2EB0403924A12889BB29A4202D2B3F526
:100C0000805F03D3002007B0BDE8F08F0025DFF838
:100C10004CB2884FDFF820A22C46A846A9462026D1
:100C20009BF80030032B46D8DFE813F01A015E0171
:100C3000C600040064256FF06E03002204213846CC
:100C40008DF8103006F01AF90323009505AA04A9BF
:100C5000504608F07DFE01220421384606F00EF9C8
:100C60009DF815309DF816404FF0D10C03F07F032E
:100C7000002204213846E4088DF810C044EA4314E9
:100C800006F0FCF80323009505AA04A9504608F0D5
:100C90005FFE01220421384606F0F0F89DF8153079
:100CA0009DF8165003F07F03ED0845EA4315C5F59E
:100CB0007F650F35ADB2013E16F0FF06A144A84492
:100CC000AED1B12332465B488DF810300421642444
:100CD00006F0D4F8032305AA04A95748009408F0A5
:100CE00037FE54480122042106F0C8F89DF815305B
:100CF0009DF816504F48324603F07F030421ED085B
:100D0000C12645EA43158DF8106006F0B7F80323B5
:100D100005AA04A94848009408F01AFE4548012293
:100D2000042106F0ABF89DF815009DF81630434AF3
:100D300043491288098800F07F00DB0843EA40132A
:100D4000C3F57F630F339BB2AB422CBFC2EB0303EF
:100D5000C2EB05039BB29942BFF454AFB3F5805F79
:100D6000BFF450AF3749384B384A0D881C88384B90
:100D700010881988C9F34F12521BC8F34F13354D11
:100D80001B1B354C2D88248800FB02F292FBF5F2E8
:100D900022EAE272824201FB03F393FBF4F323EABB
:100DA000E373A8BF02468B42A8BF0B4602990A8094
:100DB000039A0120138026E7D1230022042138461C
:100DC00064258DF8103006F059F8032305AA04A90C
:100DD0000095504608F0BCFD01220421384606F07B
:100DE0004DF89DF815309DF816406FF06E0203F037
:100DF0007F03E4088DF8102004210022384644EADD
:100E0000431406F03BF80323009505AA04A95046B5
:100E100008F09EFD01220421384606F02FF89DF8C7
:100E200015309DF8165003F07F03ED0845EA431591
:100E300041E700BF00100240D40300209C000020C6
:100E4000AA0000209400002098000020A8000020A4
:100E5000A4000020960000209A000020A600002098
:100E6000D1230022042138468DF8103006F006F810
:100E70006423009305AA032304A9504608F068FDE3
:100E800001220421384605F0F9FF9DF815309DF840
:100E900016406FF06E0203F07F038DF810200421DE
:100EA00000223846E40844EA431405F0E7FF6423CF
:100EB000009305AA032304A9504608F049FD012226
:100EC0000421384605F0DAFF9DF815209DF816300C
:100ED00002F07F02DB0840F6FF7543EA42132C1B49
:100EE000ED1AA4B2ADB2E6E66FF06E030022042163
:100EF000384664258DF8103005F0C0FF032305AA9D
:100F000004A90095504608F023FD0122042138462B
:100F100005F0B4FF9DF815309DF8164003F07F03EF
:100F2000E40844EA4314C4F57F640F34D12300225B
:100F300004213846A4B28DF8103062E710B50121C3
:100F40000446084805F094FF08B1002010BD204673
:100F500005F036FD0121034805F08AFFB0FA80F064
:100F6000400910BD00000240F8B507461B480022AA
:100F700005464FF4005105F081FF01224FF48041F6
:100F8000284605F07BFF01224FF40051284605F06A
:100F900075FF0826802400224FF40051284605F0F2
:100FA0006DFF17EA04034FF001024FF4804104BFC4
:100FB0001A464FF48041284608BF284605F05EFFD8
:100FC00001224FF400512846D44005F057FF013E5E
:100FD000E1D1BDE8F840012005F0F2BC0004024078
:100FE000F8B507461B48002205464FF4005105F0AE
:100FF00045FF00224FF48041284605F03FFF0122C3
:101000004FF40051284605F039FF082680240022BD
:101010004FF40051284605F031FF17EA04034FF062
:1010200001024FF4804104BF1A464FF48041284624
:1010300008BF284605F022FF01224FF40051284640
:10104000D44005F01BFF013EE1D1BDE8F84001208E
:1010500005F0B6BC000402405948F8B500224FF430
:101060008051044605F00AFF0826802500224FF42F
:101070000051204605F002FF15F0B0074FF00102C5
:101080004FF48041204602D13A464FF4804105F0AA
:10109000F5FE01224FF40051204605F0EFFE00223C
:1010A0004FF40051204605F0E9FE013E4FEA550598
:1010B000DCD1434C0826802500224FF40051204605
:1010C00005F0DCFE15F020074FF001024FF48041DF
:1010D000204602D13A464FF4804105F0CFFE01226E
:1010E0004FF40051204605F0C9FE00224FF4005194
:1010F000204605F0C3FE013E4FEA5505DCD1304CD9
:101100000826802500224FF40051204605F0B6FE47
:1011100015F094074FF001024FF48041204602D1B0
:101120003A464FF4804105F0A9FE01224FF40051E8
:10113000204605F0A3FE00224FF40051204605F0A2
:101140009DFE013E4FEA5505DCD11D4C0826802549
:1011500000224FF40051204605F090FE15F0830761
:101160004FF001024FF48041204602D13A464FF43D
:10117000804105F083FE01224FF40051204605F026
:101180007DFE00224FF40051204605F077FE013E1F
:101190004FEA5505DCD10A4801224FF4805105F091
:1011A0006DFE074800224FF4804105F067FEBDE860
:1011B000F840034800224FF4005105F05FBE00BF25
:1011C000000402404E48F8B500224FF48051044616
:1011D00005F054FE0826802500224FF400512046D9
:1011E00005F04CFE15F0B0074FF001024FF48041BE
:1011F000204602D13A464FF4804105F03FFE0122DD
:101200004FF40051204605F039FE00224FF4005102
:10121000204605F033FE013E4FEA5505DCD1384C3F
:101220000826802500224FF40051204605F026FEB6
:1012300015F020074FF001024FF48041204602D103
:101240003A464FF4804105F019FE01224FF4005157
:10125000204605F013FE00224FF40051204605F011
:101260000DFE013E4FEA5505DCD1254C08268025B0
:1012700000224FF40051204605F000FE15F09407BF
:101280004FF001024FF48041204602D13A464FF41C
:10129000804105F0F3FD01224FF40051204605F096
:1012A000EDFD00224FF40051204605F0E7FD013E20
:1012B0004FEA5505DCD1124C082500224FF40051AD
:1012C000204605F0DBFD00224FF48041204605F06A
:1012D000D5FD01224FF40051204605F0CFFD00223C
:1012E0004FF40051204605F0C9FD013DE5D1BDE8B0
:1012F000F840034801224FF4805105F0BFBD00BF04
:1013000000040240F8B5C0EB00113C4C3C4D20708D
:101310008A0002F110002F183A4BD7F804C0AE58DB
:101320002858C3F814C005EB810130322A44CF6934
:101330008D6AD2E901121861C3E90D1218461E60C8
:10134000DF619D6207F028F800284DD12E482378F0
:101350002E4A2F490260342202FB03F28B188A586E
:10136000D3E901514260DA688560C1601D6959693D
:1013700002619A6945618161DD69196AC2615A6ACF
:10138000056241629D6AD96A82621A8E828693F8EA
:10139000323080F83630C0E90B5106F08BFC50BB80
:1013A00022781C4B1C4953F832404C6003EBC203BB
:1013B00000225B68CB60CB624FF0404302264FF4C3
:1013C00080658C624B620524FF230F480A86C1E9C1
:1013D0000754C1E905330E610A608A6081F8322042
:1013E00006F0D8FC18B9F8BD01F024FAAEE7BDE864
:1013F000F84001F01FBA01F01DFAD1E7AC0000205F
:1014000030DB0108B0000020040200200068014029
:10141000C4DD010800E00108EC00002070B4124BAC
:10142000124C1D78124B03EA002004EBC503C900DF
:101430005E6854F8354001F4FC6140EA010343EA78
:10144000D20276B16CB14FF0C04500206900002394
:1014500001339C4241F8022BFAD1013086422544E7
:10146000F4D170BC704700BFAC00002000E0010860
:1014700000F8FFFF10B4064A064B127803EBC204D3
:1014800053F83220636802605DF8044B0B607047CC
:10149000AC00002000E00108F0B5E04B1C78012C06
:1014A00087B00ED0023C072C09D8DD4801228021EC
:1014B00005F0E4FCDB480122202105F0DFFC07B049
:1014C000F0BD2246D648802105F0D8FC2246D548FA
:1014D000202105F0D3FCD3480022202105F0CEFCCA
:1014E00022462021CF48002505F0C8FCCE480495AF
:1014F00000260327CDE90055CDE9025501F02EFB6A
:1015000069464FF400420123C548CDE90023CDE9E7
:10151000026705F0C7FA69464FF480420123C048CC
:10152000CDE90023CDE9026705F0BCFA69464FF426
:1015300000520123BA48CDE90023CDE9026705F046
:10154000B1FAFFF73FFE2046FFF74AFD052005F000
:1015500037FAFFF781FDFFF735FE2820FFF740FD42
:10156000FFF77AFDFFF72EFECF20FFF739FD284663
:10157000FFF7FAFC8120FFF7F7FC3020FFF7F4FCBF
:10158000FFF76AFDFFF71EFEED20FFF729FD64203F
:10159000FFF7EAFC0320FFF7E7FC1220FFF7E4FC6B
:1015A0008120FFF7E1FCFFF757FDFFF70BFEE82076
:1015B000FFF716FD8520FFF7D7FC2046FFF7D4FC88
:1015C0007920FFF7D1FCFFF747FDFFF7FBFDCB20AC
:1015D000FFF706FD3920FFF7C7FC2C20FFF7C4FCFE
:1015E0002846FFF7C1FC3420FFF7BEFC0220FFF7BE
:1015F000BBFCFFF731FDFFF7E5FDF620FFF7F0FC40
:101600002046FFF7B1FC2846FFF7AEFC0620FFF7A7
:10161000ABFCFFF721FDFFF7D5FDF720FFF7E0FC5E
:101620002020FFF7A1FCFFF717FDFFF7CBFDEA2015
:10163000FFF7D6FC0620FFF797FC2846FFF794FC3F
:10164000FFF70AFDFFF7BEFDC020FFF7C9FC26200B
:10165000FFF78AFCFFF700FDFFF7B4FDC120FFF79D
:10166000BFFC1120FFF780FCFFF7F6FCFFF7AAFD97
:10167000C520FFF7B5FC3520FFF776FC3E20FFF7CD
:1016800073FCFFF7E9FCFFF79DFDC720FFF7A8FCFF
:10169000BE20FFF769FCFFF7DFFCFFF793FD362064
:1016A000FFF79EFC4020FFF75FFCFFF7D5FCFFF73C
:1016B00089FD3A20FFF794FC6020FFF755FCFFF707
:1016C000CBFCFFF77FFDB020FFF78AFCC020FFF7BF
:1016D0004BFCFFF7C1FCFFF775FDB120FFF780FC65
:1016E0002846FFF741FC1B20FFF73EFCFFF7B4FC48
:1016F000FFF768FDF220FFF773FC0220FFF734FCD0
:10170000FFF7AAFCFFF75EFD2620FFF769FC2046E5
:10171000FFF72AFCFFF7A0FCFFF754FDE020FFF7DE
:101720005FFC1F20FFF720FC1A20FFF71DFC18208C
:10173000FFF71AFC0A20FFF717FC0F20FFF714FC35
:101740000620FFF711FC4520FFF70EFC8720FFF76E
:101750000BFC3220FFF708FC0A20FFF705FC0720EE
:10176000FFF702FC0220FFF7FFFB0720FFF7FCFB5F
:101770000520FFF7F9FB2846FFF7F6FBFFF76CFCA7
:10178000FFF720FDE120FFF72BFC2846FFF7ECFBDD
:101790002520FFF7E9FB2720FFF7E6FB0520FFF7F1
:1017A000E3FB1020FFF7E0FB0920FFF7DDFB3A2009
:1017B000FFF7DAFB7820FFF7D7FB4D20FFF7D4FBCC
:1017C0000520FFF7D1FB1820FFF7CEFB0D20FFF718
:1017D000CBFB3820FFF7C8FB3A20FFF7C5FB1F20E3
:1017E000FFF7C2FBFFF738FCFFF7ECFC1120FFF717
:1017F000F7FB0A2005F0E4F8FFF72EFCFFF7E2FC08
:101800002920FFF7EDFB0A2005F0DAF8FFF724FCAA
:10181000054801F049F907B0F0BD00BFAC00002059
:1018200000040240000C02407C030020F0B4994206
:10183000BDF8106014D20B4C9042247810D20A4D9F
:1018400055F834C000F1C04701FB0C756D0004462B
:101850000134A24245F8026BFAD101318B42F3D137
:10186000F0BC7047AC00002000E0010810B4074C49
:10187000074B247853F834305DF8044B03FB010127
:1018800001F1C04149000A60704700BFAC00002070
:1018900000E00108024801224FF4804105F0EEBA51
:1018A00000080240024800224FF4804105F0E6BAE9
:1018B00000080240024801224FF4004105F0DEBA60
:1018C00000080240024800224FF4004105F0D6BA59
:1018D000000802400FB400B5ADF20C4D0DF5826268
:1018E00002A852F8041B01920BF0B4FD02A8FEF707
:1018F00087FC02A982B24FF47A73044808F04AFACE
:101900000DF20C4D5DF804EB04B07047700400203C
:10191000F8B5262303FB00F4394B3A4D195D3A48DC
:1019200029721C44FFF7D6FF617838486972FFF7C7
:10193000D1FFA1783648A972FFF7CCFFE17835488E
:10194000E972FFF7C7FFA1883348A981FFF7C2FFFB
:10195000E1883248E981FFF7BDFF218930482982BB
:10196000FFF7B8FF61892F486982FFF7B3FFA189AC
:101970002D48A982FFF7AEFFE1892C48E982FFF7E5
:10198000A9FF218A2A482983FFF7A4FF618A2948F1
:101990006983FFF79FFFA18A2748A983FFF79AFF72
:1019A000E18A2648E983FFF795FF218B2448254FDC
:1019B0002984FFF78FFF618B2348244E6984FFF74A
:1019C00089FFA18B2248A984FFF784FFE18BE9847A
:1019D0003846FFF77FFF218C29853046FFF77AFFD5
:1019E000618C69853846FFF775FFA18CA985304663
:1019F000FFF770FF2846BDE8F84001F085BA00BF48
:101A0000CCE10108BC08002058E0010868E00108AA
:101A100080E0010898E00108B0E00108C8E0010892
:101A2000E0E00108F0E0010804E1010818E1010824
:101A30002CE101083CE1010850E1010864E10108E2
:101A400078E10108A8E1010884E10108BCE101088E
:101A500094E10108054B10B4262404FB003084886F
:101A6000C3880C605DF8044B13607047CCE101083B
:101A700010B53F493F4800220AF05EFF044600B916
:101A800010BD3D48013CFFF725FF122C6AD8DFE866
:101A900004F00F14191E23282D32373C41464B50B9
:101AA000555A5F640A003548FFF714FF012010BD46
:101AB0003348FFF70FFF012010BD3248FFF70AFF40
:101AC000012010BD3048FFF705FF012010BD2F4851
:101AD000FFF700FF012010BD2D48FFF7FBFE01209E
:101AE00010BD2C48FFF7F6FE012010BD2A48FFF775
:101AF000F1FE012010BD2948FFF7ECFE012010BDCA
:101B00002748FFF7E7FE012010BD2648FFF7E2FE59
:101B1000012010BD2448FFF7DDFE012010BD234841
:101B2000FFF7D8FE012010BD2148FFF7D3FE0120AA
:101B300010BD2048FFF7CEFE012010BD1E48FFF764
:101B4000C9FE012010BD1D48FFF7C4FE012010BDD5
:101B50001B48FFF7BFFE012010BD1A48FFF7BAFE71
:101B6000012010BD1848FFF7B5FE012010BD00BFD1
:101B70003C390020703B0020D8E20108ACE50108A8
:101B8000E4E201081CE3010830E3010850E3010826
:101B900068E3010880E30108A0E30108DCE3010831
:101BA00004E401082CE4010854E4010878E4010885
:101BB00094E40108B4E40108DCE4010820E501082C
:101BC00060E501088CE50108C8E50108D0B5234CA3
:101BD00086B0012610270023CDE9026702A94FF441
:101BE00080520126002720460193CDE9046707F0C3
:101BF0009FFC642004F0E4FECDE904670226102770
:101C0000CDE9026702A920464FF48052032610272F
:101C100007F08EFCCDE9026702A920464FF48052FE
:101C200004260027CDE9046707F082FC40F2312347
:101C30000193019B059302A901234FF48052204692
:101C4000042610270493CDE9026707F071FC2046B3
:101C500040F26A5107F084FC06B0D0BD7C01002040
:101C600030B51A4889B0FFF735FEFFF7AFFF1848C7
:101C7000184B0360042510234FF48054C0E903532C
:101C8000446207250224CDE900454FF4C0724FF4A9
:101C90004061042406250023CDE9024582610162EA
:101CA0000222022402256946C0E90133CDE9044538
:101CB0004361C3618362069207F018FC08B909B05A
:101CC00030BD00F0B7FD09B030BD00BFD0E5010860
:101CD0007C010020400100A0F0B53A4B052889B0F6
:101CE00018703DD9063803283DD80022082136480F
:101CF00005F0C4F8642004F063FE01220821324894
:101D000005F0BCF84FF4FA6004F05AFE04AD01236C
:101D10006422CDE90132822131222C48009505F060
:101D200045FE9DF810102A48FFF7D4FD274A92F887
:101D30003D30242BFBD064220E23CDE901320095E7
:101D4000012320228221214805F030FEBDF8122017
:101D5000BDF810101F48FFF7BDFD002009B0F0BD11
:101D600020B909B0F0BD002009B0F0BD0022082163
:101D70001548ADF8102005F081F8642004F020FE2D
:101D80001148124F0122082105F078F84FF4FA604B
:101D900004F016FE062404AD642602232A460096AB
:101DA0007021384605F0B8FA0346621E3220002B37
:101DB000D9D012F0FF0402D004F002FEEDE70120BA
:101DC00009B0F0BD2401002000100240B001002045
:101DD000E8E50108F8E5010810B4064A064B127858
:101DE00003EB820433F82220638802605DF8044B21
:101DF0000B6070472401002018E6010870B52B4BDA
:101E00001B78052BC6B005460C461AD9063B032B9A
:101E100018D8274A92F83D30242BFBD006AE642216
:101E20003223CDE90132009601231022822120487D
:101E300005F0BCFD7388B2882B600020226046B09C
:101E400070BD13B9002046B070BD03204FF47A7600
:101E50008DF817000DF11702154800960123702127
:101E600005F05AFA10B1012046B070BD04231048A5
:101E7000009606AA702105F097FB0346A0B99DF8CD
:101E800018609DF81A009DF819109DF81B2006F0A7
:101E90000F0600F00F0042EA002241EA0621184630
:101EA0002960226046B070BD0220CCE724010020EA
:101EB000B001002030B51848184B036008241025E5
:101EC0004023C4604FF4005489B0C0E904538462D5
:101ED00007250224CDE900454FF4C0724FF400619C
:101EE000042407250023CDE9024582610162022214
:101EF000032402256946C0E90133CDE90445C361E5
:101F00004362069207F0F2FA08B909B030BD00F05A
:101F100091FC09B030BD00BF7C010020400100A051
:101F20002E4B1A6802B17047F0B589B02C49019266
:101F3000012018608B6B2B4843F001038B638B6B84
:101F400003F00103002403250C26019302A94FF698
:101F50003F020223CDE90223CDE90445019F069605
:101F600004F0A0FD02A90C2202231F480696CDE929
:101F70000223CDE9044504F095FD02A920220223A5
:101F80001A480696CDE90223CDE9044504F08AFDFE
:101F900002A948F23712022315480696CDE902231A
:101FA000CDE9044504F07EFD02A94FF683720223B9
:101FB00010480696CDE90223CDE9044504F072FDF0
:101FC0004CF2037202230C48069602A9CDE904459F
:101FD000CDE9022304F066FD09B0F0BD2801002020
:101FE000003802400014024000080240001C024079
:101FF0000018024000100240000C02402DE9F04F92
:10200000002791B0CDE90A77CDE90C778E49019789
:102010000E97086B8D4BDFF84492DFF84482DFF8AF
:1020200044B28B4EDFF840A240F010000863086B0A
:1020300000F01000019001980297086B40F4807046
:102040000863086B00F48070029002980397086B95
:1020500040F004000863086B00F00400039003984C
:102060000497086B40F020000863086B00F0200024
:10207000049004980597086B40F080000863086B93
:1020800000F08000059005980697086B40F001006D
:102090000863086B00F00100069006980797086B2C
:1020A00040F002000863086B00F0020007900798F8
:1020B0000897086B40F040000863086B00F0400090
:1020C000089008980997086B40F008000863096BAE
:1020D00001F00801184609913A460C21099C04F0C8
:1020E000CDFE3A4648464FF4404104F0C7FE3A461A
:1020F0004046402104F0C2FE3A4658464FF484510F
:1021000004F0BCFE3A463046022104F0B7FE3A46DF
:1021100050464FF4004104F0B1FE3A464D48B0211C
:1021200004F0ACFE494B0024002518460AA90C22F5
:102130000123CDE90A23CDE90C4504F0B3FC0AA93B
:1021400030464FF480720023CDE90A230C9704F047
:10215000A9FC0AA948464FF400520023CDE90A23FE
:102160000C9704F09FFC48460AA94FF44042012313
:10217000CDE90C45CDE90A2304F094FC4FF0010CA5
:102180000AA9504640F205120023CDF830C0CDE92F
:102190000A2304F087FC012340220AA94046CDE926
:1021A0000A23CDE90C454FF0000904F07BFC4046C2
:1021B0000AA94FF08008CDE90A890C974FF484589A
:1021C00004F070FC4FF0010958460AA9CDE90C450E
:1021D000CDE90A8904F066FC4FF002080AA93046EE
:1021E0004FF00109CDE90C45CDE90A8904F05AFC0C
:1021F0004FF4004850460AA94FF00109CDE90C45BB
:10220000CDE90A8904F04EFC4FF0B008CDE90C4549
:102210000AA91048104D4FF00109CDE90A89202480
:1022200004F040FC0AA93046CDE90A450C9704F0B9
:1022300039FC3A463946172004F0D4FB172004F045
:1022400009FC11B0BDE8F08F0038024000100240D8
:1022500000200240000C0240000011100008024063
:10226000001C024000040240000002400B480C49E0
:1022700008B50C4B03604FF480420023C0E90233E1
:10228000C0E90533C0E907334160026104F080FF13
:1022900000B908BDBDE8084000F0CCBAB00100208C
:1022A000801A06000054004070B50268184B88B0D0
:1022B00000249A42CDE90244CDE90444069401D0B9
:1022C00008B070BD134D00942B6B134843F002030C
:1022D0002B632B6B03F0020300934FF44072122325
:1022E000CDE9022301220323CDE9042302A904231B
:1022F0000693009E04F0D6FB01942B6C43F400136C
:102300002B642B6C03F400130193019B08B070BD88
:1023100000540040003802400004024030B58FB045
:102320003422002168460AF073FF2A482A4B0360D2
:10233000452409234FF080524461836140F29F4459
:1023400040F26E239F21C0E9094302610023162257
:10235000C161026240F23F5140F27A228386C0E9B5
:102360000B12C0E90133C36080F8363005F0A2FCDF
:1023700048BB00244FF48065CDE9004500244FF4AC
:102380001675CDE902450224FF25CDE90445FF2459
:102390004FF48065CDE9064505244FF04045CDE971
:1023A000084500224FF480644FF416750948ADF8D3
:1023B00030206946CDE90A458DF8322005F0EAFC67
:1023C00020B90FB030BD00F035FAD2E700F032FA94
:1023D0000FB030BD04020020006801402DE9F04F2D
:1023E0000168B04B91B000229942CDE90A22CDE9B3
:1023F0000C220E9202D011B0BDE8F08F03F55043CD
:102400000092596CA84841F080615964596C01F000
:102410008061009100990192196B41F010011963DC
:10242000196B01F01001019101990292196B41F4AD
:1024300080711963196B01F4807102910299039202
:10244000196B41F020011963196B01F02001039110
:1024500003990492196B41F004011963196B01F09F
:102460000401049104990592196B41F0010119636B
:10247000196B01F00101059105990692196B41F064
:1024800080011963196B01F080010691069907928A
:10249000196B41F002011963196B01F002010791F8
:1024A00007990892196B41F040011963196B01F00B
:1024B0004001089108990992196B41F008011963CC
:1024C0001B6B03F008030E240026002709934FF02E
:1024D000700A4FF0020B0AA9CDE90C67099B0E9414
:1024E000CDE90AAB04F0DEFA40F2D16202230AA978
:1024F0006E480E94CDE90A234FF480684FF002092C
:10250000CDE90C6704F0CEFA0AA969480E94CDE92A
:102510000C67CDE90A8904F0C5FA0AA981220223D1
:1025200064480E94CDE90C67CDE90A2304F0BAFAA9
:102530000AA96A22022360480E94CDE90C67CDE90E
:102540000A2304F0AFFA0AA91C2202235B480E9466
:102550000925CDE90C67CDE90A2304F0A3FA0AA9FD
:102560000322022356480E95CDE90C67CDE90A23D4
:1025700004F098FA0AA94FF4C652022351480E9467
:10258000CDE90C67CDE90A2304F08CFA4822022336
:102590000AA94D480E94CDE90A23CDE90C6704F051
:1025A00081FA0AA947480E95CDE90C67CDE90A8959
:1025B0000026032704F076FA0AA93B480E94CDE9D9
:1025C0000AABCDE90C6704F06DFA40F2D162022348
:1025D0000AA936480E94CDE90A23CDE90C6704F028
:1025E00061FA0AA932480E94CDE90A89CDE90C674F
:1025F00004F058FA0AA9812202232E480E94CDE94C
:102600000A23CDE90C6704F04DFA0AA96A220223D5
:1026100029480E94CDE90A23CDE90C6704F042FA6B
:102620000AA91C22022325480E94CDE90A23CDE9EC
:102630000C6704F037FA0AA90322022320480E95FA
:10264000CDE90A23CDE90C6704F02CFA0AA94FF46E
:10265000C65202231B480E94CDE90A23CDE90C672C
:1026600004F020FA022348220AA917480E94CDE963
:102670000A23CDE90C6704F015FA0AA911480E9552
:10268000CDE90A89CDE90C6704F00CFA0022114665
:10269000582004F0A7F9582004F0DCF911B0BDE887
:1026A000F08F00BF0068014000100240002002408F
:1026B000001402400008024000000240001C0240DA
:1026C0000004024000180240000C0240F0B5002453
:1026D000A7B0214616A83C22CDE90A44CDE90C4416
:1026E000CDE90244CDE9044406940AF091FD294A5B
:1026F0000094116C284B41F080511164126C02F06F
:1027000080520092009A01941A6842F440421A6082
:102710001B6803F44043019301224FF48033CDE959
:10272000082302224FF48003CDE90E230622B423AE
:10273000CDE9102302210222072308A80F26022731
:10274000CDE912231491019D05F094FF05F090FC52
:10275000CDE902674FF4805302A8052100264FF40B
:10276000A057CDE904670693C02605F057FD08275A
:102770004FF4C47106224FF0006316A8CDE91A6722
:102780002094249416911D92239305F005FE27B002
:10279000F0BD00BF003802400070004008B51F4B7C
:1027A0004FF480329A6062B6FFF790FF1C4B1D4ACF
:1027B0001A60FFF723FCFFF77DFBFFF757FDFFF7DC
:1027C000ADFD00F039F800F0C9F800F029F900F08B
:1027D00049F900F03DFA00F057FA08F02BFE00F03E
:1027E000CDFAFFF73DFA1048FFF774F80F48FFF7EE
:1027F00071F84FF4961200214FF040400AF008FDA6
:102800000948FFF767F80A48FFF764F802F062FF2B
:10281000142004F0D5F803F0EDFBFCE700ED00E038
:1028200004190020BC08002040E6010858E6010811
:1028300078E60108704700BF0C480D4B10B50360E7
:102840000423012417214FF4E06243600023C0E910
:102850000412C0E906338460C360036205F046FCDD
:1028600000B910BDBDE81040FFF7E4BFAC02002086
:10287000001000A070B50168334A8AB0002391426D
:10288000CDE90433CDE90633089301D00AB070BD19
:102890002E4A0093916B2E4841F002019163916B97
:1028A00001F00201009100990193116B41F02001A8
:1028B0001163116B01F02001019101990293116BD9
:1028C00041F001011163116B01F0010102910299C4
:1028D0000393136B43F002031363136B092103F09B
:1028E0000203002403250393C0220223089104A9B4
:1028F000CDE90423039ECDE906450A2604F0D2F86B
:102900004FF44072022304A911480896CDE904232C
:10291000CDE9064504F0C6F88022022304A90D483B
:102920000896CDE90423CDE9064504F0BBF8402222
:1029300002230948089604A9CDE90645CDE90423F8
:1029400004F0B0F80AB070BD001000A000380240DA
:10295000001402400000024000040240064B074AF7
:102960001A604FF480410022C3E90122C3E9032227
:1029700059619A61704700BFF8020020002C0140A5
:1029800070B50168234A8AB000239142CDE904332F
:10299000CDE90633089301D00AB070BD02F5863246
:1029A0000193516C1C4841F400615164516C01F475
:1029B0000061019101990293116B41F004011163CF
:1029C000116B01F00401029102990393136B43F020
:1029D00008031363136B03F00803039303994FF485
:1029E000F8520223002403250C2604A9CDE9042370
:1029F000CDE90645089604F055F80422022307485D
:102A0000089604A9CDE90645CDE9042304F04AF867
:102A10000AB070BD002C014000080240000C0240CA
:102A20000E480F4B10B503604FF482734FF40074DF
:102A300020210A2243600023C0E90641C0E9023395
:102A4000C0E90433C0E90833C262836206F0FCFDCA
:102A500000B910BDBDE81040FFF7ECBED403002064
:102A6000003001400E480F4B10B54FF40071036069
:102A70004FF4827400230A22C0E90233C0E9043310
:102A8000C0E90733C0E9093344608161C26206F0DE
:102A9000DBFD00B910BDBDE81040FFF7CBBE00BFA5
:102AA0007C0300200038004030B5026827498BB015
:102AB00000238A42CDE90433CDE90633089304D0DC
:102AC00023498A4226D00BB030BD224A0093516C74
:102AD000214841F480515164516C01F480510091BE
:102AE00000990193136B43F002031363136B03F01C
:102AF00002030193019A04A93824022505230893AF
:102B000000220323CDE90445CDE9062303F0CAFFE3
:102B10000BB030BD0F4A0293116C0F4841F4804155
:102B20001164116C01F48041029102990393136BBB
:102B300043F002031363136B03F002030393039A3E
:102B400004A94FF4604402250523D8E70030014072
:102B50000038004000380240000402400E4A03687A
:102B6000934203D00D4A93420AD0704702F5843253
:102B70000B48536C23F480535364382104F0BAB8E3
:102B800002F500320648136C23F4804313644FF4BB
:102B9000604104F0AFB800BF003001400038004091
:102BA00000040240704700BFFEE700BFFEE700BF21
:102BB000FEE700BFFEE700BF704700BF704700BFE1
:102BC000704700BF03F0EABE08B5202004F05CF9AE
:102BD000044B0549054801221A60BDE80840FFF78B
:102BE0000DB900BF200100207801002074010020F1
:102BF0000C490D4A0B6810B50C4C121B2BB1184434
:102C0000904207D80860184610BD094B0B60184465
:102C10009042F7D90AF0B6FA0C2303604FF0FF3365
:102C2000184610BD2C0100200000052000280000DF
:102C3000B03D0020054BD3F888204FF0006142F4EE
:102C40007002C3F888209960704700BF00ED00E073
:102C50000B4808B50B4B03604FF4E13100230C2205
:102C6000C0E90233C0E9063341604261036106F006
:102C7000F5FF00B908BDBDE80840FFF7DBBD00BFA8
:102C80002C040020004800400B4808B50B4B0360A3
:102C90004FF4E13100230C22C0E90233C0E90633CE
:102CA00041604261036106F0D9FF00B908BDBDE88B
:102CB0000840FFF7BFBD00BF7004002000140140B2
:102CC00030B5026828498BB000238A42CDE904332D
:102CD000CDE90633089304D024498A4227D00BB0AB
:102CE00030BD234A0093116C224841F480211164C5
:102CF000116C01F48021009100990193136B43F052
:102D000002031363136B03F002030193019A04A9F6
:102D10004FF4406402250723089300220323CDE9E2
:102D20000445CDE9062303F0BDFE0BB030BD104ACB
:102D30000293516C104841F020015164516C01F034
:102D40002001029102990393136B43F04003136334
:102D5000136B03F040030393039A04A94FF48444D4
:102D600002250823D8E700BF0048004000140140B6
:102D70000038024000040240001802400C4810B520
:102D8000002302224FF0A0440621C0E90041C0E91F
:102D90000733C0E90B33C26082610361436205F00F
:102DA000BDF800B910BDBDE81040FFF743BD00BF3E
:102DB000B4040020F0B5036889B00024B3F1A04F3B
:102DC000CDE90244CDE90444069401D009B0F0BD38
:102DD000194D00942B6B194843F001032B632B6BA7
:102DE000049403F0010300934FF400720099002350
:102DF00002A94FF4C0560227CDE9022303F052FE88
:102E0000CDE902670A230D48069302A9002603278D
:102E1000CDE9046703F046FE6B6B43F080036B6300
:102E200001946B6C43F480436B646B6C03F48043DC
:102E30000193019B09B0F0BD003802400000024040
:102E4000DFF834D0002103E00C4B5B5843500431D1
:102E50000B480C4B42189A42F6D30B4A02E000236F
:102E600042F8043B094B9A42F9D3FFF7E3FE0AF01C
:102E70008FF9FFF793FC70470000052008EF010869
:102E8000000000207400002074000020B03D0020ED
:102E9000FEE7000070B5104D2B68B3F5805F064665
:102EA0000C460AD20D4A13441C603046214602F0FB
:102EB00033FA2B6804332B6070BD0948FEF70AFD16
:102EC0002A681AB90022054B2A60EDE7034930460B
:102ED00002F01CF9F6E700BF0819002004090020E1
:102EE000B0E6010810B5064C226812B90023236031
:102EF00010BD044901F07EFE0023236010BD00BF19
:102F00000819002004090020F0B583B0044601A888
:102F100001F0EAFA204601F0EDFA2046012101F025
:102F2000FFFC2046682101F0DFFC4FF4967001F0B1
:102F300015FDA37A002B40F02E814421204601F09C
:102F4000D3FC0621204601F077FD0021204601F048
:102F5000CBFC4FF4967001F001FD207A974B984915
:102F6000984A994F994E012818BF1946204601F0FA
:102F70006FFC217A204601290CBF3946314601F009
:102F8000ABFB7C280ED0237A012B3146204608BFAC
:102F9000394601F0A1FB05464FF4967001F0DEFCC6
:102FA0007C2DF0D1217A8A4F8A4E204601290CBF10
:102FB0003946314601F090FB68B1237A012B314646
:102FC000204608BF394601F087FB0546642001F022
:102FD000C5FC002DF1D1628D7F49204601F008FC2F
:102FE00094F82C207D49204601F0D8FB207A7C4BB8
:102FF0007C49228A012818BF1946204601F0F8FBB7
:10300000207A794B7949628A012818BF19462046EF
:1030100001F0EEFB207A764B7649A28A012818BF90
:103020001946204601F0E4FB207A734B7349E28A8B
:10303000012818BF1946204601F0DAFB207A704BB0
:103040007049228B012818BF1946204601F0D0FB99
:10305000207A6D4B6D49628B012818BF19462046B6
:1030600001F0C6FB207A6A4B6A49A28B012818BF7F
:103070001946204601F0BCFB207A674B6749E28B7A
:10308000012818BF1946204601F0B2FB207A644B94
:10309000644994F82220012818BF1946204601F0FF
:1030A0007DFB207A604B614994F82420012818BFE9
:1030B0001946204601F072FB207A5D4B5D49A289DA
:1030C000012818BF1946204601F092FB207A5A4B7E
:1030D0005A49E289012818BF1946204601F088FBA9
:1030E000207A574B5749E28C012818BF19462046D1
:1030F00001F07EFB207A544B5449228D012818BFE1
:103100001946204601F074FB207A514B514942F296
:103110001072012818BF1946204601F099FB207A49
:103120004D4B4E498022012818BF1946204601F018
:1031300035FBA37A002B34D1207A494B4949FF2231
:10314000012818BF1946204601F028FB207A46497D
:10315000464BFF22012818BF1946204601F01EFBEE
:10316000204602F0AFF9207A414B424994F82020E2
:10317000012818BF1946204601F010FB217A3E4A6B
:103180003E4B204601290CBF1146194601F0D0FAEA
:10319000E08503B0F0BD01220021204601F0ACFC27
:1031A000CBE6204636494FF6FF7201F021FB354948
:1031B0008022204601F01CFBD2E700BF0C2030002B
:1031C0000C24100000A24A0400241000002030004B
:1031D0001C24100020203000142630001826300057
:1031E0002C20300028241000302030002C24100027
:1031F00038203000342410003C20300038241000E7
:10320000402030003C2410004420300040241000B6
:103210004C20300048241000502030004C24100076
:1032200064203000602410006C20300068241000FE
:103230003420300030241000482030004424100096
:103240006820300064241000602030005C241000EE
:10325000D0203000C0241000D4203000C42410003E
:10326000902030008C241000902410009420300016
:10327000702030006C241000E8241000FC20300086
:10328000982030009C2030002DE9F041444C1E462F
:1032900015468846074600F021FF236846EA0841A4
:1032A00041EA0522B3F5805F42F000753AD23D4E07
:1032B00033441D602946384602F02EF82368043353
:1032C000B3F5805F23604ED23344374919603846E6
:1032D00002F022F823680433B3F5805F236039D20B
:1032E000334400211960384602F016F8236804338D
:1032F000B3F5805F236024D21E444FF0045138465A
:10330000316002F009F8236838460433236000F086
:1033100035FE226882B9002338462360BDE8F041BB
:1033200001F068BE2148FEF7D5FA226822BB1D4E87
:10333000002233462260BCE71A49384601F05AFCA5
:10334000E9E71A48FEF7C6FA226822BB0023154EA9
:103350002360D2E71548FEF7BDFA2268B2B9002211
:10336000104B2260BDE71148FEF7B4FA226842B95B
:1033700000220C4B2260A8E70A49384601F0C6FE3D
:10338000D5E70849384601F0C1FEF1E7054938465E
:1033900001F0BCFEE3E70349384601F0B7FED5E78C
:1033A000081900200409002007000026B0E60108E3
:1033B0002DE9F04FCC4DCD4BCD4C2868B3F80CA087
:1033C000B3F80EB087B000F089FE23682F68B3F51C
:1033D000805F80F0CA82C74E33446FF07D4138462B
:1033E000196001F099FF23682F680433B3F5805FFB
:1033F000236080F01F833344BF491960384601F0D1
:103400008BFF23682868CDF800B000210322CDE9A6
:1034100001121F1D0A465346276000F0DFFD286891
:1034200000210BFB0AF200F037FE23682F68B3F58A
:10343000805F80F0F0823344B0491960384601F073
:103440006BFF23682F680433B3F5805F236080F03F
:10345000D9823344AA491960384601F05DFF2368D8
:103460002F680433B3F5805F236080F0C18233445A
:103470004FF080713846196001F04EFF23682F68C5
:103480000433B3F5805F236080F0A88233444FF0AB
:10349000C0613846196001F03FFF9A4F2368D5F8A4
:1034A0000080CBF30802043307EA4A27174305924A
:1034B000B3F5805F4FEA4A2247F0E3672360049246
:1034C00080F0828233441F604046394601F024FF79
:1034D0002368D5F800904FEA1A27043307F00C0749
:1034E000CBF3412847EA0807B3F5805F47F0205740
:1034F000236080F05F82334439461F60484601F004
:103500000BFF814A049923682F6801EA0209059A92
:10351000043349EA0209B3F5805F49F0006923608A
:1035200080F03E823344C3F800903846494601F0AB
:10353000F3FE2368D5F800904FEADA1707F00C077E
:10354000043347EA0808B3F5805F48F02457236046
:1035500080F01B823344484639461F6001F0DCFE90
:10356000236828680433236000F008FD2268286877
:10357000002A40F005824FF00008C4F8008001F0F6
:1035800039FD624BDFF894915A4F03EACA4A47F675
:10359000F07303EA0B1B4AEA0B0B4BF0804B2868D5
:1035A00000F09CFD2368D5F800A0B3F5805F80F0A3
:1035B000918133446FF07D415046196001F0ACFEBB
:1035C0002368D5F800A00433B3F5805F236080F052
:1035D0005981334448491960504601F09DFE2368E3
:1035E000D5F800A00433B3F5805F236080F05E81DE
:1035F000334447491960504601F08EFE2368D5F8E0
:1036000000A00433B3F5805F236080F0278133444A
:103610004FF080415046196001F07EFE2368D5F8D6
:1036200000A00433B3F5805F236080F04981334408
:103630005046C3F800B0594601F06EFE2368D5F835
:1036400000A00433B3F5805F236080F01181334420
:1036500030491960504601F05FFE244B2068DA893A
:1036600099892D4B01934FF4C06300F1040C009332
:103670002868C4F800C01F235208490800F006FC5F
:103680002368D5F800A0B3F5805F80F0058133444E
:103690004FF080615046196001F03EFE2368D5F876
:1036A00000A00433B3F5805F236080F0CD80334405
:1036B00012491960504601F02FFE2368D5F800A08A
:1036C0000433B3F5805F236080F0B48033440C4949
:1036D0001960504601F020FE2368D5F800A004339D
:1036E000B3F5805F1CE000BF04190020BC08002077
:1036F0000819002004090020070000260100001F0F
:103700000100000500FE070000FE03000000F83F76
:103710000900001F00960004C4E60108B0E6010895
:10372000236073D233444FF0C0615046196001F0FA
:10373000F3FD2368D5F800A00433B3F5805F236060
:103740006ED233444FF080415046196001F0E4FDE1
:103750002368D5F800A00433B3F5805F23604BD213
:1037600033444FF004515046196001F0D5FD2368F1
:10377000AD4804330421236003F07AFB22682B68F0
:10378000B2F5805F82462BD232441846C2F80080E0
:10379000002101F0C1FD236828680433236000F094
:1037A000EDFB226828685AB901F024FC322001F0B0
:1037B000D5F8BAF1000F3FF4F2AE07B0BDE8F08FD4
:1037C000394601F017FA2868C4F8008001F012FCAD
:1037D000322001F0C3F8BAF1000F3FF4E0AEECE79D
:1037E00048460493FEF776F82268049B002A7AD1B3
:1037F000C4F800803A46C8E74846FEF76BF82268EE
:10380000002A76D1C4F800803B46AAE74846FEF776
:1038100061F82268002A76D1C4F800803B4682E72E
:103820004846FEF757F82268002A67D1C4F800809E
:103830003B4687E74846FEF74DF82268002A6CD1E0
:10384000C4F800803B4642E74846FEF743F822684A
:10385000002A76D1C4F800803B4629E74846FEF7A7
:1038600039F82268002A62D1C4F800803B46CFE6CE
:103870004846FEF72FF82268002A6CD1C4F8008071
:103880003B46E5E64846FEF725F82268002A49D17E
:10389000C4F800803B469DE64846FEF71BF82268C8
:1038A000002A53D1C4F800803B46F1E64846FEF7B3
:1038B00011F82268002A3FD1C4F800803B4698E600
:1038C0004846FEF707F82268002A49D1C4F800806C
:1038D0003B46ADE64846FDF7FDFF2268C2B9C4F895
:1038E00000803B4666E61846394601F00FFC049B13
:1038F0007EE73946504601F009FC83E739465046D9
:1039000001F004FC92E73946504601F0FFFB83E7E3
:103910003946504601F0FAFBE1E73946504601F0DE
:10392000F5FB8DE73946504601F0F0FBB0E739462C
:10393000504601F0EBFB97E73946504601F0E6FBB5
:10394000BAE73946504601F0E1FB83E73946504675
:1039500001F0DCFBA6E73946504601F0D7FB8DE7C6
:103960003946504601F0D2FBB0E73048FDF7B2FFD0
:103970002268002A67D12E4E0022334622602CE5B1
:103980002B4901F037F92868F5E52848FDF7A2FF33
:103990002268002A40F084800022254B2260DAE56C
:1039A0002248FDF797FF2268002A74D10022204B9D
:1039B0002260B8E51D48FDF78DFF2268002A65D119
:1039C00000221B4B226097E51848FDF783FF226811
:1039D000002A56D10022164B226074E51348FDF7E9
:1039E00079FF2268002A47D10022114B22604EE560
:1039F0000E48FDF76FFF2268002A38D100220C4BD9
:103A0000226035E50948FDF765FF226852BB0022B8
:103A1000074B22601EE50548FDF75CFF2268E2B90E
:103A20000022034B226007E500000240B0E60108D7
:103A3000040900201D48FDF74DFF226842B900220D
:103A40001B4B2260D8E41A49384601F05FFB92E72D
:103A50001749384601F05AFBF1E71549384601F09D
:103A600055FBDDE71249384601F050FBCFE710491E
:103A7000384601F04BFBC1E70D49384601F046FBE3
:103A8000B2E70B49404601F041FBA3E7084948462D
:103A900001F03CFB94E70649384601F037FB85E727
:103AA0000349484601F032FB76E700BFB0E6010863
:103AB000040900202DE9F043ADF5813D91B0884621
:103AC00016460146012204A81D4608F075FF079915
:103AD000A94233D3B5F1807F3DD86DB30DF50247D0
:103AE000DFF89890403701E02D1B25D0B5F5004F49
:103AF0002C4628BF4FF40044324623464146D9F8AD
:103B00000000009700F0B0FC03AB224690A904A887
:103B100009F04EF92246394690A809F05DFB26448B
:103B20000028E1D0002404A809F07AFA20460DF517
:103B3000813D11B0BDE8F0830124F4E70D48FDF7A5
:103B4000C9FE04A809F06CFA002420460DF5813D59
:103B500011B0BDE8F0834FF080710748FDF7BAFE61
:103B600004A809F05DFA002420460DF5813D11B04E
:103B7000BDE8F083D4E60108F0E60108041900204E
:103B800010B51D4C1D49206800F0A6FD01281BD072
:103B90002068002100F0FEFA1849206800F09CFD22
:103BA000206800F0DFFA1648FDF794FE2068FFF762
:103BB00099F91448FDF78EFE206801F01BFA1248AF
:103BC000FDF788FE012010BD1048FDF783FE206838
:103BD00000F0FEFA2068FFF785F9206801F00AFA84
:103BE0000649206800F078FD0228D1D00848FDF78A
:103BF00071FE002010BD00BF04190020F025300028
:103C000048E7010860E7010878E701080CE70108C8
:103C100028E701082DE9F04FADF5024D8FB00446BD
:103C2000884602A82146012208F0C6FE002851D18C
:103C3000059D9DB32C4FDFF8BCA0DFF8B0900026A7
:103C4000B34600E09DB3B5F5004F2C4628BF4FF4B6
:103C50000044224601AB8EA902A809F0A9F8264427
:103C60005946386823468EAA00F07AFEB6F5801FC2
:103C7000A5EB0405A344E5D306F6FF7606EA0A069B
:103C80004146002238683346B04400F043FB3246D8
:103C900041464846FDF71EFE002DD0D102A809F08E
:103CA000BFF901200DF5024D0FB0BDE8F08F06F60B
:103CB000FF7424F47F6424F00F042A4641463868D8
:103CC000234600F027FB224604EB08010748FDF7D6
:103CD00001FEE3E721460648FDF7FCFD00200DF557
:103CE000024D0FB0BDE8F08F041900209CE70108D9
:103CF000ACE7010800F0FFFF70B53F4C05460E46EB
:103D000020683E4900F0E8FC012809D032462846E8
:103D10000021FFF77FFF012817D00025284670BD3E
:103D2000206800F055FA2068FFF7DCF8206801F001
:103D300061F93249206800F0CFFC0228E6D0002566
:103D40002F48FDF7C7FD284670BD2068FFF7CAF869
:103D5000206801F04FF92949206800F0BDFC0128D6
:103D600039D0206800F04CFA2068FFF7BBF82068D3
:103D700001F040F92149206800F0AEFC0128054619
:103D800023D1206800F024FA2068FFF7ABF8206800
:103D900001F030F91949206800F09EFC0228CED1CC
:103DA0000021206800F0F6F92068FFF79BF82068F2
:103DB00001F020F92068114900F08EFC0328ADD0F5
:103DC0001048FDF787FD0025A8E700250E48FDF700
:103DD00081FD284670BD206800F0FAF92068FFF7E1
:103DE00081F8206801F006F90449206800F074FCAD
:103DF0000228B6D0A3E700BF04190020F025300048
:103E0000CCE7010814E80108F0E7010810B5044602
:103E10000E48FDF75FFD20460021FFF76DFF58B10A
:103E20000B48FDF757FD0022204611464FF4805302
:103E3000FFF740FE20B110BD0648FDF74BFDEFE750
:103E4000BDE810400348FDF745BD00BF44E8010848
:103E500094E8010880E8010808B50948FDF73AFD33
:103E6000FFF78EFE20B1BDE808400648FDF732BDE1
:103E70000548FDF72FFDBDE808400248FDF72ABDC3
:103E8000B4E80108ECE80108D8E801082DE9F04F92
:103E900083B00546DDF83490BDF830B048461C4686
:103EA00088469246FCF7ACF9EE7A0EABC7B20193A6
:103EB00016B11BF480564FD10C23043727F00307AB
:103EC0001F44BFB23946284601F046F83A46012160
:103ED000284600F035FB6FF0F301284600F092FB16
:103EE0001FFA88F141EA0A41284600F08BFBA1B293
:103EF00041EA0B41284600F085FB4946284600F080
:103F00005FFB4846FCF77CF9C04310F0030818BF7C
:103F1000002407D0013400212846E4B200F06EFBF3
:103F20004445F7DB76B1013E019CF6B2013604EB65
:103F300086060434284654F8041C019400F062FB01
:103F4000B442F6D1284600F0BDFB3946284600F0C1
:103F500011FE03B0BDE8F08F4846002605E0437827
:103F6000252B0EBF0230D6B20130252109F04FFAC1
:103F7000721C0028F3D1B3000C339EE710B5042166
:103F8000044600F0E9FF20460422012100F0D8FA9F
:103F90006FF0FE01204600F035FB204600F092FB5A
:103FA00020460421BDE8104000F0E4BD10B5042116
:103FB000044600F0D1FF20460422012100F0C0FA9F
:103FC0006FF0E801204600F01DFB204600F07AFB70
:103FD00020460421BDE8104000F0CCBD2DE9F0479B
:103FE00004460D4614211E461746BDF820A0DDF8F4
:103FF0002490BDF8288000F0AFFF14222046012154
:1040000000F09EFA20466FF0CF0100F0FBFAA9B253
:1040100041EA0741204600F0F5FA46EA0A41204607
:1040200000F0F0FA4946204600F0ECFA41462046FE
:1040300000F0E8FA204600F045FB20461421BDE8D8
:10404000F04700F097BD00BFF8B504460F461021B9
:104050001D46164600F080FF10222046012100F088
:104060006FFA20466FF0E40100F0CCFA39462046A2
:1040700000F0C8FA3146204600F0C4FA294620462E
:1040800000F0C0FA204600F01DFB20461021BDE8DC
:10409000F84000F06FBD00BF70B504460E460C211D
:1040A000154600F059FF0C222046012100F048FA85
:1040B00020466FF0E30100F0A5FA3146204600F0FB
:1040C000A1FA2946204600F09DFA204600F0FAFAAF
:1040D00020460C21BDE8704000F04CBD10B5042115
:1040E000044600F039FF20460422012100F028FA9E
:1040F0006FF0FF01204600F085FA204600F0E2FA5A
:1041000020460421BDE8104000F034BD2DE9F04107
:1041100004460F4610211E461546BDF8188000F0D3
:104120001BFF10222046012100F00AFA20466FF002
:10413000BC0100F067FA3946204600F063FA45EA10
:104140000641204600F05EFA4146204600F05AFA49
:10415000204600F0B7FA20461021BDE8F04100F0FB
:1041600009BD00BF10B50421044600F0F5FE20464D
:104170000422012100F0E4F96FF0BB01204600F0B9
:1041800041FA204600F09EFA20460421BDE8104086
:1041900000F0F0BC38B504460D46082100F0DCFE06
:1041A00008222046012100F0CBF920466FF0B5012E
:1041B00000F028FA2946204600F024FA204600F0B4
:1041C00081FA20460821BDE8384000F0D3BC00BF8A
:1041D00010B50421044600F0BFFE20460422012150
:1041E00000F0AEF96FF0B601204600F00BFA204661
:1041F00000F068FA20460421BDE8104000F0BABC87
:1042000010B50421044600F0A7FE20460422012137
:1042100000F096F96FF0B701204600F0F3F9204660
:1042200000F050FA20460421BDE8104000F0A2BC86
:1042300038B50421044600F08FFE042220460121F7
:1042400000F07EF96FF0B701204600F0DBF9204660
:1042500000F038FA0421204600F08CFC2046FEF7DE
:1042600041FE204600F0C6FE2949204600F034FAFF
:10427000012801D0002038BD05460421204600F069
:104280006BFE04222946204600F05AF96FF0B60171
:10429000204600F0B7F9204600F014FA0421204629
:1042A00000F068FC2046FEF71DFE204600F0A2FE4E
:1042B0001749204600F010FA0228DBD120460821D9
:1042C00000F04AFE08222946204600F039F96FF036
:1042D000B501204600F096F90021204600F092F941
:1042E000204600F0EFF90821204600F043FC20466C
:1042F000FEF7F8FD204600F07DFE0549204600F05F
:10430000EBF9A0F10300B0FA80F0400938BD00BF1E
:10431000F02530002DE9F047C1F30B0702F003064A
:104320003E4363D1B3F5805F0D46914698460446FF
:10433000C0F08780C3F30B071021002F59D000F085
:104340000BFE10220121204600F0FAF86FF0B801B0
:10435000204600F057F92946204600F053F9A8EB13
:10436000070A4946204600F04DF95146204600F024
:1043700049F9204600F0A6F91021204600F0FAFB8A
:104380002046FEF7AFFD204600F034FE454408EB22
:10439000090210212046ED1BD71B00F0DDFD102285
:1043A0000121204600F0CCF86FF0B801204600F063
:1043B00029F92946204600F025F93946204600F023
:1043C00021F94FF48051204600F01CF9204600F0FE
:1043D00079F91021204600F0CDFB2046FEF782FD42
:1043E000204600F007FE3046BDE8F0870120BDE81A
:1043F000F08700F0B1FD10222046012100F0A0F866
:104400006FF0B801204600F0FDF82946204600F084
:10441000F9F84946204600F0F5F84146204600F0FC
:10442000F1F8204600F04EF91021204600F0A2FBE2
:104430002046FEF757FD204600F0DCFD3846BDE87B
:10444000F087102100F088FD10220121204600F0A5
:1044500077F86FF0B801204600F0D4F829462046DE
:1044600000F0D0F84946A9E72DE9F04102F03F05F8
:10447000174601F00302154302D00120BDE8F08188
:1044800004460E46102123F0030800F065FD1022BB
:104490002046012100F054F86FF0B901204600F0E9
:1044A000B1F83146204600F0ADF83946204600F01C
:1044B000A9F84146204600F0A5F8204600F002F990
:1044C0001021204600F056FB2046FEF70BFD20464B
:1044D00000F090FD2046069A4346314600F074FAFB
:1044E0002846BDE8F08100BF08B501F049F8012079
:1044F00008BD00BF10B50021044601F069F8204650
:10450000012101F065F82046022101F061F8012245
:104510001146204601F05EF801220021204601F0FC
:1045200059F8204601F030F800230122C01A84F81F
:104530003D2084F8323018BF0120C4F82E3010BD61
:1045400070B5057AC38D012D0CBF4FF484154FF45F
:10455000421582B004462B44C1B90A461D0C8DF8A1
:1045600006301B0A8DF807108DF805308DF80450C1
:1045700001F030F8042202230DEB0201204601F085
:104580001BF8012384F8323002B070BD1D0C0022EC
:104590001E0A114665F07F058DF806308DF804502F
:1045A0008DF8056001F016F80223032201A92046C8
:1045B00001F002F8022384F8323002B070BD00BF6F
:1045C00070B5054608460C46FBF71AFE80B260B18E
:1045D000461EB6B20136264414F8011B95F8322067
:1045E000284600F0D3FFA642F6D195F8322028469F
:1045F0000021BDE8704000F0C9BF00BF90F8322034
:1046000000F0C4BF38B590F83220022A04462DD0FD
:10461000002100F0BBFF94F832200546002120461F
:1046200000F0B4FF94F8322045EA0025022AADB22A
:104630004FF0000120460FD000F0A8FF94F8322080
:104640000346002120461C4600F0A0FF44EA00205B
:1046500045EA0045284638BD00F098FF94F832201E
:104660002046002100F092FF284638BD0D46C9B211
:1046700000F08CFF94F83220C5F30721204600F0AB
:1046800085FF94F83220022A0CD00021204600F049
:104690007DFF002594F832202046002100F076FFAF
:1046A000284638BDC5F3074120462D0C00F06EFFAB
:1046B000290A94F832202046002500F067FF28469A
:1046C00038BD00BF10B501220446002100F082FF72
:1046D000002384F8323010BD70B582B000250B0A7B
:1046E0000E0C2A468DF80610294604468DF8046003
:1046F0008DF805308DF8075000F06CFF042202237E
:104700000DEB02010126204600F056FF84F83260CE
:1047100032462946204600F039FF324629460646F1
:10472000204600F057FF304684F8325002B070BD8A
:10473000F0B5002583B00B460F0C0E0A2A46294619
:1047400004468DF806308DF804708DF805608DF8FC
:10475000075000F03FFF0422022301270DEB020166
:10476000204600F029FF84F832703A462946204658
:1047700000F00CFF94F8322006462946204600F04F
:1047800005FF3A4629460746204600F023FF46EA41
:10479000072080B284F8325003B0F0BD70B582B00B
:1047A0001546C1F305430022044663F07F030E0A59
:1047B0008DF8061011468DF804308DF8056000F074
:1047C00009FF022301A92046032200F0F5FE022280
:1047D000294684F83220204600F0D8FE20460122E7
:1047E000002100F0F7FE002384F8323002B070BDE3
:1047F00070B582B01546C1F305430022044663F04C
:104800007F030E0A8DF8061011468DF804308DF8DE
:10481000056000F0DFFE022301A92046032200F01C
:10482000CBFE022284F83220E9B2204600F0AEFE30
:1048300094F83220290A204600F0A8FE20460122E2
:10484000002100F0C7FE002384F8323002B070BDB2
:1048500070B582B01546C1F305430022044663F0EB
:104860007F030E0A8DF8061011468DF804308DF87E
:10487000056000F0AFFE0223032201A9204600F0EC
:104880009BFE022284F83220E9B2204600F07EFE30
:1048900094F83220C5F30721204600F077FE94F803
:1048A0003220022A13D00021204600F06FFE94F837
:1048B00032200021204600F069FE0122002120461E
:1048C00000F088FE002384F8323002B070BDC5F3DA
:1048D000074120462D0C00F059FE94F83220290A99
:1048E000204600F053FEE8E730B5002483B00B46C5
:1048F0000546224621468DF804308DF805408DF896
:10490000064000F067FE062301A92846032200F0B6
:1049100053FE28462146012200F05CFE03B030BD64
:1049200038B5054681B10022012100F053FE142064
:1049300000F028FE01222846012100F04BFEBDE8D0
:104940003840142000F01EBE01220C46114600F033
:1049500041FE142000F016FE2246ECE700F012BEE5
:10496000F0B583B0C1F30547144600224FEA112C7D
:1049700005468DF8061067F07F0711461E468DF834
:1049800005C08DF8047000F025FE0322284602239E
:1049900001A900F011FE022285F8322056B126440A
:1049A00001E095F8322014F8011B284600F0EEFDD6
:1049B000B442F6D101220021284600F00BFE00236C
:1049C00085F8323003B0F0BDF0B583B000274FEA70
:1049D000114E4FEA112C8DF80610144639463A460E
:1049E00005461E468DF804E08DF805C08DF8077069
:1049F00000F0F0FD04220DEB02012846022300F036
:104A0000DBFD012285F832205EB1264401E095F8F5
:104A100032200021284600F0B9FD04F8010BB44211
:104A2000F5D101220021284600F0D4FD002385F8AD
:104A3000323003B0F0BD00BF70B5062982B00C461D
:104A400005460BD005292FD0042945D003291DD0B8
:104A500002294AD0002945D002B070BD002644F298
:104A6000616332463146ADF804308DF8066000F0DF
:104A7000B1FD2346032201A9284600F09DFD3146E1
:104A80002846012200F0A6FD02B070BD002640F2CB
:104A9000613332463146ADF804308DF8066000F0DF
:104AA00099FD22460623E6E700242246214644F2E9
:104AB0006153ADF804308DF8064000F08BFD0623FD
:104AC00001A90322284600F077FD2146284601224D
:104AD00000F080FD02B070BD00242246214644F261
:104AE0006143E6E761230A46E3E7002422462146C4
:104AF00040F26123DDE700BF022935D82DE9F041FE
:104B0000531E012B82B0154631D8022A4FF0000205
:104B100004460CBF41F00408884688230E4642F242
:104B2000B01711468DF80630ADF8047000F052FD54
:104B30000223032201A9204600F03EFD0222414645
:104B400084F83220204600F021FD01220021204679
:104B500000F040FD002084F83C6084F83D5084F86B
:104B6000320002B0BDE8F0814FF0FF3070474FF0E7
:104B7000FF30F6E770B5C28D037A1144012B82B085
:104B800001F1030140F6FC7505EA01054FF0000252
:104B90000CBFE821FC2104460BBF9023B023242640
:104BA00020268DF80610C58511468DF804308DF845
:104BB000056000F00FFD022301A92046032200F04A
:104BC000FBFC022205F0FC0184F83220204600F0B4
:104BD000DDFC94F83220290A204600F0D7FC20465C
:104BE0000122002100F0F6FC002384F8323002B0EC
:104BF00070BD00BF2DE9F04FC58D85B004468B46D2
:104C0000924600264FF00109A846237A8DF80F60DE
:104C1000012B4FF000020BBFE427F82724252025A5
:104C20000CBF10233023114620468DF80E708DF8EE
:104C30000D508DF80C3000F0CDFC0223042203A9A6
:104C4000204600F0B9FC0122002184F83290204671
:104C500000F09CFC94F8322007460021204600F02A
:104C600095FC012205460021204600F0B3FC47EAEE
:104C70000520A8EB0005C5F30B05C5F57F650C35D0
:104C8000ADB2554528BF554684F83260237A8DF879
:104C90000F60012B4FF000020BBF242720271023A9
:104CA00030230CBF4FF0E40C4FF0F80C11462046B7
:104CB0008DF80EC08DF80D708DF80C30E78D00F07A
:104CC00089FC0223042203A9204600F075FC01227E
:104CD000002184F83290204600F058FC94F83220ED
:104CE00080460021204600F051FC01220190002165
:104CF000204600F06FFC019B84F8326048EA0320F4
:104D00003F1AC7F30B07C7F57F670C37BFB2BD4229
:104D1000BCD8227AE38D012A0CBF4FF484124FF4E1
:104D2000421213441F0C00224FEA132C114667F065
:104D30007F0720468DF80DC0ADB28DF80E308DF88E
:104D40000C704FF0020800F045FC0223032203A977
:104D5000204600F031FC2A460023594684F8328070
:104D6000204600F029FC012207460021204600F0E1
:104D700031FCE58D237A84F832603D44C5F30B05A0
:104D8000033525F00305012B4FEA05550CBFE8203C
:104D9000FC204FEA15554FF000020BBF9023B023C3
:104DA0004FF0240C4FF0200C11468DF80E00E585D5
:104DB00020468DF80DC08DF80C3000F00BFC02235E
:104DC000032203A9204600F0F7FB05F0FC010222B4
:104DD00084F83280204600F0D9FB94F83220290A6A
:104DE000204600F0D3FB01220021204600F0F2FB18
:104DF000BB4484F83260237A8DF80F60012B4FF0AA
:104E000000020BBF4FF0E40C4FF0F80C24252025D6
:104E10000CBF10233023114620468DF80EC08DF8AC
:104E20000D508DF80C3000F0D5FB0223042203A9AD
:104E3000204600F0C1FB0122002184F83290204678
:104E400000F0A4FB94F8322080460021204600F0B8
:104E50009DFB012248EA00280021204600F0BAFB11
:104E6000237A84F83260012B0CBFE820FC204FF03D
:104E700000020BBF242520251023302311468DF876
:104E80000E0020468DF80D508DF80C308DF80F6017
:104E900000F0A0FB0223042203A9204600F08CFBB3
:104EA0000122002184F83290204600F06FFB94F834
:104EB000322005460021204600F068FB45EA002527
:104EC0000FFA88F82DB201220021204600F082FB63
:104ED000A84584F832608ED1237A8DF80F60012BBB
:104EE0000CBFE820FC204FF000020BBF242520253A
:104EF0001023302311468DF80E0020468DF80D50FA
:104F00008DF80C3000F066FB0223042203A9204632
:104F100000F052FB0122002184F83290204600F07C
:104F200035FB94F8322005460021204600F02EFB88
:104F3000012245EA00250021204600F04BFB1FFA24
:104F400085F8BAEB070AA4F82E8084F832607FF463
:104F50005CAE05B0BDE8F08F2DE9F043054683B0A7
:104F60000F4600262B7A8DF80760012B4FF00002C8
:104F70000BBF24242024102330230CBF4FF0E40C5B
:104F80004FF0F80C114628468DF806C08DF8054004
:104F90008DF80430EC8D00F01DFB042202234FF04D
:104FA00001090DEB0201284600F006FB4A4685F890
:104FB00032900021284600F0E9FA95F83220804628
:104FC0000021284600F0E2FA4A46002181462846A0
:104FD00000F000FB48EA0920231AC3F30B03C3F5D2
:104FE0007F630C339BB2BB4285F83260BAD303B007
:104FF000BDE8F0832DE9F041044682B04FF000088F
:10500000237A8DF80780012B4FF000020BBF242577
:105010002025E426F8260CBF102330231146204615
:105020008DF805508DF806608DF8043000F0D2FA46
:105030000422012702230DEB0201204600F0BCFAF6
:105040003A46002184F83270204600F09FFA94F826
:10505000322006460021204600F098FA3A4646EAF9
:1050600000260021204600F0B5FA237A84F8328029
:10507000BB424FF000020BBF242520251023302314
:105080000CBF4FF0E80C4FF0FC0C114620468DF899
:1050900006C08DF805508DF804308DF8078000F0BB
:1050A00099FA042202230DEB0201204600F084FA53
:1050B0003A46002184F83270204600F067FA94F8EE
:1050C000322005460021204600F060FA45EA00251E
:1050D00036B22DB23A460021204600F07BFAAE42AD
:1050E00084F832808CD1217A064A074B2046B94297
:1050F0000CBF11461946FFF71BFBE08502B0BDE867
:10510000F08100BFE8241000FC2030002DE9F04FB2
:10511000044685B08A469146002740F6FC7B237AF8
:105120008DF80F70012B4FF000020BBFE426F8261C
:10513000242520250CBF10233023114620468DF84E
:105140000E608DF80D50E68D8DF80C3000F042FAAF
:105150000223042203A9204600F02EFA4FF0010397
:1051600084F8323001220021204600F00FFA94F832
:10517000322080460021204600F008FA0122054630
:105180000021204600F026FA48EA0520351AC5F32A
:105190000B05ABEB0505ADB24D4528BF4D4684F878
:1051A0003270237A8DF80F70012B4FF000020BBF85
:1051B00024262026102330230CBF4FF0E40C4FF0A0
:1051C000F80C114620468DF80EC08DF80D608DF854
:1051D0000C30E68D00F0FEF90223042203A92046DC
:1051E00000F0EAF94FF0010384F832300122002187
:1051F000204600F0CBF994F832208046002120466A
:1052000000F0C4F9012201900021204600F0E2F9EB
:10521000019B84F8327048EA0320361AC6F30B0665
:10522000ABEB0606B6B2B542BBD8227AE38D012AB3
:105230000CBF4FF484124FF4421213441E0C002290
:105240004FEA132C114666F07F0620468DF80DC0FC
:10525000ADB28DF80E308DF80C604FF0020800F002
:10526000B9F90223032203A9204600F0A5F92A4632
:105270000023514684F83280204600F09DF9012237
:1052800006460021204600F0A5F9E58D237A84F832
:1052900032703544C5F30B05012B05F103050CBF36
:1052A000E820FC200BEA05054FF000020BBF90231D
:1052B000B0234FF0240C4FF0200C11468DF80E0057
:1052C000E58520468DF80DC08DF80C3000F082F990
:1052D0000223032203A9204600F06EF905F0FC0129
:1052E000022284F83280204600F050F994F83220EF
:1052F000290A204600F04AF901220021204600F048
:1053000069F9B9EB0609B24484F832707FF407AF4B
:1053100005B0BDE8F08F00BF2DE9F043044683B02F
:105320000E460027237A8DF80770012B4FF00002FC
:105330000BBF24252025102330230CBF4FF0E40C95
:105340004FF0F80C114620468DF806C08DF8055038
:105350008DF80430E58D00F03DF9042202234FF072
:1053600001090DEB0201204600F026F94A4684F8B7
:1053700032900021204600F009F994F8322080464E
:105380000021204600F002F94A46002181462046CD
:1053900000F020F948EA09202B1AC3F30B03C3F5E8
:1053A0007F630C339BB2032B84F83270BAD9227A14
:1053B000E38D012A0CBF4FF484124FF442121344C0
:1053C0001D0C00221F0A114665F07F0520468DF84E
:1053D00006308DF804508DF8057000F0FBF80223BC
:1053E000032201A9204600F0E7F8022284F83220C7
:1053F000F1B2204600F0CAF894F83220C6F3072133
:10540000204600F0C3F894F83220022A4CD0002144
:10541000204600F0BBF894F832200021204600F02E
:10542000B5F800210122204600F0D4F8E38D227A5D
:105430000733012A40F6FC7606EA03060BBFE82193
:10544000FC21242020204FF000050CBF9023B02326
:105450002A468DF806108DF805002946E68584F861
:10546000325020468DF8043000F0B4F8022301A930
:105470000322204600F0A0F8022206F0FC0184F886
:105480003220204600F082F894F83220310A20467B
:1054900000F07CF829460122204600F09BF884F8B1
:1054A000325003B0BDE8F083C6F307412046360C06
:1054B00000F06CF894F83220310A204600F066F8CB
:1054C000AFE700BF70B5037A2C4D82B00022012BEC
:1054D0000CBF9023B023044611468DF805208DF8AB
:1054E00004308DF8062000F075F80322204601A94B
:1054F000022300F061F8022284F8322005F10C0644
:1055000001E094F8322015F8011B204600F03EF827
:10551000B542F6D100210122204600F05BF8237A43
:10552000012B0BBF50215421242020204FF00005D7
:105530000CBF9023B0232A468DF806108DF8050085
:10554000294684F8325020468DF8043000F042F8A5
:10555000022301A90322204600F02EF8022284F83B
:1055600032201146204600F011F82946012220463B
:1055700000F030F884F8325002B070BD04E9010840
:105580000120704701F01CBA0120704710B586B0A9
:105590004FF0FF330C4600930DF1170201230DF17C
:1055A0000F0104488DF80F4004F0D2F99DF8170060
:1055B00006B010BD7C03002010B54FF0FF33144639
:1055C000024804F0A1F8204610BD00BF7C03002073
:1055D00001207047012910B50C460DD006D80948A6
:1055E0004FF4805101F04AFC012010BD8C1E022CAA
:1055F0008CBF0020012010BD0348402101F03EFC7B
:10560000204610BD00040240001C024070B50C4E44
:105610000C4D3068296882B04FF6FF74821E8B1ED5
:10562000183806390094FCF701F9306829680094AD
:105630008B1E821E18390638FCF7F8F802B070BDD0
:10564000243900201C39002070B582B04FF6FF7459
:1056500002210094084606231822FCF7E7F80F4EB3
:105660000F4D00940221084618230622FCF7DEF8AD
:10567000306829680024821E8B1E18380639009471
:10568000FCF7D4F83068296800948B1E821E183904
:105690000638FCF7CBF802B070BD00BF24390020FB
:1056A0001C39002010B5FF2282B011461046FBF7CE
:1056B000B5FE002402210846009406231822FCF7B8
:1056C000B5F802210094084618230622FCF7AEF82C
:1056D00002B010BD2DE9F04F95B0FCF7C9F970B9D3
:1056E000164B1B7863B1164E3378052B3DD8DFE897
:1056F00013F0ED033300160420042A043404FEE7FB
:10570000104B1B78042B14D8DFE813F03E0368031A
:1057100084038D03CC030920FBF7F4FD0920FCF77B
:10572000DBFA09490948FBF7A5FE09490948FCF7D6
:1057300053FBFBF7B1FE15B0BDE8F08F060000206B
:1057400004000020050000201C390020243900201E
:10575000203900200C39002001210220FCF7D8F864
:10576000C24AC3490220FCF775F9C24CC24DDFF8AA
:1057700024B3DFF824A3DFF8349303272068FEF76F
:10578000ADFC20685946FDF785FB20685146FDF7C2
:1057900081FBBA492068FDF77DFBEA89A989B84BEE
:1057A00002974FF4B0580193CDF800809208143A54
:1057B0001F2320684908FEF769FB49462068FEF769
:1057C0008BFFEA89A989AF4B0193CDF80080029045
:1057D00092081E321C2320684908FEF757FB2068F8
:1057E0004FF00451FDF756FB00212068FDF752FBF6
:1057F0002068FEF7C3FB2068FDF774FB2068FFF705
:10580000F9FB4FF4FA70FFF7A9F8013FB6D19A48B7
:10581000FEF70EFD9C492068FEF75EFF3378043BDF
:10582000012B074685D86420FBF788FB002800F091
:105830009F833378DFF87882DFF87892DFF878B2E8
:10584000042B0CBF914B924B0FCB04AFBC46ACE882
:10585000070020688CF80030FEF740FC20688D4976
:10586000FDF718FB20688C49FDF714FB20684FF00A
:105870008061FDF70FFB20688049FDF70BFB4FF4BB
:10588000C06AEA89A989CDF800A0CDF80480920801
:105890001C2320684908FEF7F9FA20684FF00451EC
:1058A000FDF7F8FA00212068FDF7F4FA2068FEF70A
:1058B00065FB2068FDF716FB2068FFF79BFBFEF7F2
:1058C000CBFA7648FEF7A2FA2068FEF707FC2068BC
:1058D0007049FDF7DFFA20686F49FDF7DBFA2068B1
:1058E0004FF08061FDF7D6FA20686449FDF7D2FADF
:1058F000EA89A989CDE900A89208206849081C23F3
:10590000FEF7C4FAEA89A989CDF800A0CDF8049081
:10591000920828321C2320684908FEF7B7FA20684D
:105920004FF00451FDF7B6FA00212068FDF7B2FAF6
:105930002068FEF723FB2068FDF7D4FA2068FFF704
:1059400059FB3378042B0CBF504B514B0FCBBC464B
:10595000ACE8070038468CF80030FAF751FC504AA2
:10596000034607EB030CB2F804E01068F85000227D
:10597000ACF804E04FF480513846FEF74BF920684C
:10598000FEF7ACFB20684349FDF784FA20684249E2
:10599000FDF780FA20684FF08061FDF77BFA206800
:1059A0003649FDF777FA4FF4C06AEA89A989CDF83C
:1059B00000A0CDF804802068920849081C23FEF757
:1059C00065FAEA89A989CDF800A0CDF8049092087B
:1059D00020681E3249081C23FEF758FAEA89A98973
:1059E000CDF800A0CDF804B092083C321C2320680A
:1059F0004908FEF74BFA20684FF00451FDF74AFAC8
:105A000000212068FDF746FA2068FEF7B7FA206803
:105A1000FDF768FA2068FFF7EDFA3378042B0CBF26
:105A20001A4B1B4B0FCBBC46ACE8070038468CF832
:105A30000030FAF7E5FB1B4A1B49B2F804C00346E5
:105A400007EB030E1068F8500022AEF804C0384689
:105A5000FEF7E0F82068FEF741FB20680D49FDF7EE
:105A600019FA20680C49FDF715FA27E01C390020C7
:105A70002439002004190020BC080020FF00000485
:105A800010E901081CE90108F025300030E901089F
:105A900040E90108969696020700002670E9010881
:105AA000A4E90108D0E9010800101000249030009A
:105AB00050E9010880E90108ACE9010820684FF0CD
:105AC0008061FDF7E7F92068B549FDF7E3F94FF488
:105AD000C06AEA89A989CDF800A0CDF804802068C1
