:020000040801F1
:10000000000005204D300108B12D0108B52D010873
:10001000B92D0108BD2D0108C12D01080000000007
:10002000000000000000000000000000C52D0108D5
:10003000C92D010800000000CD2D0108D12D0108B7
:100040009D3001089D3001089D3001089D30010858
:100050009D3001089D3001089D3001089D30010848
:100060009D3001089D3001089D3001089D30010838
:100070009D3001089D3001089D3001089D30010828
:100080009D3001089D3001089D3001089D30010818
:100090009D3001089D3001089D300108D52D0108D3
:1000A0009D3001089D3001089D3001089D300108F8
:1000B0009D3001089D3001089D3001089D300108E8
:1000C0009D3001089D3001089D3001089D300108D8
:1000D0009D3001089D3001089D3001089D300108C8
:1000E0009D3001089D3001089D3001089D300108B8
:1000F0009D3001089D3001089D3001089D300108A8
:100100009D3001089D3001089D3001089D30010897
:100110009D3001089D3001089D3001089D30010887
:100120009D3001089D3001089D3001089D30010877
:100130009D3001089D3001089D3001089D30010867
:100140009D3001089D3001089D3001089D30010857
:100150009D3001089D3001089D3001089D30010847
:100160009D3001089D3001089D3001089D30010837
:100170009D3001089D3001089D30010800000000FD
:100180009D3001089D3001089D3001089D30010817
:100190009D3001089D3001089D3001089D30010807
:1001A0009D3001089D3001089D3001089D300108F7
:0401B0009D30010875
:1001C00010B5054C237833B9044B13B10448AFF391
:1001D00000800123237010BD80000020000000007B
:1001E00098DF010808B5034B1BB103490348AFF37F
:1001F000008008BD000000008400002098DF010896
:10020000034613F8012B002AFBD1181A0138704756
:1002100001F0FF01102A2BDB10F0070F08D010F8B7
:10022000013B013A8B422DD010F0070F42B3F6D1BB
:10023000F0B441EA012141EA014122F007047FF0D4
:1002400000070023F0E80256083C85EA010586EA2B
:10025000010685FA47F5A3FA87F586FA47F6A5FA67
:1002600087F68EB9EED1F0BC01F0FF0102F0070273
:1002700032B110F8013B013A83EA010313B1F8D11E
:100280000020704701387047002D06BF35460338FF
:10029000073815F0010F07D1013015F4807F02BF38
:1002A000013015F4C03F0130F0BC0138704700BF89
:1002B00053B94AB9002908BF00281CBF4FF0FF31CD
:1002C0004FF0FF3000F06EB9ADF1080C6DE904CECF
:1002D00000F006F8DDF804E0DDE9022304B0704721
:1002E0002DE9F047089D04468C46002B40F08380A2
:1002F0008A42174647D9B2FA82F242B1C2F12000CF
:1003000024FA00F09140974040EA010C94404FEAF3
:100310001748230CBCFBF8F61FFA87FE08FB16C132
:1003200043EA014306FB0EF1994209D9FB1806F195
:10033000FF3080F01981994240F21681023E3B4421
:100340005B1AA4B2B3FBF8F008FB103344EA034491
:1003500000FB0EFEA64509D93C1900F1FF3380F0E1
:100360000581A64540F2028102383C4440EA06403D
:10037000A4EB0E0400261DB1D4400023C5E90043C0
:100380003146BDE8F08702B9FFDEB2FA82F2002AF8
:1003900050D1CB1B4FEA174E1FFA87F80126B3FB4B
:1003A000FEFC210C0EFB1C3341EA034108FB0CF35D
:1003B0008B4207D979180CF1FF3002D28B4200F240
:1003C000E9808446C91AA3B2B1FBFEF00EFB1011FE
:1003D00043EA014408FB00F8A04507D93C1900F1A5
:1003E000FF3302D2A04500F2D9801846A4EB0804DE
:1003F00040EA0C40BFE78B4209D9002D00F0B180E4
:100400000026C5E9000130463146BDE8F087B3FA61
:1004100083F6002E4AD18B4202D3824200F2B8808A
:10042000841A61EB030101208C46002DA8D0C5E998
:10043000004CA5E7C2F1200320FA03F6974001FA29
:1004400002F04FEA174ED9403043030CB1FBFEF6E1
:100450001FFA87F80EFB161143EA014306FB08F169
:10046000994204FA02F409D9FB1806F1FF3C80F026
:100470008D80994240F28A80023E3B445B1A81B2F1
:10048000B3FBFEF00EFB103341EA034100FB08F31F
:100490008B4207D9791800F1FF3C73D28B4271D996
:1004A00002383944CB1A40EA064678E7C6F1200CF8
:1004B00003FA06F422FA0CF31C4320FA0CF701FAB3
:1004C00006F34FEA144E21FA0CF11F433B0CB1FB2B
:1004D000FEF91FFA84F80EFB191143EA014109FBEA
:1004E00008FA8A4502FA06F200FA06F308D96118FA
:1004F00009F1FF3048D28A4546D9A9F102092144C1
:10050000A1EB0A01BFB2B1FBFEF00EFB101147EAEE
:10051000014700FB08F8B84507D9E71900F1FF319A
:100520002ED2B8452CD90238274440EA0940A7EB1F
:100530000807A0FB02894F45C64649461AD317D083
:100540005DB1B3EB0E0267EB010707FA0CFCF2405A
:100550004CEA0202F740C5E9002700263146BDE813
:10056000F0872E4628460BE70646E9E61846FDE6E4
:100570004345E5D2B8EB020E69EB04010138DFE731
:100580000846D2E760468DE78146B9E7664675E7DB
:1005900030464AE7ACF1020C394413E702383C44D8
:1005A00024E700BF704700BFF0B57A4B1B7885B0D9
:1005B00005460C46032B43D8DFE803F08602C94406
:1005C000912375488DF8083000220421642606F036
:1005D000E3FD032303AA02A97048009609F00AFC70
:1005E0006D480122042106F0D7FD9DF80D209DF8ED
:1005F0000E30694802F07F02DB0843EA4213C3F57C
:100600007F630F332B80D123002204218DF8083023
:1006100006F0C2FD032303AA02A96048009609F070
:10062000E9FB01225C48042106F0B6FD9DF80D208F
:100630009DF80E3002F07F02DB0843EA421323806C
:1006400005B0F0BD9123642653488DF80830002290
:10065000042106F0A1FD03AA02A9032300964F4836
:1006600009F0C8FB4C480122042106F095FD9DF8D5
:100670000D209DF80E30484802F07F02DB0843EA67
:1006800042132B800022D12304218DF8083006F07C
:1006900083FD03AA02A903230096404809F0AAFBA0
:1006A0003D480122042106F077FD9DF80D209DF8BC
:1006B0000E3002F07F02DB0843EA4213C3F57F638A
:1006C0000F33238005B0F0BDD123642732488DF865
:1006D00008300022042106F05FFD03AA02A90323CB
:1006E00000972E4809F086FB2B480122042106F0D2
:1006F00053FD9DF80D209DF80E30274802F07F0233
:10070000DB0840F6FF7643EA4213F31A2B800022FF
:10071000912304218DF8083006F03EFD03AA02A9BA
:10072000032300971D4809F065FB1B4801220421A3
:1007300006F032FD9DF80D209DF80E3002F07F028C
:10074000DB0843EA4213F31A238005B0F0BDD1233E
:1007500011488DF8083000220421642606F01CFDA3
:10076000032303AA02A90D48009609F043FB0A4897
:100770000122042106F010FD9DF80D209DF80E3099
:10078000054802F07F02DB0843EA42132B809123E5
:100790003AE700BFB200002000100240EC03002046
:1007A0002DE9F0434D4D4E4F2A700C464D494E4DAC
:1007B00008801E46014613464C483C80224685B0C0
:1007C0002E8001F075F94A4CDFF83C8120264FF06D
:1007D00000096427B1230022042120468DF8083047
:1007E00006F0DAFC032303AA02A90097404609F0A9
:1007F00001FB01220421204606F0CEFC9DF80D30BD
:100800009DF80E504FF0C10C03F07F03002204212D
:100810002046ED088DF808C045EA431506F0BCFCFB
:10082000032303AA02A90097404609F0E3FA012234
:100830000421204606F0B0FC9DF80D209DF80E30F6
:1008400002F07F02DB0843EA4213C3F57F630F33F4
:100850004FF0D10C9BB20022042120468DF808C035
:10086000AB422CBF9944A94406F096FC032303AA8B
:1008700002A90097404609F0BDFA01220421204652
:1008800006F08AFC91230022042120468DF80830CE
:1008900006F082FC032303AA02A90097404609F050
:1008A000A9FA01220421204606F076FC013E0A2026
:1008B00006F000FA16F0FF068BD10E4B0E491E8093
:1008C0000E480F4A0F4B06804FEA5919A1F80090C5
:1008D00016801E8005B0BDE8F08300BFB200002086
:1008E000B0000020B4000020B6000020B0DF0108F6
:1008F00000100240A0000020A8000020A40000205A
:10090000A2000020A6000020EC0300202DE9F04FFB
:10091000874BDFF838B21A6089B0CBF800108047F7
:100920000023CDE90333DFF82892DFF82882814DD8
:10093000814F9A4602E00A2006F0BCF9B12300225A
:100940000421284664268DF8183006F025FC032380
:1009500007AA06A90096384609F04CFA012204219C
:10096000284606F019FC9DF81D309DF81E404FF0FA
:10097000C10C03F07F03002204212846E40844EA66
:1009800043148DF818C006F007FC032307AA06A934
:100990000096384609F02EFA01220421284606F076
:1009A000FBFB9DF81D009DF81E30B9F80020B8F83B
:1009B000001000F07F00DB0843EA4013C3F57F63BB
:1009C0000F339BB2A3422CBFC2EB0303C2EB040361
:1009D0009BB29942AFD2B3F5805FACD20AF1010A63
:1009E0005FFA8AFABAF1200F07A906A80CD8FFF718
:1009F000DBFDBDF818200399BDF81C301144049AA2
:100A000003911A44049296E7DBF80030494D4A4FAF
:100A100098474FF0000B4FF4FA6006F04BF9DA46B6
:100A2000CDF814B002E00A2006F044F9B123002208
:100A30000421284664268DF8183006F0ADFB032308
:100A400007AA06A90096384609F0D4F90122042124
:100A5000284606F0A1FB9DF81D309DF81E404FF082
:100A6000C10C03F07F03002204212846E40844EA75
:100A700043148DF818C006F08FFB032307AA06A9BC
:100A80000096384609F0B6F901220421284606F0FE
:100A900083FB9DF81D009DF81E30B9F80020B8F8C2
:100AA000001000F07F00DB0843EA4013C3F57F63CA
:100AB0000F339BB2A3422CBFC2EB0303C2EB040370
:100AC0009BB29942AFD2B3F5805FACD20AF1010A72
:100AD0005FFA8AFABAF1200F07A906A80AD8FFF729
:100AE00063FD0599BDF81820BDF81C30114405912F
:100AF0009B4498E70E4B114D1B68114C9847039B84
:100B000010481149C3F34F122A80049B059DC3F37B
:100B10004F13C2EB5512C3EB5B1B02804FF4FA601C
:100B2000A4F800B00B8006F0C5F809B0BDE8F08F5E
:100B3000AC00002000100240EC030020A0000020C8
:100B4000A6000020A2000020A40000209C0000209D
:100B5000A8000020B60000202DE9F04F87B0B12595
:100B60000B4604460022B3488DF81050042164253A
:100B7000CDE9024306F010FB032305AA04A9AE4801
:100B8000009509F037F9AB480122042106F004FB77
:100B90009DF815309DF81640A648C12103F07F034B
:100BA00000228DF81010E408042144EA431406F0F2
:100BB000F3FA032305AA04A99F48009509F01AF93E
:100BC000012204219B4806F0E7FA9DF815109DF8D4
:100BD00016309A4A01F07F01DB0843EA4113C3F55E
:100BE0007F6312880F339BB2A3422CBFC2EB030377
:100BF000C2EB0403924A12889BB29A4202D2B3F526
:100C0000805F03D3002007B0BDE8F08F0025DFF838
:100C10004CB2884FDFF820A22C46A846A9462026D1
:100C20009BF80030032B46D8DFE813F01A015E0171
:100C3000C600040064256FF06E03002204213846CC
:100C40008DF8103006F0A8FA0323009505AA04A930
:100C5000504609F0CFF801220421384606F09CFAEC
:100C60009DF815309DF816404FF0D10C03F07F032E
:100C7000002204213846E4088DF810C044EA4314E9
:100C800006F08AFA0323009505AA04A9504609F044
:100C9000B1F801220421384606F07EFA9DF815309D
:100CA0009DF8165003F07F03ED0845EA4315C5F59E
:100CB0007F650F35ADB2013E16F0FF06A144A84492
:100CC000AED1B12332465B488DF810300421642444
:100CD00006F062FA032305AA04A95748009409F014
:100CE00089F854480122042106F056FA9DF815307F
:100CF0009DF816504F48324603F07F030421ED085B
:100D0000C12645EA43158DF8106006F045FA032325
:100D100005AA04A94848009409F06CF84548012246
:100D2000042106F039FA9DF815009DF81630434A63
:100D300043491288098800F07F00DB0843EA40132A
:100D4000C3F57F630F339BB2AB422CBFC2EB0303EF
:100D5000C2EB05039BB29942BFF454AFB3F5805F79
:100D6000BFF450AF3749384B384A0D881C88384B90
:100D700010881988C9F34F12521BC8F34F13354D11
:100D80001B1B354C2D88248800FB02F292FBF5F2E8
:100D900022EAE272824201FB03F393FBF4F323EABB
:100DA000E373A8BF02468B42A8BF0B4602990A8094
:100DB000039A0120138026E7D1230022042138461C
:100DC00064258DF8103006F0E7F9032305AA04A97D
:100DD0000095504609F00EF801220421384606F02D
:100DE000DBF99DF815309DF816406FF06E0203F0A8
:100DF0007F03E4088DF8102004210022384644EADD
:100E0000431406F0C9F90323009505AA04A9504626
:100E100008F0F0FF01220421384606F0BDF99DF8E4
:100E200015309DF8165003F07F03ED0845EA431591
:100E300041E700BF00100240EC030020A8000020A2
:100E4000B6000020A0000020A4000020B400002074
:100E5000B0000020A2000020A6000020B200002068
:100E6000D1230022042138468DF8103006F094F981
:100E70006423009305AA032304A9504608F0BAFF8F
:100E800001220421384606F087F99DF815309DF8B7
:100E900016406FF06E0203F07F038DF810200421DE
:100EA00000223846E40844EA431406F075F9642346
:100EB000009305AA032304A9504608F09BFF0122D2
:100EC0000421384606F068F99DF815209DF8163083
:100ED00002F07F02DB0840F6FF7543EA42132C1B49
:100EE000ED1AA4B2ADB2E6E66FF06E030022042163
:100EF000384664258DF8103006F04EF9032305AA14
:100F000004A90095504608F075FF012204213846D7
:100F100006F042F99DF815309DF8164003F07F0366
:100F2000E40844EA4314C4F57F640F34D12300225B
:100F300004213846A4B28DF8103062E710B50121C3
:100F40000446084806F022F908B1002010BD2046EA
:100F500005F0B0FE0121034806F018F9B0FA80F060
:100F6000400910BD0000024010B5042104460848A5
:100F700006F00CF908B1002010BD204605F09AFEDD
:100F80000421034806F002F9B0FA80F0400910BDD0
:100F900000000240F8B507461B48002205464FF402
:100FA000005106F0F9F801224FF48041284606F07E
:100FB000F3F801224FF40051284606F0EDF8082618
:100FC000802400224FF40051284606F0E5F817EA85
:100FD00004034FF001024FF4804104BF1A464FF45E
:100FE0008041284608BF284606F0D6F801224FF473
:100FF00000512846D44006F0CFF8013EE1D1BDE8CB
:10100000F840012005F056BE00040240F8B507463E
:101010001B48002205464FF4005106F0BDF800229F
:101020004FF48041284606F0B7F801224FF40051F2
:10103000284606F0B1F80826802400224FF400511B
:10104000284606F0A9F817EA04034FF001024FF40E
:10105000804104BF1A464FF48041284608BF284605
:1010600006F09AF801224FF400512846D44006F0C9
:1010700093F8013EE1D1BDE8F840012005F01ABE29
:10108000000402405948F8B500224FF4805104464C
:1010900006F082F80826802500224FF400512046F1
:1010A00006F07AF815F0B0074FF001024FF48041D6
:1010B000204602D13A464FF4804106F06DF80122F5
:1010C0004FF40051204606F067F800224FF400511B
:1010D000204606F061F8013E4FEA5505DCD1434C4D
:1010E0000826802500224FF40051204606F054F8CF
:1010F00015F020074FF001024FF48041204602D145
:101100003A464FF4804106F047F801224FF400516F
:10111000204606F041F800224FF40051204606F028
:101120003BF8013E4FEA5505DCD1304C08268025BE
:1011300000224FF40051204606F02EF815F09407D7
:101140004FF001024FF48041204602D13A464FF45D
:10115000804106F021F801224FF40051204606F0AC
:101160001BF800224FF40051204606F015F8013E0E
:101170004FEA5505DCD11D4C0826802500224FF48E
:101180000051204606F008F815F083074FF00102E1
:101190004FF48041204602D13A464FF4804105F099
:1011A000FBFF01224FF40051204605F0F5FF00221D
:1011B0004FF40051204605F0EFFF013E4FEA550580
:1011C000DCD10A4801224FF4805105F0E5FF0748C1
:1011D00000224FF4804105F0DFFFBDE8F8400348EE
:1011E00000224FF4005105F0D7BF00BF00040240B9
:1011F0004E48F8B500224FF48051044605F0CCFF6C
:101200000826802500224FF40051204605F0C4FF37
:1012100015F0B0074FF001024FF48041204602D193
:101220003A464FF4804105F0B7FF01224FF40051D8
:10123000204605F0B1FF00224FF40051204605F092
:10124000ABFF013E4FEA5505DCD1384C082680251E
:1012500000224FF40051204605F09EFF15F02007B4
:101260004FF001024FF48041204602D13A464FF43C
:10127000804105F091FF01224FF40051204605F016
:101280008BFF00224FF40051204605F085FF013E00
:101290004FEA5505DCD1254C0826802500224FF465
:1012A0000051204605F078FF15F094074FF0010239
:1012B0004FF48041204602D13A464FF4804105F078
:1012C0006BFF01224FF40051204605F065FF00221C
:1012D0004FF40051204605F05FFF013E4FEA5505EF
:1012E000DCD1124C082500224FF40051204605F0B5
:1012F00053FF00224FF48041204605F04DFF0122AC
:101300004FF40051204605F047FF00224FF40051F2
:10131000204605F041FF013DE5D1BDE8F840034816
:1013200001224FF4805105F037BF00BF0004024096
:10133000F8B5C0EB00113C4C3C4D20708A0002F126
:1013400010002F183A4BD7F804C0AE582858C3F8ED
:1013500014C005EB810130322A44CF698D6AD2E98D
:1013600001121861C3E90D1218461E60DF619D620B
:1013700007F064FA00284DD12E4823782E4A2F49D1
:101380000260342202FB03F28B188A58D3E9015120
:101390004260DA688560C1601D69596902619A69B5
:1013A00045618161DD69196AC2615A6A05624162FB
:1013B0009D6AD96A82621A8E828693F8323080F8EA
:1013C0003630C0E90B5106F003FE50BB22781C4BAF
:1013D0001C4953F832404C6003EBC20300225B68A7
:1013E000CB60CB624FF0404302264FF480658C62A5
:1013F0004B620524FF230F480A86C1E90754C1E95F
:1014000005330E610A608A6081F8322006F050FED2
:1014100018B9F8BD01F0F8FAAEE7BDE8F84001F000
:10142000F3BA01F0F1FAD1E7B8000020D4DF0108E7
:10143000C80000201C0200200068014068E201088A
:10144000A4E4010804010020F0B4144B144C1D78EE
:10145000144B03EA002004EBC503C900D3F804C011
:1014600054F8354001F4FC6140EA010343EAD2023A
:10147000BCF1000F10D07CB100260B4D3746710037
:101480000023286801339C42425001F10201F8D147
:101490000137BC452644F2D1F0BC7047B8000020AB
:1014A000A4E4010800F8FFFF0000002010B4064A81
:1014B000064B127803EBC20453F8322063680260D3
:1014C0005DF8044B0B607047B8000020A4E40108ED
:1014D000F0B5E04B1C78012C87B00ED0023C072CF5
:1014E00009D8DD480122802105F056FEDB480122A3
:1014F000202105F051FE07B0F0BD2246D6488021DC
:1015000005F04AFE2246D548202105F045FED34885
:101510000022202105F040FE22462021CF48002550
:1015200005F03AFECE48049500260327CDE9005584
:10153000CDE9025501F0FCFB69464FF4004201235E
:10154000C548CDE90023CDE9026705F039FC6946BD
:101550004FF480420123C048CDE90023CDE9026762
:1015600005F02EFC69464FF400520123BA48CDE93C
:101570000023CDE9026705F023FCFFF739FE204682
:10158000FFF744FD052005F095FBFFF77BFDFFF716
:101590002FFE2820FFF73AFDFFF774FDFFF728FE26
:1015A000CF20FFF733FD2846FFF7F4FC8120FFF73B
:1015B000F1FC3020FFF7EEFCFFF764FDFFF718FEAB
:1015C000ED20FFF723FD6420FFF7E4FC0320FFF785
:1015D000E1FC1220FFF7DEFC8120FFF7DBFCFFF7C8
:1015E00051FDFFF705FEE820FFF710FD8520FFF70E
:1015F000D1FC2046FFF7CEFC7920FFF7CBFCFFF7AC
:1016000041FDFFF7F5FDCB20FFF700FD3920FFF787
:10161000C1FC2C20FFF7BEFC2846FFF7BBFC3420A2
:10162000FFF7B8FC0220FFF7B5FCFFF72BFDFFF733
:10163000DFFDF620FFF7EAFC2046FFF7ABFC28466B
:10164000FFF7A8FC0620FFF7A5FCFFF71BFDFFF73F
:10165000CFFDF720FFF7DAFC2020FFF79BFCFFF718
:1016600011FDFFF7C5FDEA20FFF7D0FC0620FFF7CC
:1016700091FC2846FFF78EFCFFF704FDFFF7B8FD4D
:10168000C020FFF7C3FC2620FFF784FCFFF7FAFC1D
:10169000FFF7AEFDC120FFF7B9FC1120FFF77AFC80
:1016A000FFF7F0FCFFF7A4FDC520FFF7AFFC3520E6
:1016B000FFF770FC3E20FFF76DFCFFF7E3FCFFF740
:1016C00097FDC720FFF7A2FCBE20FFF763FCFFF7E2
:1016D000D9FCFFF78DFD3620FFF798FC4020FFF77F
:1016E00059FCFFF7CFFCFFF783FD3A20FFF78EFC94
:1016F0006020FFF74FFCFFF7C5FCFFF779FDB02036
:10170000FFF784FCC020FFF745FCFFF7BBFCFFF7A9
:101710006FFDB120FFF77AFC2846FFF73BFC1B204A
:10172000FFF738FCFFF7AEFCFFF762FDF220FFF792
:101730006DFC0220FFF72EFCFFF7A4FCFFF758FD1D
:101740002620FFF763FC2046FFF724FCFFF79AFCF6
:10175000FFF74EFDE020FFF759FC1F20FFF71AFCB2
:101760001A20FFF717FC1820FFF714FC0A20FFF7D8
:1017700011FC0F20FFF70EFC0620FFF70BFC4520A5
:10178000FFF708FC8720FFF705FC3220FFF702FC7B
:101790000A20FFF7FFFB0720FFF7FCFB0220FFF703
:1017A000F9FB0720FFF7F6FB0520FFF7F3FB2846C0
:1017B000FFF7F0FBFFF766FCFFF71AFDE120FFF7EC
:1017C00025FC2846FFF7E6FB2520FFF7E3FB272053
:1017D000FFF7E0FB0520FFF7DDFB1020FFF7DAFB4A
:1017E0000920FFF7D7FB3A20FFF7D4FB7820FFF75B
:1017F000D1FB4D20FFF7CEFB0520FFF7CBFB1820D8
:10180000FFF7C8FB0D20FFF7C5FB3820FFF7C2FB31
:101810003A20FFF7BFFB1F20FFF7BCFBFFF732FCAE
:10182000FFF7E6FC1120FFF7F1FB0A2005F042FA72
:10183000FFF728FCFFF7DCFC2920FFF7E7FB0A2075
:1018400005F038FAFFF71EFC054801F017FA07B05B
:10185000F0BD00BFB800002000040240000C0240B0
:1018600094030020F0B59942BDF8147017D20C4CC7
:101870009042247813D20B4DDFF82CC055F834E099
:1018800001FB0E0464000546DCF800600135AA4245
:10189000375104F10204F7D101318B42F0D1F0BD90
:1018A000B8000020A4E401080000002030B4064B7A
:1018B000064C1D78064B54F835401B6804FB0101AB
:1018C00030BC43F811207047B8000020A4E40108A0
:1018D00000000020014B1860704700BFBC000020D2
:1018E000014B5860704700BFBC000020014B98605E
:1018F000704700BFBC0000202DE9F04F2E4EB368AA
:101900009D88B3F806C01B68EC1D203AE41085B032
:101910000CFB02F2CDE90001C5EBC40704FB02F2A7
:10192000BCF1000F3ED02548368890F800B0DFF8B3
:1019300090A0DFF890900296681EF9B21A44034610
:101940000B4403930020019B012C03EB00081FFABA
:1019500088F82AD0022C2AD0517813789678090278
:1019600041EA03433343CDB100211E46039B0127C7
:101970005B1A07FA03F3009F334201EB070E01F1F4
:10198000010109D0D9F800705AF83B3003FB08E395
:10199000BE46029F4EF813708D42E7D10130844558
:1019A0002244D0D105B0BDE8F08F1378DBE713886F
:1019B0005BBA9BB2D7E700BFBC000020B800002094
:1019C000A4E40108000000202DE9F843174615465D
:1019D00017F8012B04460E46002A42D0002117F8C2
:1019E000010B01310028FAD11F48DFF88090876889
:1019F000D9F800C0B7F804E0BCFBFEF0012B29D0F9
:101A0000022B04D1411A11FB0EF10C1BA4B223B21C
:101A1000002B1FFA8CFCD8BF0124E64518D8BAB1B8
:101A2000C5F1010831462046FFF766FFB7F804C04C
:101A3000D9F8001008EB05039BB20CFB13139BB203
:101A40006444634515F8012FA4B201D3002AE9D1FB
:101A5000BDE8F883411A0EFB01F104EB5104A4B276
:101A6000D5E71146C0E700BFBC0000203C3900208C
:101A7000024801224FF4804105F08EBB000802406D
:101A8000024800224FF4804105F086BB0008024066
:101A9000024801224FF4004105F07EBB00080240DD
:101AA000024800224FF4004105F076BB00080240D6
:101AB0000FB400B5ADF20C4D0DF5826202A852F8DC
:101AC000041B01920BF05EFE02A8FEF799FB02A92F
:101AD00082B24FF47A73044808F0AEFB0DF20C4D5D
:101AE0005DF804EB04B0704788040020F8B52623A5
:101AF00003FB00F4394B3A4D195D3A4829721C44F6
:101B0000FFF7D6FF617838486972FFF7D1FFA178F7
:101B10003648A972FFF7CCFFE1783548E972FFF744
:101B2000C7FFA1883348A981FFF7C2FFE188324887
:101B3000E981FFF7BDFF218930482982FFF7B8FF0F
:101B400061892F486982FFF7B3FFA1892D48A982D7
:101B5000FFF7AEFFE1892C48E982FFF7A9FF218A50
:101B60002A482983FFF7A4FF618A29486983FFF780
:101B70009FFFA18A2748A983FFF79AFFE18A264899
:101B8000E983FFF795FF218B2448254F2984FFF730
:101B90008FFF618B2348244E6984FFF789FFA18B57
:101BA0002248A984FFF784FFE18BE9843846FFF7D8
:101BB0007FFF218C29853046FFF77AFF618C69858C
:101BC0003846FFF775FFA18CA9853046FFF770FFF7
:101BD0002846BDE8F84001F09DBA00BF70E6010854
:101BE000D4080020FCE401080CE5010824E5010804
:101BF0003CE5010854E501086CE5010884E50108AD
:101C000094E50108A8E50108BCE50108D0E5010854
:101C1000E0E50108F4E5010808E601081CE6010812
:101C20004CE6010828E6010860E6010838E60108EC
:101C3000054B10B4262404FB00308488C3880C6054
:101C40005DF8044B1360704770E6010810B53F491A
:101C50003F4800220BF0C2F8044600B910BD3D48D1
:101C6000013CFFF725FF122C6AD8DFE804F00F14BF
:101C7000191E23282D32373C41464B50555A5F647C
:101C80000A003548FFF714FF012010BD3348FFF765
:101C90000FFF012010BD3248FFF70AFF012010BDE1
:101CA0003048FFF705FF012010BD2F48FFF700FF68
:101CB000012010BD2D48FFF7FBFE012010BD2C4870
:101CC000FFF7F6FE012010BD2A48FFF7F1FE0120C4
:101CD00010BD2948FFF7ECFE012010BD2748FFF793
:101CE000E7FE012010BD2648FFF7E2FE012010BDEF
:101CF0002448FFF7DDFE012010BD2348FFF7D8FE82
:101D0000012010BD2148FFF7D3FE012010BD20485F
:101D1000FFF7CEFE012010BD1E48FFF7C9FE0120CF
:101D200010BD1D48FFF7C4FE012010BD1B48FFF782
:101D3000BFFE012010BD1A48FFF7BAFE012010BDFA
:101D40001848FFF7B5FE012010BD00BF5439002030
:101D5000883B00207CE7010850EA010888E7010879
:101D6000C0E70108D4E70108F4E701080CE801081E
:101D700024E8010844E8010880E80108A8E801080F
:101D8000D0E80108F8E801081CE9010838E9010871
:101D900058E9010880E90108C4E9010804EA0108DA
:101DA00030EA01086CEA0108D0B5234C86B0012660
:101DB00010270023CDE9026702A94FF480520126C3
:101DC000002720460193CDE9046707F003FE642055
:101DD00004F070FFCDE9046702261027CDE9026701
:101DE00002A920464FF480520326102707F0F2FD87
:101DF000CDE9026702A920464FF48052042600274D
:101E0000CDE9046707F0E6FD40F231230193019B21
:101E1000059302A901234FF480522046042610277F
:101E20000493CDE9026707F0D5FD204640F26A51E0
:101E300007F0E8FD06B0D0BD9401002030B51A4887
:101E400089B0FFF735FEFFF7AFFF1848184B036066
:101E5000042510234FF48054C0E90353446207253E
:101E60000224CDE900454FF4C0724FF440610424D0
:101E700006250023CDE90245826101620222022487
:101E800002256946C0E90133CDE904454361C361D8
:101E90008362069207F07CFD08B909B030BD00F0FE
:101EA000B3FD09B030BD00BF74EA01089401002001
:101EB000400100A0F0B53A4B052889B018703DD913
:101EC000063803283DD800220821364805F064F979
:101ED000642004F0EFFE01220821324805F05CF98D
:101EE0004FF4FA6004F0E6FE04AD01236422CDE96C
:101EF0000132822131222C48009505F0E5FE9DF843
:101F000010102A48FFF7D4FD274A92F83D30242BC1
:101F1000FBD064220E23CDE901320095012320225B
:101F20008221214805F0D0FEBDF81220BDF8101026
:101F30001F48FFF7BDFD002009B0F0BD20B909B072
:101F4000F0BD002009B0F0BD002208211548ADF811
:101F5000102005F021F9642004F0ACFE1148124F66
:101F60000122082105F018F94FF4FA6004F0A2FEEE
:101F7000062404AD642602232A46009670213846C2
:101F800005F058FB0346621E3220002BD9D012F018
:101F9000FF0402D004F08EFEEDE7012009B0F0BD91
:101FA0003C01002000100240C80100208CEA01081A
:101FB0009CEA010810B4064A064B127803EB82042F
:101FC00033F82220638802605DF8044B0B60704791
:101FD0003C010020BCEA010870B52B4B1B78052B97
:101FE000C6B005460C461AD9063B032B18D8274A1B
:101FF00092F83D30242BFBD006AE64223223CDE98B
:1020000001320096012310228221204805F05CFE57
:102010007388B2882B600020226046B070BD13B96F
:10202000002046B070BD03204FF47A768DF817007B
:102030000DF11702154800960123702105F0FAFAF8
:1020400010B1012046B070BD04231048009606AAC6
:10205000702105F037FC0346A0B99DF818609DF883
:102060001A009DF819109DF81B2006F00F0600F0CD
:102070000F0042EA002241EA062118462960226048
:1020800046B070BD0220CCE73C010020C801002012
:1020900030B51848184B0360082410254023C4604D
:1020A0004FF4005489B0C0E9045384620725022428
:1020B000CDE900454FF4C0724FF4006104240725B8
:1020C0000023CDE902458261016202220324022538
:1020D0006946C0E90133CDE90445C3614362069214
:1020E00007F056FC08B909B030BD00F08DFC09B00E
:1020F00030BD00BF94010020400100A02E4B1A68A3
:1021000002B17047F0B589B02C49019201201860E6
:102110008B6B2B4843F001038B638B6B03F0010344
:10212000002403250C26019302A94FF63F02022347
:10213000CDE90223CDE90445019F069604F040FE57
:1021400002A90C2202231F480696CDE90223CDE9FD
:10215000044504F035FE02A9202202231A480696FF
:10216000CDE90223CDE9044504F02AFE02A948F294
:102170003712022315480696CDE90223CDE904451E
:1021800004F01EFE02A94FF6837202231048069641
:10219000CDE90223CDE9044504F012FE4CF20372AE
:1021A00002230C48069602A9CDE90445CDE9022395
:1021B00004F006FE09B0F0BD4001002000380240E6
:1021C0000014024000080240001C024000180240B7
:1021D00000100240000C02402DE9F04F002791B0A2
:1021E000CDE90A77CDE90C778E4901970E97086BF8
:1021F0008D4BDFF84492DFF84482DFF844B28B4E17
:10220000DFF840A240F010000863086B00F01000F7
:10221000019001980297086B40F480700863086B86
:1022200000F48070029002980397086B40F004005D
:102230000863086B00F00400039003980497086B90
:1022400040F020000863086B00F020000490049820
:102250000597086B40F080000863086B00F0800071
:10226000059005980697086B40F001000863086B1D
:1022700000F00100069006980797086B40F00200F6
:102280000863086B00F00200079007980897086B36
:1022900040F040000863086B00F040000890089888
:1022A0000997086B40F008000863096B01F008010A
:1022B000184609913A460C21099C04F06DFF3A46F4
:1022C00048464FF4404104F067FF3A4640464021FB
:1022D00004F062FF3A4658464FF4845104F05CFF24
:1022E0003A463046022104F057FF3A4650464FF432
:1022F000004104F051FF3A464D48B02104F04CFF34
:10230000494B0024002518460AA90C220123CDE9D7
:102310000A23CDE90C4504F053FD0AA930464FF4D9
:1023200080720023CDE90A230C9704F049FD0AA925
:1023300048464FF400520023CDE90A230C9704F0DD
:102340003FFD48460AA94FF440420123CDE90C4520
:10235000CDE90A2304F034FD4FF0010C0AA95046E0
:1023600040F205120023CDF830C0CDE90A2304F075
:1023700027FD012340220AA94046CDE90A23CDE9E1
:102380000C454FF0000904F01BFD40460AA94FF030
:102390008008CDE90A890C974FF4845804F010FDA9
:1023A0004FF0010958460AA9CDE90C45CDE90A8943
:1023B00004F006FD4FF002080AA930464FF001096B
:1023C000CDE90C45CDE90A8904F0FAFC4FF4004848
:1023D00050460AA94FF00109CDE90C45CDE90A891B
:1023E00004F0EEFC4FF0B008CDE90C450AA9104806
:1023F000104D4FF00109CDE90A89202404F0E0FCDA
:102400000AA93046CDE90A450C9704F0D9FC3A46B2
:102410003946172004F074FC172004F0A9FC11B011
:10242000BDE8F08F0038024000100240002002405A
:10243000000C02400000111000080240001C024085
:1024400000040240000002400B480C4908B50C4B48
:1024500003604FF480420023C0E90233C0E9053332
:10246000C0E907334160026105F020F800B908BDFA
:10247000BDE8084000F0C8BAC8010020801A060074
:102480000054004070B50268184B88B000249A428E
:10249000CDE90244CDE90444069401D008B070BDF2
:1024A000134D00942B6B134843F002032B632B6BEB
:1024B00003F0020300934FF440721223CDE902238C
:1024C00001220323CDE9042302A904230693009EDD
:1024D00004F076FC01942B6C43F400132B642B6CFA
:1024E00003F400130193019B08B070BD0054004039
:1024F000003802400004024030B58FB03422002181
:1025000068460BF0D7F82948294B03604FF08053F9
:102510002C224FF4B6740361FD230D21C0E9094359
:10252000C261002340F273120162C2624FF48271F1
:1025300002228386C0E90133C0E905220163C3603A
:1025400080F8363005F044FD48BB00244FF4806528
:10255000CDE9004500244FF41675CDE9024502246B
:10256000FF25CDE90445FF244FF48065CDE90645FC
:1025700005244FF04045CDE9084500224FF4806422
:102580004FF416750948ADF830206946CDE90A4583
:102590008DF8322005F08CFD20B90FB030BD00F071
:1025A00033FAD2E700F030FA0FB030BD1C02002041
:1025B000006801402DE9F04F0168B04B91B0002256
:1025C0009942CDE90A22CDE90C220E9202D011B037
:1025D000BDE8F08F03F550430092596CA84841F0D4
:1025E00080615964596C01F08061009100990192F9
:1025F000196B41F010011963196B01F01001019181
:1026000001990292196B41F480711963196B01F4FD
:102610008071029102990392196B41F020011963B4
:10262000196B01F02001039103990492196B41F099
:1026300004011963196B01F00401049104990592D6
:10264000196B41F001011963196B01F0010105914A
:1026500005990692196B41F080011963196B01F01D
:102660008001069106990792196B41F002011963E6
:10267000196B01F00201079107990892196B41F05B
:1026800040011963196B01F0400108910899099202
:10269000196B41F0080119631B6B03F008030E244A
:1026A0000026002709934FF0700A4FF0020B0AA989
:1026B000CDE90C67099B0E94CDE90AAB04F080FBD1
:1026C00040F2D16202230AA96E480E94CDE90A2392
:1026D0004FF480684FF00209CDE90C6704F070FBFD
:1026E0000AA969480E94CDE90C67CDE90A8904F07E
:1026F00067FB0AA98122022364480E94CDE90C6786
:10270000CDE90A2304F05CFB0AA96A22022360488F
:102710000E94CDE90C67CDE90A2304F051FB0AA918
:102720001C2202235B480E940925CDE90C67CDE9F4
:102730000A2304F045FB0AA90322022356480E95FA
:10274000CDE90C67CDE90A2304F03AFB0AA94FF45E
:10275000C652022351480E94CDE90C67CDE90A23F5
:1027600004F02EFB482202230AA94D480E94CDE91D
:102770000A23CDE90C6704F023FB0AA947480E950C
:10278000CDE90C67CDE90A890026032704F018FB80
:102790000AA93B480E94CDE90AABCDE90C6704F0D9
:1027A0000FFB40F2D16202230AA936480E94CDE90C
:1027B0000A23CDE90C6704F003FB0AA932480E9402
:1027C000CDE90A89CDE90C6704F0FAFA0AA9812259
:1027D00002232E480E94CDE90A23CDE90C6704F0BC
:1027E000EFFA0AA96A22022329480E94CDE90A23A6
:1027F000CDE90C6704F0E4FA0AA91C22022325485B
:102800000E94CDE90A23CDE90C6704F0D9FA0AA9A0
:102810000322022320480E95CDE90A23CDE90C6757
:1028200004F0CEFA0AA94FF4C65202231B480E94B4
:10283000CDE90A23CDE90C6704F0C2FA022348224D
:102840000AA917480E94CDE90A23CDE90C6704F0D4
:10285000B7FA0AA911480E95CDE90A89CDE90C67A6
:1028600004F0AEFA00221146582004F049FA58202C
:1028700004F07EFA11B0BDE8F08F00BF006801409F
:1028800000100240002002400014024000080240F4
:1028900000000240001C02400004024000180240F8
:1028A000000C0240F0B50024A7B0214616A83C2237
:1028B000CDE90A44CDE90C44CDE90244CDE9044414
:1028C00006940AF0F7FE2A4A0094116C294B41F055
:1028D00080511164126C02F080520092009A0194AF
:1028E0001A6842F440421A601B6803F440430193A3
:1028F00001224FF48033CDE9082302224FF48003F4
:10290000CDE90E230622B423CDE9102302210222B1
:10291000072308A80F260227CDE912231491019D51
:1029200006F0FAF805F0F6FDCDE902674FF48053A2
:1029300002A8052100264FF4A057CDE904670693AD
:102940004FF4C47505F0BCFEC02604214FF440329C
:102950004FF0006316A80827CDE91A67249416954E
:102960001D912092239305F069FF27B0F0BD00BFB1
:10297000003802400070004008B504F06FF91E4BAB
:102980004FF480329A6062B6FFF78CFFFFF724FCA9
:10299000FFF77EFBFFF758FDFFF7AEFD00F036F8BE
:1029A00000F0C6F800F026F900F046F900F056FAFB
:1029B00000F070FA08F090FF00F0E6FAFFF73EFA38
:1029C0000E48FFF775F80E48FFF772F84FF49612AD
:1029D000FF214FF040400AF06DFE0848FFF768F80D
:1029E0000848FFF765F802F087FF142004F062F949
:1029F00003F03EFCFCE700BF00ED00E09C05020890
:102A0000B4050208D4050208704700BF0C480D4BFE
:102A100010B503600423012417214FF4E0624360E2
:102A20000023C0E90412C0E906338460C360036276
:102A300005F0AEFD00B910BDBDE81040FFF7E4BFE2
:102A4000C4020020001000A070B50168334A8AB0AB
:102A500000239142CDE90433CDE90633089301D038
:102A60000AB070BD2E4A0093916B2E4841F00201CE
:102A70009163916B01F00201009100990193116B38
:102A800041F020011163116B01F0200101910199C6
:102A90000293116B41F001011163116B01F001010F
:102AA000029102990393136B43F002031363136BB8
:102AB000092103F00203002403250393C02202230B
:102AC000089104A9CDE90423039ECDE906450A2611
:102AD00004F076F94FF44072022304A911480896D5
:102AE000CDE90423CDE9064504F06AF980220223EA
:102AF00004A90D480896CDE90423CDE9064504F064
:102B00005FF9402202230948089604A9CDE9064549
:102B1000CDE9042304F054F90AB070BD001000A000
:102B2000003802400014024000000240000402404D
:102B3000064B074A1A604FF480410022C3E9012284
:102B4000C3E9032259619A61704700BF1003002056
:102B5000002C014070B50168234A8AB000239142DD
:102B6000CDE90433CDE90633089301D00AB070BD36
:102B700002F586320193516C1C4841F400615164A6
:102B8000516C01F40061019101990293116B41F0C4
:102B900004011163116B01F0040102910299039386
:102BA000136B43F008031363136B03F008030393E1
:102BB00003994FF4F8520223002403250C2604A99C
:102BC000CDE90423CDE90645089604F0F9F804227E
:102BD00002230748089604A9CDE90645CDE9042358
:102BE00004F0EEF80AB070BD002C0140000802406D
:102BF000000C02400E480F4B10B503604FF4827377
:102C00004FF4007420210A2243600023C0E90641EA
:102C1000C0E90233C0E90433C0E90833C262836209
:102C200006F064FF00B910BDBDE81040FFF7ECBE30
:102C3000EC030020003001400E480F4B10B54FF45C
:102C4000007103604FF4827400230A22C0E902334A
:102C5000C0E90433C0E90733C0E909334460816146
:102C6000C26206F043FF00B910BDBDE81040FFF797
:102C7000CBBE00BF940300200038004030B502688E
:102C800027498BB000238A42CDE90433CDE90633CE
:102C9000089304D023498A4226D00BB030BD224A83
:102CA0000093516C214841F480515164516C01F4FE
:102CB0008051009100990193136B43F00203136359
:102CC000136B03F002030193019A04A9382402252F
:102CD0000523089300220323CDE90445CDE906230B
:102CE00004F06EF80BB030BD0F4A0293116C0F4820
:102CF00041F480411164116C01F480410291029908
:102D00000393136B43F002031363136B03F002038B
:102D10000393039A04A94FF4604402250523D8E7DE
:102D200000300140003800400038024000040240FA
:102D30000E4A0368934203D00D4A93420AD070476B
:102D400002F584320B48536C23F4805353643821CA
:102D500004F05EB902F500320648136C23F4804398
:102D600013644FF4604104F053B900BF00300140D8
:102D7000003800400004024082B00C4B002100915A
:102D80005A6C42F480425A645A6C02F480420092B7
:102D9000009A01911A6C42F080521A641B6C03F085
:102DA00080530193019B02B0704700BF003802407E
:102DB000704700BFFEE700BFFEE700BFFEE700BFB1
:102DC000FEE700BF704700BF704700BF704700BFFD
:102DD00003F05EBF08B5202004F0E4F9044B054978
:102DE000054801221A60BDE80840FFF7F5B800BFAA
:102DF00038010020900100208C0100200C490D4A70
:102E00000B6810B50C4C121B2BB11844904207D81C
:102E10000860184610BD094B0B6018449042F7D962
:102E20000AF002FC0C2303604FF0FF33184610BD7C
:102E3000440100200000052000040000C83D0020DF
:102E4000054BD3F888204FF0006142F47002C3F8BC
:102E500088209960704700BF00ED00E00B4808B57E
:102E60000B4B03604FF4E13100230C22C0E9023325
:102E7000C0E9063341604261036107F041F900B9DE
:102E800008BDBDE80840FFF7BFBD00BF44040020F7
:102E9000004800400B4808B50B4B03604FF4E1318C
:102EA00000230C22C0E90233C0E9063341604261CD
:102EB000036107F025F900B908BDBDE80840FFF738
:102EC000A3BD00BF880400200014014030B5026893
:102ED00028498BB000238A42CDE90433CDE906337B
:102EE000089304D024498A4227D00BB030BD234A2E
:102EF0000093116C224841F480211164116C01F49B
:102F00008021009100990193136B43F00203136336
:102F1000136B03F002030193019A04A94FF4406478
:102F200002250723089300220323CDE90445CDE9B8
:102F3000062303F045FF0BB030BD104A0293516CDD
:102F4000104841F020015164516C01F020010291C0
:102F500002990393136B43F040031363136B03F065
:102F600040030393039A04A94FF4844402250823E1
:102F7000D8E700BF0048004000140140003802407C
:102F800000040240001802400C4810B50023022241
:102F90004FF0A0440621C0E90041C0E90733C0E971
:102FA0000B33C26082610361436205F009FA00B924
:102FB00010BDBDE81040FFF727BD00BFCC040020C6
:102FC000F0B5036889B00024B3F1A04FCDE9024405
:102FD000CDE90444069401D009B0F0BD194D009428
:102FE0002B6B194843F001032B632B6B049403F004
:102FF000010300934FF400720099002302A94FF4DB
:10300000C0560227CDE9022303F0DAFECDE90267BC
:103010000A230D48069302A900260327CDE9046779
:1030200003F0CEFE6B6B43F080036B6301946B6C1B
:1030300043F480436B646B6C03F480430193019B06
:1030400009B0F0BD0038024000000240DFF834D083
:10305000002103E00C4B5B58435004310B480C4BF0
:1030600042189A42F6D30B4A02E0002342F8043B8E
:10307000094B9A42F9D3FFF7E3FE0AF0DBFAFFF7B8
:103080007BFC704700000520640E02080000002051
:103090008000002080000020C83D0020FEE70000E6
:1030A00070B5104D2B68B3F5805F06460C460AD20A
:1030B0000D4A13441C603046214602F03FFA2B684B
:1030C00004332B6070BD0948FEF7F2FC2A681AB978
:1030D0000022054B2A60EDE70349304602F028F94B
:1030E000F6E700BF201900201C0900200C0602088A
:1030F00010B5064C226812B90023236010BD0449A4
:1031000001F08AFE0023236010BD00BF20190020BB
:103110001C090020F0B583B0044601A801F0F6FABE
:10312000204601F0F9FA2046012101F00BFD20466E
:10313000682101F0EBFC4FF4967001F021FDA37AB9
:10314000002B40F02E814421204601F0DFFC0621B7
:10315000204601F083FD0021204601F0D7FC4FF40A
:10316000967001F00DFD207A974B9849984A994F37
:10317000994E012818BF1946204601F07BFC217AA0
:10318000204601290CBF3946314601F0B7FB7C28A7
:103190000ED0237A012B3146204608BF394601F074
:1031A000ADFB05464FF4967001F0EAFC7C2DF0D1A2
:1031B000217A8A4F8A4E204601290CBF3946314672
:1031C00001F09CFB68B1237A012B3146204608BFF1
:1031D000394601F093FB0546642001F0D1FC002D37
:1031E000F1D1628D7F49204601F014FC94F82C2027
:1031F0007D49204601F0E4FB207A7C4B7C49228A01
:10320000012818BF1946204601F004FC207A794BAA
:103210007949628A012818BF1946204601F0FAFB55
:10322000207A764B7649A28A012818BF1946204693
:1032300001F0F0FB207A734B7349E28A012818BF32
:103240001946204601F0E6FB207A704B7049228B2C
:10325000012818BF1946204601F0DCFB207A6D4B8F
:103260006D49628B012818BF1946204601F0D2FB38
:10327000207A6A4B6A49A28B012818BF194620465A
:1032800001F0C8FB207A674B6749E28B012818BF21
:103290001946204601F0BEFB207A644B644994F83D
:1032A0002220012818BF1946204601F089FB207A08
:1032B000604B614994F82420012818BF1946204624
:1032C00001F07EFB207A5D4B5D49A289012818BF81
:1032D0001946204601F09EFB207A5A4B5A49E28952
:1032E000012818BF1946204601F094FB207A574B5D
:1032F0005749E28C012818BF1946204601F08AFB85
:10330000207A544B5449228D012818BF1946204673
:1033100001F080FB207A514B514942F21072012892
:1033200018BF1946204601F0A5FB207A4D4B4E49A7
:103330008022012818BF1946204601F041FBA37ADC
:10334000002B34D1207A494B4949FF22012818BF6C
:103350001946204601F034FB207A4649464BFF22AD
:10336000012818BF1946204601F02AFB204602F02A
:10337000BBF9207A414B424994F82020012818BF1C
:103380001946204601F01CFB217A3E4A3E4B20465E
:1033900001290CBF1146194601F0DCFAE08503B0A3
:1033A000F0BD01220021204601F0B8FCCBE620460A
:1033B00036494FF6FF7201F02DFB35498022204639
:1033C00001F028FBD2E700BF0C2030000C241000D5
:1033D00000A24A0400241000002030001C24100029
:1033E0002020300014263000182630002C20300019
:1033F00028241000302030002C2410003820300009
:10340000342410003C2030003824100040203000CC
:103410003C24100044203000402410004C20300098
:1034200048241000502030004C241000642030004C
:10343000602410006C20300068241000342030001C
:103440003024100048203000442410006820300050
:1034500064241000602030005C241000D020300074
:10346000C0241000D4203000C4241000902030006C
:103470008C24100090241000942030007020300024
:103480006C241000E8241000FC203000982030004C
:103490009C2030002DE9F041444C1E4615468846DC
:1034A000074600F02DFF236846EA084141EA05225D
:1034B000B3F5805F42F000753AD23D4E33441D6053
:1034C0002946384602F03AF823680433B3F5805FA2
:1034D00023604ED2334437491960384602F02EF843
:1034E00023680433B3F5805F236039D2334400216D
:1034F0001960384602F022F823680433B3F5805F80
:10350000236024D21E444FF004513846316002F04B
:1035100015F8236838460433236000F05FFE226804
:1035200082B9002338462360BDE8F04101F074BE43
:103530002148FEF7BDFA226822BB1D4E0022334609
:103540002260BCE71A49384601F066FCE9E71A48F0
:10355000FEF7AEFA226822BB0023154E2360D2E7A5
:103560001548FEF7A5FA2268B2B90022104B226076
:10357000BDE71148FEF79CFA226842B900220C4BC5
:103580002260A8E70A49384601F0D2FED5E708498B
:10359000384601F0CDFEF1E70549384601F0C8FE96
:1035A000E3E70349384601F0C3FED5E720190020C0
:1035B0001C090020070000260C0602082DE9F04F28
:1035C000CC4DCD4BCD4C2868B3F80CA0B3F80EB061
:1035D00087B000F095FE23682F68B3F5805F80F018
:1035E000CA82C74E33446FF07D413846196001F0FE
:1035F000A5FF23682F680433B3F5805F236080F054
:103600001F833344BF491960384601F097FF236890
:103610002868CDF800B000210322CDE901121F1D5A
:103620000A465346276000F0F1FD286800210BFB95
:103630000AF200F021FE23682F68B3F5805F80F066
:10364000F0823344B0491960384601F077FF2368AF
:103650002F680433B3F5805F236080F0D982334450
:10366000AA491960384601F069FF23682F680433BE
:10367000B3F5805F236080F0C18233444FF08071E6
:103680003846196001F05AFF23682F680433B3F5F8
:10369000805F236080F0A88233444FF0C0613846D9
:1036A000196001F04BFF9A4F2368D5F80080CBF3E7
:1036B0000802043307EA4A2717430592B3F5805FEF
:1036C0004FEA4A2247F0E3672360049280F0828247
:1036D00033441F604046394601F030FF2368D5F877
:1036E00000904FEA1A27043307F00C07CBF3412868
:1036F00047EA0807B3F5805F47F02057236080F062
:103700005F82334439461F60484601F017FF814A03
:10371000049923682F6801EA0209059A043349EAEB
:103720000209B3F5805F49F00069236080F03E82B2
:103730003344C3F800903846494601F0FFFE236841
:10374000D5F800904FEADA1707F00C07043347EA80
:103750000808B3F5805F48F02457236080F01B828F
:103760003344484639461F6001F0E8FE2368286864
:103770000433236000F032FD22682868002A40F0FC
:1037800005824FF00008C4F8008001F045FD624B4F
:10379000DFF894915A4F03EACA4A47F6F07303EAF6
:1037A0000B1B4AEA0B0B4BF0804B286800F0A8FD7E
:1037B0002368D5F800A0B3F5805F80F09181334491
:1037C0006FF07D415046196001F0B8FE2368D5F8CE
:1037D00000A00433B3F5805F236080F05981334447
:1037E00048491960504601F0A9FE2368D5F800A0A9
:1037F0000433B3F5805F236080F05E813344474932
:103800001960504601F09AFE2368D5F800A00433F1
:10381000B3F5805F236080F0278133444FF080410F
:103820005046196001F08AFE2368D5F800A00433E1
:10383000B3F5805F236080F0498133445046C3F87C
:1038400000B0594601F07AFE2368D5F800A0043391
:10385000B3F5805F236080F01181334430491960F3
:10386000504601F06BFE244B2068DA8999892D4B74
:1038700001934FF4C06300F1040C00932868C4F86E
:1038800000C01F235208490800F006FC2368D5F841
:1038900000A0B3F5805F80F0058133444FF0806174
:1038A0005046196001F04AFE2368D5F800A00433A1
:1038B000B3F5805F236080F0CD80334412491960F6
:1038C000504601F03BFE2368D5F800A00433B3F561
:1038D000805F236080F0B48033440C491960504607
:1038E00001F02CFE2368D5F800A00433B3F5805F07
:1038F0001CE000BF1C190020D40800202019002063
:103900001C090020070000260100001F010000051F
:1039100000FE070000FE03000000F83F0900001F42
:1039200000960004200602080C060208236073D2E9
:1039300033444FF0C0615046196001F0FFFD236829
:10394000D5F800A00433B3F5805F23606ED2334412
:103950004FF080415046196001F0F0FD2368D5F822
:1039600000A00433B3F5805F23604BD233444FF0A3
:1039700004515046196001F0E1FD2368AD4804335D
:103980000421236003F002FC22682B68B2F5805FFB
:1039900082462BD232441846C2F80080002101F042
:1039A000CDFD236828680433236000F017FC2268EB
:1039B00028685AB901F030FC322001F0E1F8BAF180
:1039C000000F7FF4F2AE07B0BDE8F08F394601F08A
:1039D00023FA2868C4F8008001F01EFC322001F0B0
:1039E000CFF8BAF1000F7FF4E0AEECE7484604935D
:1039F000FEF75EF82268049B002A7AD1C4F80080A2
:103A00003A46C8E74846FEF753F82268002A76D1BE
:103A1000C4F800803B46AAE74846FEF749F822680A
:103A2000002A76D1C4F800803B4682E74846FEF77C
:103A30003FF82268002A67D1C4F800803B4687E738
:103A40004846FEF735F82268002A6CD1C4F8008099
:103A50003B4642E74846FEF72BF82268002A76D11B
:103A6000C4F800803B4629E74846FEF721F8226863
:103A7000002A62D1C4F800803B46CFE64846FEF7F4
:103A800017F82268002A6CD1C4F800803B46E5E6AE
:103A90004846FEF70DF82268002A49D1C4F8008094
:103AA0003B469DE64846FEF703F82268002A53D1BC
:103AB000C4F800803B46F1E64846FDF7F9FF22686E
:103AC000002A3FD1C4F800803B4698E64846FDF7FF
:103AD000EFFF2268002A49D1C4F800803B46ADE6DA
:103AE0004846FDF7E5FF2268C2B9C4F800803B46AE
:103AF00066E61846394601F01BFC049B7EE7394612
:103B0000504601F015FC83E73946504601F010FCA1
:103B100092E73946504601F00BFC83E739465046A0
:103B200001F006FCE1E73946504601F001FC8DE763
:103B30003946504601F0FCFBB0E73946504601F0EB
:103B4000F7FB97E73946504601F0F2FBBAE73946F2
:103B5000504601F0EDFB83E73946504601F0E8FBA3
:103B6000A6E73946504601F0E3FB8DE7394650465B
:103B700001F0DEFBB0E73048FDF79AFF2268002A2B
:103B800067D12E4E0022334622602CE52B4901F0EE
:103B900043F92868F5E52848FDF78AFF2268002ADE
:103BA00040F084800022254B2260DAE52248FDF7B0
:103BB0007FFF2268002A74D10022204B2260B8E5E2
:103BC0001D48FDF775FF2268002A65D100221B4BB6
:103BD000226097E51848FDF76BFF2268002A56D14E
:103BE0000022164B226074E51348FDF761FF22683E
:103BF000002A47D10022114B22604EE50E48FDF706
:103C000057FF2268002A38D100220C4B226035E58C
:103C10000948FDF74DFF226852BB0022074B226086
:103C20001EE50548FDF744FF2268E2B90022034B78
:103C3000226007E5000002400C0602081C09002073
:103C40001D48FDF735FF226842B900221B4B226058
:103C5000D8E41A49384601F06BFB92E71749384619
:103C600001F066FBF1E71549384601F061FBDDE73D
:103C70001249384601F05CFBCFE71049384601F0A5
:103C800057FBC1E70D49384601F052FBB2E70B493B
:103C9000404601F04DFBA3E70849484601F048FBC8
:103CA00094E70649384601F043FB85E70349484657
:103CB00001F03EFB76E700BF0C0602081C0900205D
:103CC0002DE9F043ADF5813D91B088461646014699
:103CD000012204A81D4609F0C1F80799A94233D36F
:103CE000B5F1807F3DD86DB30DF50247DFF89890B0
:103CF000403701E02D1B25D0B5F5004F2C4628BFDD
:103D00004FF40044324623464146D9F8000000975C
:103D100000F0BCFC03AB224690A904A809F09AFA73
:103D20002246394690A809F0A9FC26440028E1D093
:103D3000002404A809F0C6FB20460DF5813D11B012
:103D4000BDE8F0830124F4E70D48FDF7B1FE04A8B7
:103D500009F0B8FB002420460DF5813D11B0BDE807
:103D6000F0834FF080710748FDF7A2FE04A809F028
:103D7000A9FB002420460DF5813D11B0BDE8F0837C
:103D8000300602084C0602081C19002010B51D4C14
:103D90001D49206800F0B2FD01281BD020680021D9
:103DA00000F00AFB1849206800F0A8FD206800F028
:103DB000EBFA1648FDF77CFE2068FFF799F91448E6
:103DC000FDF776FE206801F027FA1248FDF770FE35
:103DD000012010BD1048FDF76BFE206800F00AFBC3
:103DE0002068FFF785F9206801F016FA0649206877
:103DF00000F084FD0228D1D00848FDF759FE0020CC
:103E000010BD00BF1C190020F0253000A4060208D8
:103E1000BC060208D40602086806020884060208E6
:103E20002DE9F04FADF5024D8FB00446884602A84B
:103E30002146012209F012F8002851D1059D9DB3B9
:103E40002C4FDFF8BCA0DFF8B0900026B34600E0AE
:103E50009DB3B5F5004F2C4628BF4FF400442246D1
:103E600001AB8EA902A809F0F5F926445946386835
:103E700023468EAA00F086FEB6F5801FA5EB04054A
:103E8000A344E5D306F6FF7606EA0A064146002279
:103E900038683346B04400F04FFB3246414648464E
:103EA000FDF706FE002DD0D102A809F00BFB012082
:103EB0000DF5024D0FB0BDE8F08F06F6FF7424F447
:103EC0007F6424F00F042A4641463868234600F0F8
:103ED00033FB224604EB08010748FDF7E9FDE3E761
:103EE00021460648FDF7E4FD00200DF5024D0FB018
:103EF000BDE8F08F1C190020F80602080807020828
:103F000000F0FFFF70B53F4C05460E4620683E4965
:103F100000F0F4FC012809D0324628460021FFF7C2
:103F20007FFF012817D00025284670BD206800F0CB
:103F300061FA2068FFF7DCF8206801F06DF932497A
:103F4000206800F0DBFC0228E6D000252F48FDF7B2
:103F5000AFFD284670BD2068FFF7CAF8206801F061
:103F60005BF92949206800F0C9FC012839D0206894
:103F700000F058FA2068FFF7BBF8206801F04CF910
:103F80002149206800F0BAFC0128054623D12068A9
:103F900000F030FA2068FFF7ABF8206801F03CF938
:103FA0001949206800F0AAFC0228CED1002120681F
:103FB00000F002FA2068FFF79BF8206801F02CF966
:103FC0002068114900F09AFC0328ADD01048FDF795
:103FD0006FFD0025A8E700250E48FDF769FD28467E
:103FE00070BD206800F006FA2068FFF781F82068AD
:103FF00001F012F90449206800F080FC0228B6D0D4
:10400000A3E700BF1C190020F02530002807020894
:10401000700702084C07020810B504460E48FDF769
:1040200047FD20460021FFF76DFF58B10B48FDF713
:104030003FFD0022204611464FF48053FFF740FE1B
:1040400020B110BD0648FDF733FDEFE7BDE8104095
:104050000348FDF72DBD00BFA0070208F0070208C6
:10406000DC07020808B50948FDF722FDFFF78EFEC0
:1040700020B1BDE808400648FDF71ABD0548FDF728
:1040800017FDBDE808400248FDF712BD1008020800
:1040900048080208340802082DE9F04F83B00546AD
:1040A000DDF83490BDF830B048461C46884692464C
:1040B000FCF7A6F8EE7A0EABC7B2019316B11BF46B
:1040C00080564FD10C23043727F003071F44BFB29B
:1040D0003946284601F052F83A460121284600F0B8
:1040E00041FB6FF0F301284600F09EFB1FFA88F1B8
:1040F00041EA0A41284600F097FBA1B241EA0B4190
:10410000284600F091FB4946284600F06BFB4846E4
:10411000FCF776F8C04310F0030818BF002407D05E
:10412000013400212846E4B200F07AFB4445F7DB75
:1041300076B1013E019CF6B2013604EB86060434EA
:10414000284654F8041C019400F06EFBB442F6D1EA
:10415000284600F0C9FB3946284600F01DFE03B092
:10416000BDE8F08F4846002605E04378252B0EBFBA
:104170000230D6B20130252109F0E1FA721C002884
:10418000F3D1B3000C339EE72DE9F04104460D4610
:104190000C211E461746BDF8188000F0EFFF0C22D8
:1041A0002046012100F0DEFA20466FF0E90100F020
:1041B0003BFBA9B241EA0741204600F035FB46EA45
:1041C0000841204600F030FB204600F08DFB2046E1
:1041D0000C21BDE8F04100F0DFBD00BF10B50421A7
:1041E000044600F0CBFF20460422012100F0BAFA79
:1041F0006FF0FE01204600F017FB204600F074FB34
:1042000020460421BDE8104000F0C6BD2DE9F0476E
:1042100004460D4614211E461746BDF820A0DDF8C1
:104220002490BDF8288000F0A9FF14222046012127
:1042300000F098FA20466FF0CF0100F0F5FAA9B22D
:1042400041EA0741204600F0EFFA46EA0A412046DB
:1042500000F0EAFA4946204600F0E6FA41462046D8
:1042600000F0E2FA204600F03FFB20461421BDE8B2
:10427000F04700F091BD00BF70B504460E460C211A
:10428000154600F07BFF0C222046012100F06AFA5F
:1042900020466FF0E30100F0C7FA3146204600F0F7
:1042A000C3FA2946204600F0BFFA204600F01CFB66
:1042B00020460C21BDE8704000F06EBD70B504468C
:1042C0000E460C21154600F059FF0C222046012114
:1042D00000F048FA20466FF0DB0100F0A5FA314605
:1042E000204600F0A1FA2946204600F09DFA20461B
:1042F00000F0FAFA20460C21BDE8704000F04CBDF9
:1043000010B50421044600F039FF204604220121A3
:1043100000F028FA6FF0FF01204600F085FA2046F1
:1043200000F0E2FA20460421BDE8104000F034BD60
:104330002DE9F04104460F4610211E461546BDF8F2
:10434000188000F01BFF10222046012100F00AFA1D
:1043500020466FF0BC0100F067FA3946204600F0B5
:1043600063FA45EA0641204600F05EFA41462046DF
:1043700000F05AFA204600F0B7FA20461021BDE8B6
:10438000F04100F009BD00BF10B50421044600F063
:10439000F5FE20460422012100F0E4F96FF0BB0194
:1043A000204600F041FA204600F09EFA2046042103
:1043B000BDE8104000F0F0BC38B504460D460821B9
:1043C00000F0DCFE08222046012100F0CBF9204657
:1043D0006FF0B50100F028FA2946204600F024FAD3
:1043E000204600F081FA20460821BDE8384000F060
:1043F000D3BC00BF10B50421044600F0BFFE204628
:104400000422012100F0AEF96FF0B601204600F061
:104410000BFA204600F068FA20460421BDE810405F
:1044200000F0BABC10B50421044600F0A7FE2046F7
:104430000422012100F096F96FF0B701204600F048
:10444000F3F9204600F050FA20460421BDE8104060
:1044500000F0A2BC38B50421044600F08FFE04220F
:104460002046012100F07EF96FF0B701204600F0F0
:10447000DBF9204600F038FA0421204600F08CFCDD
:104480002046FEF735FE204600F0C6FE29492046AC
:1044900000F034FA012801D0002038BD054604217F
:1044A000204600F06BFE04222946204600F05AF90F
:1044B0006FF0B601204600F0B7F9204600F014FA7C
:1044C0000421204600F068FC2046FEF711FE20463D
:1044D00000F0A2FE1749204600F010FA0228DBD1B6
:1044E0002046082100F04AFE08222946204600F016
:1044F00039F96FF0B501204600F096F90021204609
:1045000000F092F9204600F0EFF90821204600F073
:1045100043FC2046FEF7ECFD204600F07DFE0549F9
:10452000204600F0EBF9A0F10300B0FA80F040095A
:1045300038BD00BFF02530002DE9F047C1F30B076F
:1045400002F003063E4363D1B3F5805F0D4691460A
:1045500098460446C0F08780C3F30B071021002F54
:1045600059D000F00BFE10220121204600F0FAF88D
:104570006FF0B801204600F057F92946204600F0B8
:1045800053F9A8EB070A4946204600F04DF9514679
:10459000204600F049F9204600F0A6F910212046F7
:1045A00000F0FAFB2046FEF7A3FD204600F034FEA3
:1045B000454408EB090210212046ED1BD71B00F0F3
:1045C000DDFD10220121204600F0CCF86FF0B8018B
:1045D000204600F029F92946204600F025F9394601
:1045E000204600F021F94FF48051204600F01CF9DC
:1045F000204600F079F91021204600F0CDFB20463E
:10460000FEF776FD204600F007FE3046BDE8F08755
:104610000120BDE8F08700F0B1FD10222046012105
:1046200000F0A0F86FF0B801204600F0FDF8294630
:10463000204600F0F9F84946204600F0F5F84146DA
:10464000204600F0F1F8204600F04EF910212046F7
:1046500000F0A2FB2046FEF74BFD204600F0DCFDFB
:104660003846BDE8F087102100F088FD10220121B6
:10467000204600F077F86FF0B801204600F0D4F83B
:104680002946204600F0D0F84946A9E72DE9F04137
:1046900002F03F05174601F00302154302D0012046
:1046A000BDE8F08104460E46102123F0030800F017
:1046B00065FD10222046012100F054F86FF0B90189
:1046C000204600F0B1F83146204600F0ADF83946FA
:1046D000204600F0A9F84146204600F0A5F8204603
:1046E00000F002F91021204600F056FB2046FEF7AC
:1046F000FFFC204600F090FD2046069A43463146D6
:1047000000F074FA2846BDE8F08100BF08B501F05A
:1047100049F8012008BD00BF10B50021044601F092
:1047200069F82046012101F065F82046022101F0D8
:1047300061F801221146204601F05EF801220021B5
:10474000204601F059F8204601F030F800230122FC
:10475000C01A84F83D2084F8323018BF0120C4F814
:104760002E3010BD70B5057AC38D012D0CBF4FF4EE
:1047700084154FF4421582B004462B44C1B90A4651
:104780001D0C8DF806301B0A8DF807108DF80530CA
:104790008DF8045001F030F8042202230DEB0201E1
:1047A000204601F01BF8012384F8323002B070BDBE
:1047B0001D0C00221E0A114665F07F058DF806309B
:1047C0008DF804508DF8056001F016F802230322DD
:1047D00001A9204601F002F8022384F8323002B029
:1047E00070BD00BF70B5054608460C46FBF708FDD6
:1047F00080B260B1461EB6B20136264414F8011BE1
:1048000095F83220284600F0D3FFA642F6D195F85D
:10481000322028460021BDE8704000F0C9BF00BF2B
:1048200090F8322000F0C4BF38B590F83220022A48
:1048300004462DD0002100F0BBFF94F8322005463D
:104840000021204600F0B4FF94F8322045EA00250C
:10485000022AADB24FF0000120460FD000F0A8FFB1
:1048600094F832200346002120461C4600F0A0FFA9
:1048700044EA002045EA0045284638BD00F098FF8C
:1048800094F832202046002100F092FF284638BDDF
:104890000D46C9B200F08CFF94F83220C5F3072111
:1048A000204600F085FF94F83220022A0CD0002127
:1048B000204600F07DFF002594F83220204600219C
:1048C00000F076FF284638BDC5F3074120462D0C81
:1048D00000F06EFF290A94F832202046002500F0EF
:1048E00067FF284638BD00BF10B5012204460021ED
:1048F00000F082FF002384F8323010BD70B582B022
:1049000000250B0A0E0C2A468DF80610294604468F
:104910008DF804608DF805308DF8075000F06CFFBD
:10492000042202230DEB02010126204600F056FF6F
:1049300084F8326032462946204600F039FF32467C
:1049400029460646204600F057FF304684F832508C
:1049500002B070BDF0B5002583B00B460F0C0E0AF7
:104960002A46294604468DF806308DF804708DF8E5
:1049700005608DF8075000F03FFF04220223012755
:104980000DEB0201204600F029FF84F832703A4610
:104990002946204600F00CFF94F8322006462946AE
:1049A000204600F005FF3A4629460746204600F01B
:1049B00023FF46EA072080B284F8325003B0F0BDEE
:1049C00070B582B01546C1F305430022044663F07A
:1049D0007F030E0A8DF8061011468DF804308DF80D
:1049E000056000F009FF022301A92046032200F020
:1049F000F5FE0222294684F83220204600F0D8FE37
:104A000020460122002100F0F7FE002384F8323016
:104A100002B070BD70B582B01546C1F305430022E7
:104A2000044663F07F030E0A8DF8061011468DF8D8
:104A300004308DF8056000F0DFFE022301A9204656
:104A4000032200F0CBFE022284F83220E9B2204695
:104A500000F0AEFE94F83220290A204600F0A8FEAD
:104A600020460122002100F0C7FE002384F83230E6
:104A700002B070BD70B582B01546C1F30543002287
:104A8000044663F07F030E0A8DF8061011468DF878
:104A900004308DF8056000F0AFFE0223032201A967
:104AA000204600F09BFE022284F83220E9B2204624
:104AB00000F07EFE94F83220C5F30721204600F076
:104AC00077FE94F83220022A13D00021204600F00D
:104AD0006FFE94F832200021204600F069FE01228A
:104AE0000021204600F088FE002384F8323002B016
:104AF00070BDC5F3074120462D0C00F059FE94F817
:104B00003220290A204600F053FEE8E730B50024A1
:104B100083B00B460546224621468DF804308DF8B9
:104B200005408DF8064000F067FE062301A92846DF
:104B3000032200F053FE28462146012200F05CFECD
:104B400003B030BD38B5054681B10022012100F027
:104B500053FE142000F028FE01222846012100F017
:104B60004BFEBDE83840142000F01EBE01220C466A
:104B7000114600F041FE142000F016FE2246ECE73C
:104B800000F012BEF0B583B0C1F305471446002211
:104B90004FEA112C05468DF8061067F07F07114685
:104BA0001E468DF805C08DF8047000F025FE032226
:104BB0002846022301A900F011FE022285F83220C6
:104BC00056B1264401E095F8322014F8011B28461E
:104BD00000F0EEFDB442F6D101220021284600F09B
:104BE0000BFE002385F8323003B0F0BDF0B583B082
:104BF00000274FEA114E4FEA112C8DF8061014468B
:104C000039463A4605461E468DF804E08DF805C043
:104C10008DF8077000F0F0FD04220DEB020128462C
:104C2000022300F0DBFD012285F832205EB126442C
:104C300001E095F832200021284600F0B9FD04F883
:104C4000010BB442F5D101220021284600F0D4FD29
:104C5000002385F8323003B0F0BD00BF70B50629DF
:104C600082B00C4605460BD005292FD0042945D02B
:104C700003291DD002294AD0002945D002B070BDB9
:104C8000002644F2616332463146ADF804308DF8B7
:104C9000066000F0B1FD2346032201A9284600F07A
:104CA0009DFD31462846012200F0A6FD02B070BDF0
:104CB000002640F2613332463146ADF804308DF8BB
:104CC000066000F099FD22460623E6E7002422460E
:104CD000214644F26153ADF804308DF8064000F0EF
:104CE0008BFD062301A90322284600F077FD21460B
:104CF0002846012200F080FD02B070BD002422464B
:104D0000214644F26143E6E761230A46E3E70024D3
:104D10002246214640F26123DDE700BF022935D853
:104D20002DE9F041531E012B82B0154631D8022ADD
:104D30004FF0000204460CBF41F004088846882367
:104D40000E4642F2B01711468DF80630ADF80470E9
:104D500000F052FD0223032201A9204600F03EFD8F
:104D60000222414684F83220204600F021FD012233
:104D70000021204600F040FD002084F83C6084F8CB
:104D80003D5084F8320002B0BDE8F0814FF0FF30B2
:104D900070474FF0FF30F6E770B5C28D037A1144CB
:104DA000012B82B001F1030140F6FC7505EA010513
:104DB0004FF000020CBFE821FC2104460BBF9023FA
:104DC000B023242620268DF80610C58511468DF8BF
:104DD00004308DF8056000F00FFD022301A9204684
:104DE000032200F0FBFC022205F0FC0184F83220D3
:104DF000204600F0DDFC94F83220290A204600F01D
:104E0000D7FC20460122002100F0F6FC002384F8A4
:104E1000323002B070BD00BF2DE9F04FC58D85B0B6
:104E200004468B46924600264FF00109A846237A95
:104E30008DF80F60012B4FF000020BBFE427F8271D
:104E4000242520250CBF10233023114620468DF841
:104E50000E708DF80D508DF80C3000F0CDFC022353
:104E6000042203A9204600F0B9FC0122002184F8A5
:104E70003290204600F09CFC94F832200746002136
:104E8000204600F095FC012205460021204600F056
:104E9000B3FC47EA0520A8EB0005C5F30B05C5F5F3
:104EA0007F650C35ADB2554528BF554684F8326054
:104EB000237A8DF80F60012B4FF000020BBF2427DF
:104EC0002027102330230CBF4FF0E40C4FF0F80CD8
:104ED000114620468DF80EC08DF80D708DF80C30FF
:104EE000E78D00F089FC0223042203A9204600F08C
:104EF00075FC0122002184F83290204600F058FC15
:104F000094F8322080460021204600F051FC012216
:104F100001900021204600F06FFC019B84F8326074
:104F200048EA03203F1AC7F30B07C7F57F670C3722
:104F3000BFB2BD42BCD8227AE38D012A0CBF4FF428
:104F400084124FF4421213441F0C00224FEA132C18
:104F5000114667F07F0720468DF80DC0ADB28DF881
:104F60000E308DF80C704FF0020800F045FC022363
:104F7000032203A9204600F031FC2A4600235946AB
:104F800084F83280204600F029FC012207460021E7
:104F9000204600F031FCE58D237A84F832603D44F0
:104FA000C5F30B05033525F00305012B4FEA055525
:104FB0000CBFE820FC204FEA15554FF000020BBF54
:104FC0009023B0234FF0240C4FF0200C11468DF8A5
:104FD0000E00E58520468DF80DC08DF80C3000F0F0
:104FE0000BFC0223032203A9204600F0F7FB05F087
:104FF000FC01022284F83280204600F0D9FB94F8AC
:105000003220290A204600F0D3FB0122002120464D
:1050100000F0F2FBBB4484F83260237A8DF80F6015
:10502000012B4FF000020BBF4FF0E40C4FF0F80CD7
:10503000242520250CBF10233023114620468DF84F
:105040000EC08DF80D508DF80C3000F0D5FB02230A
:10505000042203A9204600F0C1FB0122002184F8AC
:105060003290204600F0A4FB94F8322080460021C4
:10507000204600F09DFB012248EA0028002120463E
:1050800000F0BAFB237A84F83260012B0CBFE820D1
:10509000FC204FF000020BBF2425202510233023D5
:1050A00011468DF80E0020468DF80D508DF80C300D
:1050B0008DF80F6000F0A0FB0223042203A9204614
:1050C00000F08CFB0122002184F83290204600F091
:1050D0006FFB94F8322005460021204600F068FB63
:1050E00045EA00250FFA88F82DB20122002120465A
:1050F00000F082FBA84584F832608ED1237A8DF8C7
:105100000F60012B0CBFE820FC204FF000020BBF0A
:10511000242520251023302311468DF80E0020462B
:105120008DF80D508DF80C3000F066FB0223042240
:1051300003A9204600F052FB0122002184F832909E
:10514000204600F035FB94F8322005460021204629
:1051500000F02EFB012245EA00250021204600F048
:105160004BFB1FFA85F8BAEB070AA4F82E8084F8E7
:1051700032607FF45CAE05B0BDE8F08F2DE9F043FE
:10518000054683B00F4600262B7A8DF80760012B69
:105190004FF000020BBF24242024102330230CBF27
:1051A0004FF0E40C4FF0F80C114628468DF806C07D
:1051B0008DF805408DF80430EC8D00F01DFB0422C5
:1051C00002234FF001090DEB0201284600F006FB17
:1051D0004A4685F832900021284600F0E9FA95F811
:1051E000322080460021284600F0E2FA4A4600219B
:1051F0008146284600F000FB48EA0920231AC3F341
:105200000B03C3F57F630C339BB2BB4285F832605E
:10521000BAD303B0BDE8F0832DE9F041044682B073
:105220004FF00008237A8DF80780012B4FF0000221
:105230000BBF24252025E426F8260CBF102330239D
:10524000114620468DF805508DF806608DF8043023
:1052500000F0D2FA0422012702230DEB02012046BE
:1052600000F0BCFA3A46002184F83270204600F083
:105270009FFA94F8322006460021204600F098FA62
:105280003A4646EA00260021204600F0B5FA237A85
:1052900084F83280BB424FF000020BBF242520254A
:1052A000102330230CBF4FF0E80C4FF0FC0C1146DC
:1052B00020468DF806C08DF805508DF804308DF825
:1052C000078000F099FA042202230DEB0201204628
:1052D00000F084FA3A46002184F83270204600F04B
:1052E00067FA94F8322005460021204600F060FA63
:1052F00045EA002536B22DB23A460021204600F09C
:105300007BFAAE4284F832808CD1217A064A074B70
:105310002046B9420CBF11461946FFF71BFBE0853A
:1053200002B0BDE8F08100BFE8241000FC2030008E
:105330002DE9F04F044685B08A469146002740F695
:10534000FC7B237A8DF80F70012B4FF000020BBF0E
:10535000E426F826242520250CBF102330231146EF
:1053600020468DF80E608DF80D50E68D8DF80C30CE
:1053700000F042FA0223042203A9204600F02EFA8C
:105380004FF0010384F8323001220021204600F062
:105390000FFA94F8322080460021204600F008FAE7
:1053A000012205460021204600F026FA48EA0520A1
:1053B000351AC5F30B05ABEB0505ADB24D4528BF5E
:1053C0004D4684F83270237A8DF80F70012B4FF020
:1053D00000020BBF24262026102330230CBF4FF0E1
:1053E000E40C4FF0F80C114620468DF80EC08DF8F5
:1053F0000D608DF80C30E68D00F0FEF902230422DA
:1054000003A9204600F0EAF94FF0010384F8323096
:1054100001220021204600F0CBF994F8322080468A
:105420000021204600F0C4F901220190002120460D
:1054300000F0E2F9019B84F8327048EA0320361A42
:10544000C6F30B06ABEB0606B6B2B542BBD8227A62
:10545000E38D012A0CBF4FF484124FF4421213441F
:105460001E0C00224FEA132C114666F07F062046E0
:105470008DF80DC0ADB28DF80E308DF80C604FF088
:10548000020800F0B9F90223032203A9204600F024
:10549000A5F92A460023514684F83280204600F0C0
:1054A0009DF9012206460021204600F0A5F9E58D70
:1054B000237A84F832703544C5F30B05012B05F1CE
:1054C00003050CBFE820FC200BEA05054FF00002A5
:1054D0000BBF9023B0234FF0240C4FF0200C11464B
:1054E0008DF80E00E58520468DF80DC08DF80C3046
:1054F00000F082F90223032203A9204600F06EF98E
:1055000005F0FC01022284F83280204600F050F9B8
:1055100094F83220290A204600F04AF9012200219D
:10552000204600F069F9B9EB0609B24484F83270FC
:105530007FF407AF05B0BDE8F08F00BF2DE9F04361
:10554000044683B00E460027237A8DF80770012B9E
:105550004FF000020BBF24252025102330230CBF61
:105560004FF0E40C4FF0F80C114620468DF806C0C1
:105570008DF805508DF80430E58D00F03DF90422DA
:1055800002234FF001090DEB0201204600F026F93D
:105590004A4684F832900021204600F009F994F838
:1055A000322080460021204600F002F94A460021C0
:1055B0008146204600F020F948EA09202B1AC3F35F
:1055C0000B03C3F57F630C339BB2032B84F832705B
:1055D000BAD9227AE38D012A0CBF4FF484124FF41A
:1055E000421213441D0C00221F0A114665F07F056C
:1055F00020468DF806308DF804508DF8057000F0C7
:10560000FBF80223032201A9204600F0E7F802225A
:1056100084F83220F1B2204600F0CAF894F8322023
:10562000C6F30721204600F0C3F894F83220022A7E
:105630004CD00021204600F0BBF894F83220002125
:10564000204600F0B5F800210122204600F0D4F8F1
:10565000E38D227A0733012A40F6FC7606EA030638
:105660000BBFE821FC21242020204FF000050CBFB7
:105670009023B0232A468DF806108DF805002946A0
:10568000E68584F8325020468DF8043000F0B4F8F6
:10569000022301A90322204600F0A0F8022206F00E
:1056A000FC0184F83220204600F082F894F8322081
:1056B000310A204600F07CF829460122204600F0FD
:1056C0009BF884F8325003B0BDE8F083C6F307417D
:1056D0002046360C00F06CF894F83220310A20464F
:1056E00000F066F8AFE700BF70B5037A2C4D82B0CA
:1056F0000022012B0CBF9023B023044611468DF8E5
:1057000005208DF804308DF8062000F075F803228E
:10571000204601A9022300F061F8022284F8322019
:1057200005F10C0601E094F8322015F8011B204623
:1057300000F03EF8B542F6D100210122204600F0EB
:105740005BF8237A012B0BBF502154212420202009
:105750004FF000050CBF9023B0232A468DF80610A9
:105760008DF80500294684F8325020468DF8043023
:1057700000F042F8022301A90322204600F02EF88F
:10578000022284F832201146204600F011F8294602
:105790000122204600F030F884F8325002B070BD8B
:1057A000600802080120704701F084BA01207047A8
:1057B00010B586B04FF0FF330C4600930DF1170281
:1057C00001230DF10F0104488DF80F4004F012FB86
:1057D0009DF8170006B010BD9403002010B54FF0DF
:1057E000FF331446024804F0E1F9204610BD00BF23
:1057F0009403002001207047012910B50C460DD0FC
:1058000006D809484FF4805101F0C6FC012010BDB4
:105810008C1E022C8CBF0020012010BD03484021AB
:1058200001F0BAFC204610BD00040240001C0240FA
:1058300070B50C4E0C4D3068296882B04FF6FF747D
:10584000821E8B1E183806390094FCF70BF830685E
:10585000296800948B1E821E18390638FCF702F85E
:1058600002B070BD3C3900203439002070B582B0E0
:105870004FF6FF7402210094084606231822FBF716
:10588000F1FF0F4E0F4D0094022108461823062207
:10589000FBF7E8FF306829680024821E8B1E183849
:1058A00006390094FBF7DEFF3068296800948B1EF0
:1058B000821E18390638FBF7D5FF02B070BD00BF55
:1058C0003C3900203439002010B5FF2282B0114647
:1058D0001046FBF7B9FD0024022108460094062378
:1058E0001822FBF7BFFF0221009408461823062266
:1058F000FBF7B8FF02B010BD2DE9F04F95B0FCF7F3
:10590000A5F970B9164B1B7863B1164E3378052B89
:105910003DD8DFE813F00F0433003C044704520481
:105920005D04FEE7104B1B78042B14D8DFE813F05E
:105930007F038A03A603AF03EE030920FBF7F8FCFD
:105940000920FCF7B7FA09490948FBF7AFFD0949F7
:105950000948FCF72FFBFBF7BBFD15B0BDE8F08F46
:1059600049010020100000201100002034390020DF
:105970003C39002038390020243900200121022040
:10598000FCF7B4F8C34AC4490220FCF751F9C34CF0
:10599000C34DDFF82CB3DFF818A3DFF830930327EB
:1059A0002068FEF7ADFC20685946FDF779FB2068BA
:1059B0005146FDF775FBBB492068FDF771FBEA898D
:1059C000A989B94B02974FF4B0580193CDF80080E4
:1059D0009208143A1F2320684908FEF75DFB4946E8
:1059E0002068FEF78BFFEA89A989B04B0193CDF8B7
:1059F0000080029092081E321C2320684908FEF79E
:105A00004BFB20684FF00451FDF74AFB0021206852
:105A1000FDF746FB2068FEF7E1FB2068FDF768FB19
:105A20002068FFF7F9FB4FF4FA70FFF7A9F8013F80
:105A3000B6D12068FEF764FC20684FF00071FDF7D6
:105A40002FFB9B492068FDF72BFB00973B468222EA
:105A50002068F021FEF798FB39462068FDF720FB0F
:105A600040F6B830FFF78CF82068FEF7B7FB2068E7
:105A7000FDF73EFB2068FFF7CFFB8948FEF7EAFC05
:105A80008C492068FEF73AFF3378043B012B074628
:105A90003FF661AF6420FBF751FA002800F0A383C2
:105AA0003378DFF82C82DFF82C92DFF82CB2042B4D
:105AB0000CBF814B814B0FCB04AFBC46ACE8070059
:105AC00020688CF80030FEF71BFC20687C49FDF74D
:105AD000E7FA20687649FDF7E3FA20684FF0806125
